:100000000C9460030C949C0A0C947D030C947D0367
:100010000C947D030C947D030C947D030C947D0360
:100020000C947D030C947D030C947D030C947D0350
:100030000C947D030C947D030C947D030C947D0340
:100040000C947D030C947D030C947D030C947D0330
:100050000C947D030C947D030C947D030C947D0320
:100060000C947D030C947D030C947D030C947D0310
:1000700000000000005C00000C000C007C287C28C4
:1000800058DC68002410480028542840000C000068
:10009000007884008478000054385400107C1000EC
:1000A00080400000101010000040000060100C00A4
:1000B00038543800487C40004864580044542C00B0
:1000C0001C107C005C5424003854240064140C0080
:1000D00068542C0048543800004800008048000054
:1000E0001028440028282800442810000454080040
:1000F00038445C00781478007C5428003844280088
:100100007C4438007C5444007C140400384474005F
:100110007C107C00447C440020403C007C106C003F
:100120007C4040007C187C0078103C00384438004B
:100130007C1408003844B8007C146800485424003B
:10014000047C04007C407C003C603C007C307C00F3
:100150006C106C000C700C0064544C00007C44006B
:100160000C106000447C00000804080080808000BF
:1001700000040800304878007C48300030484800CF
:1001800030487C00306850001078140090A8780047
:100190007C08700050744000808074007C106800FF
:1001A000447C4000781078007808700030483000B7
:1001B000F82810003048F80078100800505828003F
:1001C000083C4800384078003840380078207800F3
:1001D0004830480098A0780048685800107884009B
:1001E000007C00008478100008040804000000006F
:1001F0000000005F00000007000700147F147F1458
:10020000242A7F2A1223130864623649552250009B
:1002100005030000001C2241000041221C00082AA6
:100220001C2A0808083E080800503000000808088A
:100230000808006060000020100804023E51494593
:100240003E00427F400042615149462141454B31C9
:100250001814127F1027454545393C4A4949300159
:10026000710905033649494936064949291E0036B0
:100270003600000056360000000814224114141401
:10028000141441221408000201510906324979412F
:100290003E7E1111117E7F494949363E414141223E
:1002A0007F4141221C7F494949417F090901013EA3
:1002B000414151327F0808087F00417F41002040C2
:1002C000413F017F081422417F404040407F0204AB
:1002D000027F7F0408107F3E4141413E7F090909AA
:1002E000063E4151215E7F09192946464949493157
:1002F00001017F01013F4040403F1F2040201F7F00
:100300002018207F631408146303047804036151E8
:1003100049454300007F4141020408102041417FCC
:100320000000040201020440404040400001020479
:100330000020545454787F4844443838444444207E
:10034000384444487F3854545418087E0901020840
:100350001454543C7F0804047800447D400020403D
:10036000443D00007F10284400417F40007C041879
:1003700004787C0804047838444444387C14141409
:1003800008081414187C7C080404084854545420A9
:10039000043F4440203C4040207C1C2040201C3C2A
:1003A0004030403C44281028440C5050503C446499
:1003B000544C44000836410000007F0000004136E4
:1003C000080002010302010000000000000000001C
:1003D000065F5F0600000000070700070700001423
:1003E0007F7F147F7F1400242E6B6B3A120000462F
:1003F0006630180C666200307A4F5D377A48000428
:1004000007030000000000001C3E634100000000E4
:1004100041633E1C000000082A3E1C1C3E2A0808BE
:10042000083E3E0808000000A0E060000000000850
:100430000808080808000000006060000000006074
:1004400030180C060301003E7F594D7F3E000042EC
:10045000427F7F40400000627359496F660000226E
:100460006349497F360000181C16137F7F10002750
:100470006745457D3900003C7E4B497930000003DB
:100480006371190F070000367F49497F3600000667
:100490004F49693F1E000000006C6C000000000026
:1004A000A0EC6C00000000081C3663410000001442
:1004B00014141414140000004163361C08000002D8
:1004C0000351590F0600003E7F415D5D1F1E007CF9
:1004D0007E13137E7C0000417F7F49497F36001CDC
:1004E0003E634141632200417F7F41637F1C0041A5
:1004F0007F7F495D416300417F7F491D0103001CEF
:100500003E6341517372007F7F08087F7F000000C7
:10051000417F7F41000000307040417F3F0100413A
:100520007F7F081C776300417F7F41406070007FC0
:100530007F060C067F7F007F7F060C187F7F001CE4
:100540003E6341633E1C00417F7F49090F06001E48
:100550003F21717F5E0000417F7F19396F46002681
:10056000674D597B32000003417F7F410300007FCC
:100570007F40407F7F00001F3F60603F1F00007F83
:100580007F3018307F7F0063771C081C776300077B
:100590004F78784F0700006773594D47637100002B
:1005A0007F7F41410000000103060C18306000000D
:1005B00041417F7F000000080C0603060C08008004
:1005C000808080808080800000030704000000207D
:1005D0007454543C784000413F7F44447C38003898
:1005E0007C44446C280000307848493F7F40003804
:1005F0007C54545C180000487E7F49030200009838
:10060000BCA4A4F87C0400417F7F08047C7800002F
:10061000447D7D4000000040C484FD7D0000004119
:100620007F7F10386C440000417F7F400000007CD9
:100630007C0C180C7C78007C7C04047C78000038EE
:100640007C44447C38000084FCF8A4243C18001846
:100650003C24A4F8FC8400447C78441C1800004826
:100660005C54547424000000043E7F442400003C89
:100670007C40403C7C40001C3C60603C1C00003CDA
:100680007C6030607C3C00446C3810386C44009CCA
:10069000BCA0A0FC7C00004C64745C4C64000008AE
:1006A000083E7741410000000000777700000041DC
:1006B00041773E0808000002030103020301000025
:1006C00011241FBECFEFD4E0DEBFCDBF13E0A0E00A
:1006D000B1E0ECE0F1E202C005900D92A433B10765
:1006E000D9F723E0A4E3B3E001C01D92AE33B20713
:1006F000E1F70E9498030C9484100C940000CF93AF
:10070000CFEFCABBC7BB0E947104C6B98FE190E0AE
:100710000E94DC0311BAC2BB80E885BF80E280BFC3
:100720000E94DF040E94FA080E945D09CF9108959B
:10073000CF93DF93CDB7DEB762970FB6F894DEBFE5
:100740000FBECDBFF8940E947F0381E089838FEFB5
:1007500090E00E9461050E9445082FEF8FEF9AE418
:10076000215080409040E1F700C000000E946D05DC
:100770000E9487070E94B00785E08A830E9468086C
:10078000CE0101960E94F20ACE010B967C010981EE
:100790001A812B813C814D815E816F8178858985AD
:1007A0009A850E94D909EACF5F9BFECF8CB108954C
:1007B0005D9BFECF8CB9089590BD89B988E18AB957
:1007C0008EE880BD64ED73E088ED93E00E94B80C84
:1007D000089580E885BF0895CF92DF92EF92FF924F
:1007E0000F931F93CF93DF938EE091E00E94190D3A
:1007F00080E090E00E94AD0CC0E0D0E000E010E0AE
:100800000F2EF4E2EF2EF1E0FF2EF02D0E94A80C47
:10081000FE01F85E808320812817A9F099279F9315
:100820008F931F922F93DF93CF93FF92EF920E94AB
:10083000030D0F5F1F4F8DB79EB708960FB6F89444
:100840009EBF0FBE8DBF2196C11598E0D907F1F666
:1008500080E090E00E94AD0CC0E0D0E0E12CF12CF3
:100860000F2EFEE5CF2EF1E0DF2EF02D0E94A80C1A
:10087000FE01F85E20812817B1F099279F938F938E
:100880001F922F93DF93CF93DF92CF920E94030D9D
:100890008FEFE81AF80A8DB79EB708960FB6F8944E
:1008A0009EBF0FBE8DBF2196C11598E0D907F1F606
:1008B000FF92EF921F930F938CE991E09F938F9398
:1008C0000E94030D0F900F900F900F900F900F90BC
:1008D000DF91CF911F910F91FF90EF90DF90CF901C
:1008E0000895B8980895CF93DF931F92CDB7DEB7E0
:1008F000E0E0F4E184E0808387E99AE30197F1F78F
:1009000000C0000080818983898190E00F90DF9191
:10091000CF910895E0E0F4E185E0808387E99AE3F0
:100920000197F1F700C00000808190E00895E0E0B9
:10093000F4E186E0808387E99AE30197F1F700C04C
:100940000000808190E00895E0E0F4E187E080839A
:1009500087E99AE30197F1F700C00000808190E0F9
:10096000089586B3817090E0089586B3887090E012
:100970000895E0910201F091030180830895E091D0
:100980000001F091010180830895082E000C990B5D
:100990008097880F991F880F991F880F991FFC0156
:1009A000E953FC4F81539C4FA0910001B09101018C
:1009B00024912C933196E817F907B1F70895E09147
:1009C0000201F09103018EEA8083E0910201F0912F
:1009D000030181EA8083E0910201F09103018AED35
:1009E0008083E0910201F091030182E18083E09134
:1009F0000201F091030188EC8083E0910201F09103
:100A0000030188EA8083E0910201F09103018FE302
:100A10008083E0910201F091030185ED8083E091F4
:100A20000201F091030180E88083E0910201F091DE
:100A3000030189ED8083E0910201F091030181E2DD
:100A40008083E0910201F091030190E29083E091B4
:100A50000201F091030182E08083E0910201F091B4
:100A600003012BED2083E0910201F091030120E3CB
:100A70002083E0910201F09103012DEA2083E091AF
:100A80000201F09103011082E0910201F091030153
:100A900024EA2083E0910201F091030126EA2083F9
:100AA000E0910201F09103012FEA2083E09102011D
:100AB000F09103019083E0910201F09103018083A2
:100AC0000895E0910201F091030191E89083E09193
:100AD0000201F091030180830895E0910201F091F9
:100AE000030180EB8083E0910201F091030181E238
:100AF0008083E0910201F09103011082E0910201F4
:100B0000F09103018FE78083E0910201F0910301EE
:100B100082E28083E0910201F09103011082E09172
:100B20000201F091030187E0808320EB40E830E090
:100B30000FC0E0910001F091010110820197C9F707
:100B4000E0910201F091030120832F5F293B19F00E
:100B5000842F932FEECFE0910201F091030180EBFF
:100B600080830895E0910201F091030192E2908365
:100B7000E0910201F09103011082E0910201F091F5
:100B8000030197E090838155E0910201F091030108
:100B90008083E0910201F091030181E28083E09182
:100BA0000201F09103011082E0910201F091030132
:100BB0008FE780830895E0910201F091030182E2C2
:100BC0008083E0910201F09103011082E091020123
:100BD000F091030187E0808320EB71E260E75FE73B
:100BE0004FE030E0E0910201F09103017083E09169
:100BF0000201F09103016083E0910201F091030191
:100C00005083E0910201F09103012083842F932F00
:100C1000E0910001F091010110820197C9F72F5F67
:100C2000283B01F708950E948A04892B49F48FE438
:100C300093EC0197F1F700C0000081E090E0089587
:100C40000E948A048F3F91054CF08FE493EC01974A
:100C5000F1F700C000008FEF9FEF089580E090E073
:100C600008950E9473048F3F91054CF08FE493EC3C
:100C70000197F1F700C0000081E090E008950E9424
:100C80007304181619064CF08FE493EC0197F1F7F2
:100C900000C000008FEF9FEF089580E090E008957E
:100CA0000F931F93CF93DF93FC0101900020E9F78E
:100CB0003197E81BF90B1E161F0654F4EC018C014A
:100CC0000E0F1F1F89910E94C504C017D107D1F7CD
:100CD000DF91CF911F910F910895CF93DF93C82F8C
:100CE000D92F0E94DB05E0910201F091030182E21D
:100CF0008083E0910201F09103011082E0910201F2
:100D0000F091030187E080838FEA8C0FE09102016C
:100D1000F09103018083E0910201F091030181E2EF
:100D20008083E0910201F091030180E78083E091EC
:100D30000201F09103018FE7808386EF91E00E942A
:100D400050068C2F9D2F0E94B205DF91CF91089500
:100D50008FEF90E00E94610508958FE090E00E947F
:100D60006105089585E090E00E94610508950E9464
:100D70006D0581E090E00E94B20589EF91E00E944C
:100D8000500683E090E00E94B20581E092E00E946C
:100D9000500684E090E00E94B2058AE092E00E9452
:100DA00050068FE092E09F938F930E94030D0F9067
:100DB0000F9008950E946D0581E090E00E94B205B9
:100DC00089E192E00E94500683E090E00E94B20523
:100DD00087E292E00E94500684E090E00E94B20513
:100DE00087E392E00E94500686E492E09F938F93FF
:100DF0000E94030D0F900F9008950E946D058FE4DF
:100E000092E00E9450068CE592E09F938F930E949F
:100E1000030D0F900F9008950E946D050E94A80683
:100E200087E692E00E94500683E090E00E94B205BF
:100E300087E792E00E9450060E94DB0508950E9419
:100E40006D050E94B20686E892E00E94500683E09B
:100E500090E00E94B20587E792E00E9450060E944F
:100E6000DB052FEB87E299E0215080409040E1F7CD
:100E700000C00000089586E190E00E942F0BFC0165
:100E80001382128227EB36E031832083158A148A7D
:100E900034969C012C5E3F4F11921192E217F3079A
:100EA000D9F70895EF92FF920F931F93CF93DF939B
:100EB000EC017B018A0186E190E00E942F0BFC018E
:100EC000F182E082D383C283158B048B2A853B8514
:100ED000232B59F0DE011C9623E030E02F5F3F4FBB
:100EE0004D915D91452BD1F702C023E030E02E5F9C
:100EF0003F4F220F331FFE01E20FF31F91838083C8
:100F0000DF91CF911F910F91FF90EF9008950F9374
:100F10001F93CF93DF930E943B07EC0140E050E02A
:100F20006AED76E00E9452078C0141E050E06DEFDF
:100F300076E0CE010E94520740E050E06CE077E09E
:100F4000C8010E94520740E050E06FE177E0C8011D
:100F50000E945207CE01DF91CF911F910F9108950A
:100F6000CF92DF92EF92FF920F931F93CF93DF9375
:100F70007C01DC01ED91FC910995C3E0D0E00F2EDE
:100F8000F3E0CF2EF02DD12C4CC0CE010E946D0687
:100F90008E010F5F1F4FFE013396EE0FFF1FEE0D08
:100FA000FF1D80819181892B29F00E9413060197F2
:100FB00009F4E8018E0101501109FE013196EE0F8E
:100FC000FF1FEE0DFF1D80819181892B29F00E946A
:100FD0001306019609F4E8010E943106019781F495
:100FE000FE013296EE0FFF1FEE0DFF1D00811181F5
:100FF0000115110529F0D801ED91FC9109957801B1
:101000000E943106019669F4F701028113810115EE
:10101000110539F0D801ED91FC9109957801CC2D9D
:10102000DD2DD70154968D919C915597019709F02C
:10103000ACCFDF91CF911F910F91FF90EF90DF9098
:10104000CF9008950E946D0581E090E00E94B20566
:1010500085E992E00E94500683E090E00E94B2058C
:1010600080EA92E00E94500684E090E00E94B2057F
:1010700083EA92E00E94500687EA92E09F938F9362
:101080000E94030D0F900F9008950E946D0582E05D
:1010900090E00E94B2058DEA92E00E94500683E043
:1010A00090E00E94B20589EB92E00E94500685E034
:1010B00090E00E94B20583EC92E00E94500686E028
:1010C00090E00E94B20582ED92E00E9450060895E1
:1010D0000E94B504892B69F10E946D058FED92E0A5
:1010E0000E94500682E090E00E94B20585EE92E0F8
:1010F0000E94500683E090E00E94B20581EF92E0EA
:101100000E94500684E090E00E94B20588EF92E0D1
:101110000E9450060AC00E94B104892B31F00E943F
:101120006D058CE592E00E9450060E94B104892B67
:1011300091F308958FB9779BFECF08958FEF8FB904
:10114000779BFECF8FB190E00895009719F001973B
:1011500019F00895C4980895C49A089580EB87BB48
:10116000BE9881E58DB981E090E00E94A5080895C0
:10117000CF93DF93C82F80E090E00E94A50883E022
:101180000E949A088C2F0E949A080E949E08EC01E7
:1011900081E090E00E94A508CE01DF91CF910895F3
:1011A000CF93DF93D82FC62F80E090E00E94A50850
:1011B00082E00E949A088D2F0E949A088C2F0E942C
:1011C0009A0881E090E00E94A508DF91CF910895F0
:1011D00080E090E00E94A50880EC0E949A0881E0DF
:1011E00090E00E94A50883EC99E00197F1F700C018
:1011F000000008950E94AE080E94E8088EE090E08A
:101200000E94B808089580E090E00E94A50880EA56
:101210000E949A0881E090E00E94A50880EA90E090
:10122000089581E090E00895CF93DF93EC0180E092
:1012300090E00E94A508CE0163E070E00E94070BD9
:10124000009739F08130910531F0029731F484E84C
:1012500005C081E803C082E801C081E80E949A08C5
:1012600081E090E00E94A508DF91CF9108951F933F
:10127000CF93DF93182FD62FC42F80E090E00E94E9
:10128000A50885E00E949A08812F0E949A088D2F58
:101290000E949A088C2F0E949A0881E090E00E9498
:1012A000A508DF91CF911F910895AC0160EE70E029
:1012B0008FE090E00E943709089580E090E00E945E
:1012C000A50841E050E061E070E08BE290E00E9410
:1012D000370941E050E064E070E08BE290E00E946A
:1012E000370940E050E061E070E08CE290E00E945D
:1012F000370940E050E064E070E08CE290E00E944A
:10130000370985B7826085BF8BB780648BBF8AB78A
:1013100080648ABF80E090E00E94550981E090E0FF
:101320000E94A50878940895EF92FF920F931F935F
:10133000CF93DF937C01FC0160816695669566958D
:1013400070E081E390E00E94D008F7016081F0E254
:101350006F9FB001112482E390E00E94D008F70152
:10136000618170E085E390E00E94D008F7018181FF
:101370008823A1F087010E5F1F4FC0E0D0E0F80185
:1013800061918F0170E0CE01C6960E94D00821962F
:10139000F701218130E0C217D3078CF380E090E0A1
:1013A0000E941409DF91CF911F910F91FF90EF9050
:1013B0000895EF92FF920F931F93CF93DF93CDB7D2
:1013C000DEB72A970FB6F894DEBF0FBECDBF0983F4
:1013D0001A832B833C834D835E836F837887898751
:1013E0009A87822F90E0F7012081821B91099C014E
:1013F00022F422273327281B390B2430310594F49B
:101400008C8190E0F7012181821B91099C0122F4DB
:1014100022273327281B390B243031051CF48F81F8
:10142000813059F4CE0101960E94940906C0819141
:101430008D93E217F307D9F707C0FE013396D70162
:101440009E01255F3F4FF3CF80E090E02A960FB6D4
:10145000F894DEBF0FBECDBFDF91CF911F910F91EA
:10146000FF90EF9008957F928F929F92AF92BF92DC
:10147000CF92DF92EF92FF920F931F93CF93DF9360
:10148000CDB7DEB72A970FB6F894DEBF0FBECDBF3B
:101490005C0181E690E00E94B808182F82E690E097
:1014A0000E94B80896958795929582958F708927A6
:1014B0009F708927782E28E0129F700C112485E6F2
:1014C00090E00E94B8084C016C01DD241C141D043E
:1014D000A4F47E0183E0E80EF11CE6E6CE0ED11CFA
:1014E00006E610E0C8010E94B808F70181937F0169
:1014F0000F5F1F4F0C151D05A9F779828A828AE0BC
:10150000FE013196D50101900D928A95E1F7C50152
:101510002A960FB6F894DEBF0FBECDBFDF91CF91F4
:101520001F910F91FF90EF90DF90CF90BF90AF9001
:101530009F908F907F9008951F920F920FB60F92F9
:1015400011242F933F934F935F936F937F938F93C8
:101550009F93AF93BF93EF93FF93CF93DF93CDB759
:10156000DEB72A97DEBFCDBFF894CE0101960E9468
:10157000330A8A81893060F01F928F9384E093E070
:101580009F938F930E94030D0F900F900F900F90D9
:1015900040E050E061E070E08CE290E00E943709AA
:1015A00086E293E09F938F930E94030D78940F90AF
:1015B0000F902A960FB6F894DEBF0FBECDBFDF9115
:1015C000CF91FF91EF91BF91AF919F918F917F91BB
:1015D0006F915F914F913F912F910F900FBE0F90A0
:1015E0001F901895CF93DF93EC010E9473048A83B8
:1015F0000E948A048B830E9497048C830E94A40417
:101600008D830E94B1048E83DF91CF91089597FB63
:10161000072E16F4009407D077FD09D00E941B0B0B
:1016200007FC05D03EF4909581959F4F08957095E5
:1016300061957F4F0895AA1BBB1B51E107C0AA1FEC
:10164000BB1FA617B70710F0A61BB70B881F991F63
:101650005A95A9F780959095BC01CD010895CF9337
:10166000DF938230910510F482E090E0E091360340
:10167000F091370320E030E0C0E0D0E0309711F186
:101680004081518148175907C0F04817590761F444
:1016900082819381209719F09B838A832BC090933A
:1016A00037038093360326C02115310519F0421700
:1016B000530718F49A01BE01DF01EF010280F381A4
:1016C000E02DDCCF2115310509F1281B390B243021
:1016D000310590F412968D919C91139761157105C7
:1016E00021F0FB019383828304C09093370380939E
:1016F0003603FD01329644C0FD01E20FF31F8193D2
:101700009193225031092D933C933AC02091340398
:1017100030913503232B41F42091060130910701CC
:101720003093350320933403209104013091050157
:101730002115310541F42DB73EB740910801509174
:101740000901241B350BE0913403F0913503E217B6
:10175000F307A0F42E1B3F0B2817390778F0AC01D4
:101760004E5F5F4F2417350748F04E0F5F1F5093B1
:101770003503409334038193919302C0E0E0F0E09D
:10178000CF01DF91CF9108950F931F93CF93DF93F4
:10179000009709F48CC0FC013297138212820091E9
:1017A0003603109137030115110581F42081318131
:1017B000820F931F20913403309135032817390786
:1017C00079F5F0933503E093340371C0D80140E01C
:1017D00050E0AE17BF0750F412962D913C9113972D
:1017E000AD012115310509F1D901F3CF9D01DA01D0
:1017F0003383228360817181860F971F821793073D
:1018000069F4EC0128813981260F371F2E5F3F4F85
:10181000318320838A819B8193838283452B29F4A2
:10182000F0933703E093360342C01396FC93EE9394
:101830001297ED01499159919E01240F351FE2172E
:10184000F30771F480819181840F951F02961196A0
:101850009C938E938281938113969C938E9312977F
:10186000E0E0F0E0D80112968D919C9113970097DB
:1018700019F0F8018C01F6CF8D919C9198012E5FA3
:101880003F4F820F931F2091340330913503281767
:10189000390769F4309729F4109237031092360310
:1018A00002C0138212821093350300933403DF9138
:1018B000CF911F910F9108958F929F92AF92BF92F7
:1018C000CF92DF92EF92FF92CF93DF93EC0168818A
:1018D00079818A819B81611571058105910521F4CA
:1018E00064E279ED8BE597E02DE133EF41E050E0E4
:1018F0000E94EA0F49015A019B01AC01A7EAB1E439
:101900000E9409106B017C01ACEEB4EFA5019401BB
:101910000E941710DC01CB018C0D9D1DAE1DBF1D5B
:10192000B7FF03C00197A109B04888839983AA83B0
:10193000BB839F77DF91CF91FF90EF90DF90CF90A7
:10194000BF90AF909F908F9008950E945C0C089577
:101950008AE091E00E945C0C0895A0E0B0E08093E2
:101960000A0190930B01A0930C01B0930D0108950F
:101970000F931F93CF93DF93009731F46115710597
:1019800019F480E090E03AC08B01EC016EE070E069
:1019900081E090E00E941B0FFC01892B91F380E80D
:1019A00083830115110571F01387028781E8838312
:1019B0008091380390913903892B21F4F0933903F6
:1019C000E09338032097C9F0D187C0878381826074
:1019D000838380913A0390913B03892B71F4F093B8
:1019E0003B03E0933A0380913C0390913D03892BA4
:1019F00021F4F0933D03E0933C03CF01DF91CF91BD
:101A00001F910F910895A0E0B0E0E9E0FDE00C9493
:101A10002C10AE014B5F5F4FFA0161917191AF01E4
:101A200080913A0390913B030E94490DE2E00C94AF
:101A300048100F931F93CF93DF93E0913A03F091F7
:101A40003B03238121FF1BC08C01D0E0C0E0F801E3
:101A500081918F0160913A0370913B03DB011896ED
:101A6000ED91FC911997882331F00995892B79F331
:101A7000DFEFCFEFECCF8AE00995892B19F08FEFDC
:101A80009FEF02C08D2F9C2FDF91CF911F910F915F
:101A90000895ACE0B0E0EFE4FDE00C941C107C0194
:101AA0006B018A01FC0117821682838181FFBDC10F
:101AB000CE0101964C01F7019381F60193FD8591CA
:101AC00093FF81916F01882309F4ABC1853239F40A
:101AD00093FD859193FF81916F01853229F4B701C0
:101AE00090E00E94540FE7CF512C312C20E020329F
:101AF000A0F48B3269F030F4803259F0833269F40B
:101B000020612CC08D3239F0803339F4216026C039
:101B10002260246023C0286021C027FD27C030ED4B
:101B2000380F3A3078F426FF06C0FAE05F9E300D99
:101B30001124532E13C08AE0389E300D1124332E09
:101B400020620CC08E3221F426FD6BC1206406C0D9
:101B50008C3611F4206802C0883641F4F60193FDFA
:101B6000859193FF81916F018111C1CF982F9F7D46
:101B70009554933028F40C5F1F4FFFE3F9830DC099
:101B8000833631F0833771F0833509F05BC022C0B2
:101B9000F801808189830E5F1F4F44244394512CA8
:101BA000540115C03801F2E06F0E711CF801A080DD
:101BB000B18026FF03C0652D70E002C06FEF7FEF9C
:101BC000C5012C870E94490F2C0183012C852F779A
:101BD000222E17C03801F2E06F0E711CF801A080B0
:101BE000B18026FF03C0652D70E002C06FEF7FEF6C
:101BF000C5012C870E94370F2C012C852068222ECE
:101C0000830123FC1BC0832D90E048165906B0F4D5
:101C1000B70180E290E00E94540F3A94F4CFF501AE
:101C200027FC859127FE81915F01B70190E00E941A
:101C3000540F31103A94F1E04F1A510841145104F5
:101C400071F7E5C0843611F0893639F5F80127FFC0
:101C500007C060817181828193810C5F1F4F08C032
:101C600060817181072E000C880B990B0E5F1F4F4E
:101C70002F76722E97FF09C090958095709561958B
:101C80007F4F8F4F9F4F2068722E2AE030E0A401D3
:101C90000E948C0FA82EA81844C0853729F42F7EE7
:101CA000B22E2AE030E025C0F22FF97FBF2E8F360A
:101CB000C1F018F4883579F0B4C0803719F088374E
:101CC00021F0AFC02F2F2061B22EB4FE0DC08B2D9E
:101CD0008460B82E09C024FF0AC09F2F9660B92ED9
:101CE00006C028E030E005C020E130E002C020E17D
:101CF00032E0F801B7FE07C0608171818281938173
:101D00000C5F1F4F06C06081718180E090E00E5F24
:101D10001F4FA4010E948C0FA82EA818FB2DFF773F
:101D20007F2E76FE0BC0372D3E7FA51450F474FE37
:101D30000AC072FC08C0372D3E7E05C0BA2C372D74
:101D400003C0BA2C01C0B52C34FF0DC0FE01EA0D52
:101D5000F11D8081803311F4397E09C032FF06C045
:101D6000B394B39404C0832F867809F0B39433FD01
:101D700013C030FF06C05A2CB31418F4530C5B1870
:101D8000B32CB31468F4B70180E290E03C870E9462
:101D9000540FB3943C85F5CFB31410F43B1801C035
:101DA000312C34FF12C0B70180E390E03C870E94E1
:101DB000540F3C8532FF17C031FD03C088E790E027
:101DC00002C088E590E0B7010CC0832F867859F0F7
:101DD00031FF02C08BE201C080E237FD8DE2B70126
:101DE00090E00E94540FA51438F4B70180E390E00E
:101DF0000E94540F5A94F7CFAA94F401EA0DF11DF2
:101E00008081B70190E00E94540FA110F5CF3320DC
:101E100009F451CEB70180E290E00E94540F3A9449
:101E2000F6CFF7018681978102C08FEF9FEF2C9646
:101E3000E2E10C9438100F931F93CF93DF93869FAA
:101E40008001879F100D969F100D1124C8010E94DC
:101E50002F0BEC01009729F0A80160E070E00E94D0
:101E6000420FCE01DF91CF911F910F910895FC0198
:101E70000590615070400110D8F7809590958E0FB5
:101E80009F1F0895DC0101C06D9341505040E0F761
:101E90000895FC016150704001900110D8F78095C1
:101EA00090958E0F9F1F08950F931F93CF93DF93ED
:101EB000FB01238121FD03C08FEF9FEF28C022FF8C
:101EC00016C046815781248135814217530744F457
:101ED000A081B1819D012F5F3F4F318320838C937F
:101EE000268137812F5F3F4F3783268310C0EB0158
:101EF000092F182F0084F185E02D0995892BE1F633
:101F00008E819F8101969F838E83812F902FDF91F9
:101F1000CF911F910F910895FA01AA27283051F10E
:101F2000203181F1E8946F936E7F6E5F7F4F8F4F0A
:101F30009F4FAF4FB1E03ED0B4E03CD0670F781F69
:101F4000891F9A1FA11D680F791F8A1F911DA11D4E
:101F50006A0F711D811D911DA11D20D009F4689487
:101F60003F912AE0269F11243019305D3193DEF62F
:101F7000CF010895462F4770405D4193B3E00FD0E5
:101F8000C9F7F6CF462F4F70405D4A3318F0495DD0
:101F900031FD4052419302D0A9F7EACFB4E0A695B3
:101FA0009795879577956795BA95C9F700976105D5
:101FB000710508959B01AC010A2E0694579547952B
:101FC00037952795BA95C9F7620F731F841F951F20
:101FD000A01D0895052E97FB1EF400940E94011089
:101FE00057FD07D00E94531007FC03D04EF40C9409
:101FF000011050954095309521953F4F4F4F5F4FC1
:10200000089590958095709561957F4F8F4F9F4F64
:1020100008950E947510A59F900DB49F900DA49FE8
:10202000800D911D11240895B7FF0C9409100E9492
:102030000910821B930B08952F923F924F925F924B
:102040006F927F928F929F92AF92BF92CF92DF92C8
:10205000EF92FF920F931F93CF93DF93CDB7DEB72D
:10206000CA1BDB0B0FB6F894DEBF0FBECDBF0994C1
:102070002A88398848885F846E847D848C849B8418
:10208000AA84B984C884DF80EE80FD800C811B8126
:10209000AA81B981CE0FD11D0FB6F894DEBF0FBE55
:1020A000CDBFED010895A1E21A2EAA1BBB1BFD01B5
:1020B0000DC0AA1FBB1FEE1FFF1FA217B307E40727
:1020C000F50720F0A21BB30BE40BF50B661F771F7F
:1020D000881F991F1A9469F760957095809590955F
:1020E0009B01AC01BD01CF010895A29FB001B39F38
:1020F000C001A39F700D811D1124911DB29F700D11
:0C210000811D1124911D0895F894FFCF5B
:10210C000012001000003E03200001000000537478
:10211C00617274696E67205352414D2074657374FB
:10212C002E2E2E00577269746520706861736520BD
:10213C006572726F723A206578745F72616D5B259F
:10214C0034645D203D2025303258202873686F752B
:10215C006C642062652025303258290A0D005265C6
:10216C007472696576616C20706861736520657244
:10217C00726F723A206578745F72616D5B2534649E
:10218C005D203D2025303258202873686F756C64B3
:10219C002062652025303258290A0D005352414DDA
:1021AC00207465737420636F6D706C657465642046
:1021BC0077697468200A253464206572726F7273B3
:1021CC0020696E2077726974652070686173652070
:1021DC00616E64200A253464206572726F727320FC
:1021EC00696E2072657472696576616C20706861C5
:1021FC0073650A0A0D003C2D0057454C434F4D4565
:10220C000053455454494E475300504C4159006DAE
:10221C0061696E206D656E750053455454494E4787
:10222C0053204D454E55004252494748544E455354
:10223C00532048494748004252494748544E455359
:10224C0053204C4F570073657474696E677300703C
:10225C006C6179696E672067616D6500706C61797E
:10226C00696E672E2E2E0068696768206272696736
:10227C0068746E657373006C65667420746F20727D
:10228C00657475726E006C6F772062726967687422
:10229C006E657373004D55534943204D454E5500A3
:1022AC004F4E004F4646006D757369630048454CB0
:1022BC004C4F2054484552450054524156454C4CC5
:1022CC0045520057454C434F4D4520544F204F55D8
:1022DC0052004152434144452047414D4521007035
:1022EC0061757365007072657373207269676874C9
:1022FC0000627574746F6E00746F20636F6E746916
:10230C006E756500746F6F206C6F6E67206D6573F2
:10231C00736167652E204D7367206C656E677468FA
:10232C003A25640A0D00696E746572757074796F64
:04233C00212100005B
:00000001FF
