:100000000C9460030C9476040C947D030C947D0393
:100010000C947D030C947D030C947D030C947D0360
:100020000C947D030C947D030C947D030C947D0350
:100030000C947D030C947D030C947D030C947D0340
:100040000C94290D0C947D030C947D030C947D037A
:100050000C947D030C947D030C947D030C947D0320
:100060000C947D030C947D030C947D030C947D0310
:1000700000000000005C00000C000C007C287C28C4
:1000800058DC68002410480028542840000C000068
:10009000007884008478000054385400107C1000EC
:1000A00080400000101010000040000060100C00A4
:1000B00038543800487C40004864580044542C00B0
:1000C0001C107C005C5424003854240064140C0080
:1000D00068542C0048543800004800008048000054
:1000E0001028440028282800442810000454080040
:1000F00038445C00781478007C5428003844280088
:100100007C4438007C5444007C140400384474005F
:100110007C107C00447C440020403C007C106C003F
:100120007C4040007C187C0078103C00384438004B
:100130007C1408003844B8007C146800485424003B
:10014000047C04007C407C003C603C007C307C00F3
:100150006C106C000C700C0064544C00007C44006B
:100160000C106000447C00000804080080808000BF
:1001700000040800304878007C48300030484800CF
:1001800030487C00306850001078140090A8780047
:100190007C08700050744000808074007C106800FF
:1001A000447C4000781078007808700030483000B7
:1001B000F82810003048F80078100800505828003F
:1001C000083C4800384078003840380078207800F3
:1001D0004830480098A0780048685800107884009B
:1001E000007C00008478100008040804000000006F
:1001F0000000005F00000007000700147F147F1458
:10020000242A7F2A1223130864623649552250009B
:1002100005030000001C2241000041221C00082AA6
:100220001C2A0808083E080800503000000808088A
:100230000808006060000020100804023E51494593
:100240003E00427F400042615149462141454B31C9
:100250001814127F1027454545393C4A4949300159
:10026000710905033649494936064949291E0036B0
:100270003600000056360000000814224114141401
:10028000141441221408000201510906324979412F
:100290003E7E1111117E7F494949363E414141223E
:1002A0007F4141221C7F494949417F090901013EA3
:1002B000414151327F0808087F00417F41002040C2
:1002C000413F017F081422417F404040407F0204AB
:1002D000027F7F0408107F3E4141413E7F090909AA
:1002E000063E4151215E7F09192946464949493157
:1002F00001017F01013F4040403F1F2040201F7F00
:100300002018207F631408146303047804036151E8
:1003100049454300007F4141020408102041417FCC
:100320000000040201020440404040400001020479
:100330000020545454787F4844443838444444207E
:10034000384444487F3854545418087E0901020840
:100350001454543C7F0804047800447D400020403D
:10036000443D00007F10284400417F40007C041879
:1003700004787C0804047838444444387C14141409
:1003800008081414187C7C080404084854545420A9
:10039000043F4440203C4040207C1C2040201C3C2A
:1003A0004030403C44281028440C5050503C446499
:1003B000544C44000836410000007F0000004136E4
:1003C000080002010302010000000000000000001C
:1003D000065F5F0600000008387CFE6C0000000C21
:1003E000204C4020260C18242E6B6B3A120000463D
:1003F0006630180C666200307A4F5D377A48000428
:1004000007030000000000001C3E634100000000E4
:1004100041633E1C000000082A3E1C1C3E2A0808BE
:10042000083E3E0808000000A0E060000000000850
:100430000808080808000000006060000000006074
:1004400030180C060301003E7F594D7F3E000042EC
:10045000427F7F40400000627359496F660000226E
:100460006349497F360000181C16137F7F10002750
:100470006745457D3900003C7E4B497930000003DB
:100480006371190F070000367F49497F3600000667
:100490004F49693F1E000000006C6C000000000026
:1004A000A0EC6C00000000081C3663410000001442
:1004B00014141414140000004163361C08000002D8
:1004C0000351590F0600003E7F415D5D1F1E007CF9
:1004D0007E13137E7C0000417F7F49497F36001CDC
:1004E0003E634141632200417F7F41637F1C0041A5
:1004F0007F7F495D416300417F7F491D0103001CEF
:100500003E6341517372007F7F08087F7F000000C7
:10051000417F7F41000000307040417F3F0100413A
:100520007F7F081C776300417F7F41406070007FC0
:100530007F060C067F7F007F7F060C187F7F001CE4
:100540003E6341633E1C00417F7F49090F06001E48
:100550003F21717F5E0000417F7F19396F46002681
:10056000674D597B32000003417F7F410300007FCC
:100570007F40407F7F00001F3F60603F1F00007F83
:100580007F3018307F7F0063771C081C776300077B
:100590004F78784F0700006773594D47637100002B
:1005A0007F7F41410000000103060C18306000000D
:1005B00041417F7F000000080C0603060C08008004
:1005C000808080808080800000030704000000207D
:1005D0007454543C784000413F7F44447C38003898
:1005E0007C44446C280000307848493F7F40003804
:1005F0007C54545C180000487E7F49030200009838
:10060000BCA4A4F87C0400417F7F08047C7800002F
:10061000447D7D4000000040C484FD7D0000004119
:100620007F7F10386C440000417F7F400000007CD9
:100630007C0C180C7C78007C7C04047C78000038EE
:100640007C44447C38000084FCF8A4243C18001846
:100650003C24A4F8FC8400447C78441C1800004826
:100660005C54547424000000043E7F442400003C89
:100670007C40403C7C40001C3C60603C1C00003CDA
:100680007C6030607C3C00446C3810386C44009CCA
:10069000BCA0A0FC7C00004C64745C4C64000008AE
:1006A000083E7741410000000000777700000041DC
:1006B00041773E0808000002030103020301000025
:1006C00011241FBECFEFD4E0DEBFCDBF13E0A0E00A
:1006D000B1E0ECE6F5E202C005900D92A836B10754
:1006E000D9F723E0A8E6B3E001C01D92A838B2070D
:1006F000E1F70E947F030C94B4120C940000CF9396
:10070000DF93CDB7DEB762970FB6F894DEBF0FBEAA
:10071000CDBFF8941FEF1ABB17BB0E94770516B91F
:100720008FE190E00E94D40411BA12BB80E885BF2B
:1007300080E280BF0E94600A0E94C30A0E94B30C3C
:100740000E94220D81E089830E94E5050E947306C4
:100750000E94DC0C0E948C092FEF8FEF9AE421504D
:1007600080409040E1F700C000000E9473060E94A4
:10077000CF084C0185E08A8378941092730310921D
:1007800072036894AA24A1F8B12C0F2EF6E1CF2EA3
:10079000F1E0DF2EF02D66246394712C80917203BA
:1007A000909173038130910509F482C008F466C00A
:1007B00082309105B9F7DF92CF920E94740FCE017B
:1007C00001960E94F50BCE010B967C0109811A81DE
:1007D0002B813C814D815E816F81788589859A85E9
:1007E0000E94300B80916A0390916B030F900F90E1
:1007F000892B79F00E94ED099FEF2FEF8DE1915049
:1008000020408040E1F700C0000010927303109276
:10081000720380916E0390916F030A977CF00E949F
:10082000DA099FEF2FEF8DE1915020408040E1F7F2
:1008300000C000001092730310927203809168034D
:1008400090916903892B61F080916E0390916F0301
:100850000E947E080E946808109269031092680343
:100860000E94BB05892B09F499CF709273036092A3
:100870007203109269031092680390CF10926F0375
:1008800010926E0310926B0310926A0380916E03B4
:1008900090916F030E947E08C4010E94FF080E948D
:1008A00073060E946808B0927303A092720376CF19
:1008B0000E94AF090E94B705892B51F00E94680879
:1008C000B0927303A09272031092690310926803AE
:1008D0000E946607019609F061CF1092730310928F
:1008E0007203109269031092680358CF1F920F92FF
:1008F0000FB60F9211242F933F934F935F936F93F3
:100900007F938F939F93AF93BF93EF93FF93CF9377
:10091000DF93CDB7DEB72A97DEBFCDBF64E773E0C4
:10092000CE0101960E94A50B80916E0390916F03FA
:10093000E4E7F3E02281820F911D90936F0380938F
:100940006E03838190E090936B0380936A038091A0
:10095000720390917303019731F081E090E09093DE
:100960006903809368032A960FB6F894DEBF0FBE22
:10097000CDBFDF91CF91FF91EF91BF91AF919F914B
:100980008F917F916F915F914F913F912F910F9038
:100990000FBE0F901F9018955F9BFECF8CB10895EE
:1009A0005D9BFECF8CB9089590BD89B988E18AB965
:1009B0008EE880BD6CEC74E080ED94E00E94290F1D
:1009C000089580E885BF85BF80E280BF0895CF92FB
:1009D000DF92EF92FF920F931F93CF93DF938EE1FD
:1009E00091E00E948A0F80E090E00E941E0FC0E01C
:1009F000D0E000E010E00F2EF4E3EF2EF1E0FF2E48
:100A0000F02D0E94190FFE01F85E808320812817C7
:100A1000A9F099279F938F931F922F93DF93CF93E2
:100A2000FF92EF920E94740F0F5F1F4F8DB79EB71A
:100A300008960FB6F8949EBF0FBE8DBF2196C115C4
:100A400098E0D907F1F680E090E00E941E0FC0E028
:100A5000D0E0E12CF12C0F2EFEE6CF2EF1E0DF2EC0
:100A6000F02D0E94190FFE01F85E20812817B1F0C9
:100A700099279F938F931F922F93DF93CF93DF92AA
:100A8000CF920E94740F8FEFE81AF80A8DB79EB7C5
:100A900008960FB6F8949EBF0FBE8DBF2196C11564
:100AA00098E0D907F1F6FF92EF921F930F938CEA2B
:100AB00091E09F938F930E94740F0F900F900F906F
:100AC0000F900F900F90DF91CF911F910F91FF909A
:100AD000EF90DF90CF900895FC01F85E6083089559
:100AE000FC01F85E8081082E000C990B0895B898DF
:100AF0000895CF93DF931F92CDB7DEB7E0E0F4E126
:100B000084E0808387E99AE30197F1F700C0000051
:100B100080818983898190E00F90DF91CF91089542
:100B2000E0E0F4E185E0808387E99AE30197F1F75B
:100B300000C00000808190E00895E0E0F4E186E0EC
:100B4000808387E99AE30197F1F700C00000808174
:100B500090E00895E0E0F4E187E0808387E99AE39C
:100B60000197F1F700C00000808190E0089586B3FE
:100B7000817090E0089586B3887090E00895E091C8
:100B80000201F091030180830895E0910001F0914A
:100B9000010180830895082E000C990B8097880F1F
:100BA000991F880F991F880F991FFC01E953FC4F6B
:100BB00081539C4FA0910001B091010124912C938D
:100BC0003196E817F907B1F70895E0910201F09125
:100BD00003018EEA8083E0910201F091030181EA32
:100BE0008083E0910201F09103018AED8083E0911E
:100BF0000201F091030182E18083E0910201F09112
:100C0000030188EC8083E0910201F091030188EAFE
:100C10008083E0910201F09103018FE38083E091F2
:100C20000201F091030185ED8083E0910201F091D2
:100C3000030180E88083E0910201F091030189EDD6
:100C40008083E0910201F091030181E28083E091D1
:100C50000201F091030190E29083E0910201F09192
:100C6000030182E08083E0910201F09103012BED0A
:100C70002083E0910201F091030120E32083E091C1
:100C80000201F09103012DEA2083E0910201F0912D
:100C900003011082E0910201F091030124EA208314
:100CA000E0910201F091030126EA2083E091020124
:100CB000F09103012FEA2083E0910201F0910301FA
:100CC0009083E0910201F091030180830895E09107
:100CD0000201F091030191E89083E0910201F0910B
:100CE000030180830895E0910201F091030180EBFC
:100CF0008083E0910201F091030181E28083E09121
:100D00000201F09103011082E0910201F0910301D0
:100D10008FE78083E0910201F091030182E28083FA
:100D2000E0910201F09103011082E0910201F09143
:100D3000030187E0808320EB40E830E00FC0E091C2
:100D40000001F091010110820197C9F7E0910201C1
:100D5000F091030120832F5F293B19F0842F932FFB
:100D6000EECFE0910201F091030180EB80830895C2
:100D7000E0910201F091030192E29083E09102017F
:100D8000F09103011082E0910201F091030197E0DC
:100D900090838155E0910201F09103018083E091FD
:100DA0000201F091030181E28083E0910201F09160
:100DB00003011082E0910201F09103018FE780832B
:100DC0000895E0910201F09103019C012F703078A9
:100DD000332334F421503109206F3F6F2F5F3F4F91
:100DE00020839C01992314F4215F3F4F359527956B
:100DF000359527953595279535952795205FE09171
:100E00000201F091030120830895CF93DF93EB015A
:100E10000E94B806CE010E94E106DF91CF910895AD
:100E2000E0910201F091030182E28083E0910201EE
:100E3000F09103011082E0910201F091030187E03B
:100E4000808320EB71E260E75FE74FE030E0E09104
:100E50000201F09103017083E0910201F09103011E
:100E60006083E0910201F09103015083E09102015F
:100E7000F09103012083842F932FE0910001F091E2
:100E8000010110820197C9F72F5F283B01F70895F0
:100E90000E949005C3974CF48FE493EC0197F1F70F
:100EA00000C0000081E090E008950E9490058D3C14
:100EB00091054CF08FE493EC0197F1F700C000002E
:100EC0008FEF9FEF089580E090E008950E947905EC
:100ED0008D3C91054CF08FE493EC0197F1F700C045
:100EE000000081E090E008950E947905C3974CF4DA
:100EF0008FE493EC0197F1F700C000008FEF9FEFB4
:100F0000089580E090E008950F931F93CF93DF93AF
:100F1000FC0101900020E9F73197E81BF90B1E1640
:100F20001F0654F4EC018C010E0F1F1F89910E94C3
:100F3000CB05C017D107D1F7DF91CF911F910F914A
:100F40000895CF93DF93C82FD92F0E941007E09107
:100F50000201F091030182E28083E0910201F091AD
:100F600003011082E0910201F091030187E0808388
:100F70008FEA8C0FE0910201F09103018083E091F0
:100F80000201F091030181E28083E0910201F0917E
:100F9000030180E78083E0910201F09103018FE774
:100FA000808386E092E00E9484078C2F9D2F0E9410
:100FB000B806DF91CF9108958FEF90E00E94670609
:100FC00008958FE090E00E946706089585E090E024
:100FD0000E94670608950E94730681E090E00E94D7
:100FE000B80689E092E00E94840783E090E00E94C6
:100FF000B80681E192E00E94840784E090E00E94BC
:10100000B8068AE192E00E94840785E090E00E94A1
:10101000B8068FE192E00E94840708950E9473064B
:1010200081E090E00E94B8068CE292E00E94840782
:1010300083E090E00E94B8068AE392E00E94840771
:1010400084E090E00E94B8068AE492E00E9484075F
:1010500008950E9473060E94DC0789E592E00E94D1
:10106000840783E090E00E94B80689E692E00E943F
:10107000840708950E9473060E94E60788E792E0BD
:101080000E94840783E090E00E94B80689E692E01F
:101090000E94840708950E940A0C0E94730681E052
:1010A00090E00E94B80687E892E00E94840782E000
:1010B00090E00E94B8068FE892E00E94840783E0E7
:1010C00090E00E94B80689E992E00E9484070895A2
:1010D0000E94730683EA92E00E94840783E090E016
:1010E0000E94B80680917003805D0E94CB0581EB61
:1010F00092E00E9484070895805D089590937103A3
:1011000080937003089586E190E00E94A00DFC0199
:10111000138212822BEE37E031832083158A148AE2
:1011200034969C012C5E3F4F11921192E217F30707
:10113000D9F70895EF92FF920F931F93CF93DF9308
:10114000EC017B018A0186E190E00E94A00DFC0188
:10115000F182E082D383C283158B048B2A853B8581
:10116000232B59F0DE011C9623E030E02F5F3F4F28
:101170004D915D91452BD1F702C023E030E02E5F09
:101180003F4F220F331FFE01E20FF31F9183808335
:10119000DF91CF911F910F91FF90EF9008950F93E2
:1011A0001F93CF93DF930E948308EC0140E050E04F
:1011B0006EE078E00E949A088C0141E050E068E619
:1011C00078E0CE010E949A0840E050E06BE478E0BD
:1011D000CE010E949A0840E050E069E278E0C80140
:1011E0000E949A0840E050E06AE378E0C8010E945B
:1011F0009A08CE01DF91CF911F910F910895CF9260
:10120000DF92EF92FF920F931F93CF93DF937C01B6
:10121000DC01ED91FC910995C3E0D0E00F2EF3E0E5
:10122000CF2EF02DD12C4CC0CE010E94A1078E01F3
:101230000F5F1F4FFE013396EE0FFF1FEE0DFF1DD8
:1012400080819181892B29F00E944807019709F438
:10125000E8018E0101501109FE013196EE0FFF1FCA
:10126000EE0DFF1D80819181892B29F00E94480796
:10127000019609F4E8010E946607019781F4FE01D6
:101280003296EE0FFF1FEE0DFF1D0081118101153B
:10129000110529F0D801ED91FC91099578010E9482
:1012A0006607019669F4F7010281138101151105A2
:1012B00039F0D801ED91FC9109957801CC2DDD2D07
:1012C000D70154968D919C915597019709F0ACCF19
:1012D000DF91CF911F910F91FF90EF90DF90CF9012
:1012E00008950E94730681E090E00E94B8068FEB9B
:1012F00092E00E94840783E090E00E94B8068AECA6
:1013000092E00E94840784E090E00E94B8068DEC91
:1013100092E00E94840708950E94730682E090E0A4
:101320000E94B80681ED92E00E94840783E090E07D
:101330000E94B8068DED92E00E94840785E090E05F
:101340000E94B80687EE92E00E94840786E090E053
:101350000E94B80686EF92E00E94840708950E94DA
:10136000BB05892B31F10E94730685E093E00E9452
:10137000840782E090E00E94B8068BE093E00E9430
:10138000840783E090E00E94B8068BE193E00E941E
:10139000840784E090E00E94B80684E293E00E9413
:1013A000840785E090E00E94B80689E992E00E94F7
:1013B000840708950E94730681E090E00E94B806B9
:1013C00083E393E00E94840782E090E00E94B806E5
:1013D00083E493E00E94840708950E94730681E0ED
:1013E00090E00E94B8068FE493E00E94840782E0B8
:1013F00090E00E94B8068BE593E00E948407089570
:101400008FB9779BFECF08958FEF8FB9779BFECF73
:101410008FB190E00895009719F0019719F00895A1
:10142000C4980895C49A089580EB87BBBE9881E55F
:101430008DB981E090E00E940B0A0895CF93DF936D
:10144000C82F80E090E00E940B0A83E00E94000A0F
:101450008C2F0E94000A0E94040AEC0181E090E0B7
:101460000E940B0ACE01DF91CF910895CF93DF93B5
:10147000D82FC62F80E090E00E940B0A82E00E94E5
:10148000000A8D2F0E94000A8C2F0E94000A81E022
:1014900090E00E940B0ADF91CF91089580E090E0E8
:1014A0000E940B0A80EC0E94000A81E090E00E94FA
:1014B0000B0A83EC99E00197F1F700C00000089552
:1014C0000E94140A0E944E0A8EE090E00E941E0ABA
:1014D000089580E090E00E940B0A80EA0E94000AD2
:1014E00081E090E00E940B0A80EA90E0089581E09C
:1014F00090E00895CF93DF93EC0180E090E00E94AC
:101500000B0ACE0163E070E00E94370D009739F0BE
:101510008130910531F0029731F484E805C081E80B
:1015200003C082E801C081E80E94000A81E090E0E7
:101530000E940B0ADF91CF9108951F93CF93DF9301
:10154000182FD62FC42F80E090E00E940B0A85E070
:101550000E94000A812F0E94000A8D2F0E94000A1B
:101560008C2F0E94000A81E090E00E940B0ADF911C
:10157000CF911F910895AC0160EE70E08FE090E094
:101580000E949D0A089580E090E00E940B0A43E0CB
:1015900050E063E070E08BE290E00E949D0A40E042
:1015A00050E063E070E08CE290E00E949D0A8BB70F
:1015B00080648BBF85B7826085BF85B78E7F85BF0E
:1015C0008A9880E090E00E94BB0A81E090E00E944F
:1015D0000B0A78940895EF92FF920F931F93CF9385
:1015E000DF937C01FC01608166956695669570E0ED
:1015F00081E390E00E94360AF7016081F0E26F9F7C
:10160000B001112482E390E00E94360AF701618163
:1016100070E085E390E00E94360AF701818188231B
:10162000A1F087010E5F1F4FC0E0D0E0F80161918B
:101630008F0170E0CE01C6960E94360A2196F7010E
:10164000218130E0C217D3078CF380E090E00E9444
:101650007A0ADF91CF911F910F91FF90EF9008953B
:10166000EF92FF920F931F93CF93DF93CDB7DEB727
:101670002A970FB6F894DEBF0FBECDBF09831A8339
:101680002B833C834D835E836F83788789879A871A
:10169000822F90E0F7012081821B91099C0122F4A6
:1016A00022273327281B390B243031056CF58C8118
:1016B00090E0F7012181821B91099C0122F42227ED
:1016C0003327281B390B24303105F4F48E8190E048
:1016D000F7012381821B91099C0122F422273327E1
:1016E000281B390B243031057CF48F8190E0F70101
:1016F0002481821B91099C0122F422273327281B75
:10170000390B121613065CF4CE0101960E94EB0A07
:1017100006C081918D93E217F307D9F707C0FE0148
:101720003396D7019E01255F3F4FF3CF80E090E0D5
:101730002A960FB6F894DEBF0FBECDBFDF91CF91D2
:101740001F910F91FF90EF900895CF92DF92EF924B
:10175000FF920F931F93CF93DF936C017B0181E680
:1017600090E00E941E0AC82F82E690E00E941E0AA6
:1017700096958795929582958F7089279F70892776
:10178000282F38E0C39F200D1124F701208385E620
:1017900090E00E941E0AF70181838823A1F087014F
:1017A0000E5F1F4FC0E0D0E0CE018A599F4F0E94CC
:1017B0001E0AF80181938F012196F701218130E003
:1017C000C217D3078CF340E050E063E070E08CE296
:1017D00090E00E949D0AC601DF91CF911F910F9169
:1017E000FF90EF90DF90CF900895CF93DF93EC01BF
:1017F0000E9479058A830E9490058B830E949D0533
:101800008C830E94AA058D830E94B7058E83DF9189
:10181000CF9108953F924F925F926F927F928F92F5
:101820009F92AF92BF92CF92DF92EF92FF920F936F
:101830001F93CF93DF93CDB7DEB728970FB6F894F9
:10184000DEBF0FBECDBF0E947306E12CF12CA12C90
:10185000B12C412C312C0F2EF8E75F2EF02D612C8E
:101860000F2EF7E07F2EF02D812C6894992493F8A9
:101870006E0129E0C20ED11C59C00E946607880F74
:10188000991F880F991F880F991F8C010A0D1B1D26
:101890000E9448078E0D9F1D112314F4042D132D53
:1018A00058010937110514F0A52CB62C7C01992399
:1018B00014F4E42CF32CF8E0EF16F10414F0E72C08
:1018C000F82CEEE0F1E0DE011196892D01900D92E9
:1018D0008A95E1F7B501C7010E9405070E94B70587
:1018E000892B69F08E010F5F1F4FF80181918F01E5
:1018F00090E00E94C5050C151D05B9F711C00E94A6
:101900006607892B49F40E944807892B29F486E64B
:1019100093E00E94840704C08FEA92E00E9484074B
:1019200087EA91E60197F1F700C000000E94BB052D
:10193000892B09F4A2CF28960FB6F894DEBF0FBE0C
:10194000CDBFDF91CF911F910F91FF90EF90DF906E
:10195000CF90BF90AF909F908F907F906F905F904F
:101960004F903F9008958D9A8FB580648FBD8FB54D
:1019700083608FBD8EB588618EBD8EB582608EBD51
:101980000895880F991F880F991F880F991F9C0130
:10199000990F440B550B60E070E08BE490E00E94DF
:1019A0004B0D3BBD2ABD08958EB58D7F8EBD08952C
:1019B0008EB582608EBD0895CF93DF93C0E0D8E0EE
:1019C000DBBDCABD2FEB87E299E0215080409040FB
:1019D000E1F700C000000E94D40C2FE986E891E0F6
:1019E000215080409040E1F700C000000E94D80CD8
:1019F000DBBDCABD2FEB87E299E0215080409040CB
:101A0000E1F700C000000E94D40C2FE38DE093E0CA
:101A1000215080409040E1F700C000000E94D80CA7
:101A200086E692E09BBD8ABD2FEB87E299E02150CC
:101A300080409040E1F700C000000E94D40CDF918C
:101A4000CF9108958DE083BF80E581BF81E089BF9C
:101A500008951F920F920FB60F9211248F9380E575
:101A600081BF8F910F900FBE0F901F90189597FB1D
:101A7000072E16F4009407D077FD09D00E946A0D56
:101A800007FC05D03EF4909581959F4F0895709581
:101A900061957F4F0895052E97FB1EF400940E94D8
:101AA000620D57FD07D00E947E0D07FC03D04EF457
:101AB0000C94620D50954095309521953F4F4F4FB6
:101AC0005F4F089590958095709561957F4F8F4FEA
:101AD0009F4F0895AA1BBB1B51E107C0AA1FBB1F44
:101AE000A617B70710F0A61BB70B881F991F5A95AA
:101AF000A9F780959095BC01CD010895A1E21A2E19
:101B0000AA1BBB1BFD010DC0AA1FBB1FEE1FFF1FA1
:101B1000A217B307E407F50720F0A21BB30BE40BF1
:101B2000F50B661F771F881F991F1A9469F7609538
:101B30007095809590959B01AC01BD01CF010895F2
:101B4000CF93DF938230910510F482E090E0E09132
:101B50008003F091810320E030E0C0E0D0E03097D6
:101B600011F14081518148175907C0F048175907B2
:101B700061F482819381209719F09B838A832BC023
:101B8000909381038093800326C02115310519F0BD
:101B90004217530718F49A01BE01DF01EF010280DA
:101BA000F381E02DDCCF2115310509F1281B390B1C
:101BB0002430310590F412968D919C911397611504
:101BC000710521F0FB019383828304C0909381030C
:101BD00080938003FD01329644C0FD01E20FF31FA4
:101BE00081939193225031092D933C933AC02091D7
:101BF0007E0330917F03232B41F420910601309125
:101C0000070130937F0320937E03209104013091DC
:101C100005012115310541F42DB73EB7409108016A
:101C200050910901241B350BE0917E03F0917F0355
:101C3000E217F307A0F42E1B3F0B2817390778F0A3
:101C4000AC014E5F5F4F2417350748F04E0F5F1F02
:101C500050937F0340937E038193919302C0E0E011
:101C6000F0E0CF01DF91CF9108950F931F93CF93B1
:101C7000DF93009709F48CC0FC0132971382128223
:101C800000918003109181030115110581F42081D9
:101C90003181820F931F20917E0330917F0328179B
:101CA000390779F5F0937F03E0937E0371C0D80183
:101CB00040E050E0AE17BF0750F412962D913C91D2
:101CC0001397AD012115310509F1D901F3CF9D011C
:101CD000DA013383228360817181860F971F821717
:101CE000930769F4EC0128813981260F371F2E5F95
:101CF0003F4F318320838A819B8193838283452B4D
:101D000029F4F0938103E093800342C01396FC937F
:101D1000EE931297ED01499159919E01240F351FC1
:101D2000E217F30771F480819181840F951F029669
:101D300011969C938E938281938113969C938E939C
:101D40001297E0E0F0E0D80112968D919C911397E4
:101D5000009719F0F8018C01F6CF8D919C919801B4
:101D60002E5F3F4F820F931F20917E0330917F03A0
:101D70002817390769F4309729F4109281031092DB
:101D8000800302C01382128210937F0300937E03AC
:101D9000DF91CF911F910F9108958F929F92AF92F3
:101DA000BF92CF92DF92EF92FF92CF93DF93EC013D
:101DB000688179818A819B81611571058105910511
:101DC00021F464E279ED8BE597E02DE133EF41E01A
:101DD00050E00E944B0D49015A019B01AC01A7EA5A
:101DE000B1E40E945B126B017C01ACEEB4EFA50183
:101DF00094010E946912DC01CB018C0D9D1DAE1D6A
:101E0000BF1DB7FF03C00197A109B048888399831C
:101E1000AA83BB839F77DF91CF91FF90EF90DF90F4
:101E2000CF90BF90AF909F908F9008950E94CD0E5D
:101E300008958AE091E00E94CD0E0895A0E0B0E000
:101E400080930A0190930B01A0930C01B0930D01B4
:101E500008950F931F93CF93DF93009731F461158B
:101E6000710519F480E090E03AC08B01EC016EE05E
:101E700070E081E090E00E948C11FC01892B91F3CD
:101E800080E883830115110571F01387028781E8CB
:101E900083838091820390918303892B21F4F093B3
:101EA0008303E09382032097C9F0D187C0878381A1
:101EB000826083838091840390918503892B71F4E0
:101EC000F0938503E09384038091860390918703C8
:101ED000892B21F4F0938703E0938603CF01DF91F0
:101EE000CF911F910F910895A0E0B0E0EAE7FFE0E5
:101EF0000C947E12AE014B5F5F4FFA0161917191BC
:101F0000AF0180918403909185030E94BA0FE2E0B3
:101F10000C949A120F931F93CF93DF93E091840355
:101F2000F0918503238121FF1BC08C01D0E0C0E02C
:101F3000F80181918F016091840370918503DB0129
:101F40001896ED91FC911997882331F00995892B0A
:101F500079F3DFEFCFEFECCF8AE00995892B19F009
:101F60008FEF9FEF02C08D2F9C2FDF91CF911F919C
:101F70000F910895ACE0B0E0E0ECFFE00C946E123D
:101F80007C016B018A01FC0117821682838181FF2B
:101F9000BDC1CE0101964C01F7019381F60193FD7D
:101FA000859193FF81916F01882309F4ABC185323C
:101FB00039F493FD859193FF81916F01853229F466
:101FC000B70190E00E94C511E7CF512C312C20E0E1
:101FD0002032A0F48B3269F030F4803259F0833231
:101FE00069F420612CC08D3239F0803339F42160DE
:101FF00026C02260246023C0286021C027FD27C09E
:1020000030ED380F3A3078F426FF06C0FAE05F9ED4
:10201000300D1124532E13C08AE0389E300D112448
:10202000332E20620CC08E3221F426FD6BC1206459
:1020300006C08C3611F4206802C0883641F4F601DF
:1020400093FD859193FF81916F018111C1CF982FED
:102050009F7D9554933028F40C5F1F4FFFE3F98365
:102060000DC0833631F0833771F0833509F05BC0E2
:1020700022C0F801808189830E5F1F4F442443945E
:10208000512C540115C03801F2E06F0E711CF8019B
:10209000A080B18026FF03C0652D70E002C06FEF05
:1020A0007FEFC5012C870E94BA112C0183012C857A
:1020B0002F77222E17C03801F2E06F0E711CF80145
:1020C000A080B18026FF03C0652D70E002C06FEFD5
:1020D0007FEFC5012C870E94A8112C012C85206858
:1020E000222E830123FC1BC0832D90E04816590645
:1020F000B0F4B70180E290E00E94C5113A94F4CFA9
:10210000F50127FC859127FE81915F01B70190E0E1
:102110000E94C51131103A94F1E04F1A5108411450
:10212000510471F7E5C0843611F0893639F5F801AC
:1021300027FF07C060817181828193810C5F1F4FEF
:1021400008C060817181072E000C880B990B0E5F0F
:102150001F4F2F76722E97FF09C09095809570952E
:1021600061957F4F8F4F9F4F2068722E2AE030E09D
:10217000A4010E94FD11A82EA81844C0853729F497
:102180002F7EB22E2AE030E025C0F22FF97FBF2E3D
:102190008F36C1F018F4883579F0B4C0803719F063
:1021A000883721F0AFC02F2F2061B22EB4FE0DC0B2
:1021B0008B2D8460B82E09C024FF0AC09F2F966023
:1021C000B92E06C028E030E005C020E130E002C0B2
:1021D00020E132E0F801B7FE07C0608171818281A1
:1021E00093810C5F1F4F06C06081718180E090E099
:1021F0000E5F1F4FA4010E94FD11A82EA818FB2DF1
:10220000FF777F2E76FE0BC0372D3E7FA51450F44E
:1022100074FE0AC072FC08C0372D3E7E05C0BA2C81
:10222000372D03C0BA2C01C0B52C34FF0DC0FE0100
:10223000EA0DF11D8081803311F4397E09C032FF2F
:1022400006C0B394B39404C0832F867809F0B39486
:1022500033FD13C030FF06C05A2CB31418F4530CCE
:102260005B18B32CB31468F4B70180E290E03C87AC
:102270000E94C511B3943C85F5CFB31410F43B18FC
:1022800001C0312C34FF12C0B70180E390E03C87DD
:102290000E94C5113C8532FF17C031FD03C088E79D
:1022A00090E002C088E590E0B7010CC0832F8678EB
:1022B00059F031FF02C08BE201C080E237FD8DE2B0
:1022C000B70190E00E94C511A51438F4B70180E36E
:1022D00090E00E94C5115A94F7CFAA94F401EA0D38
:1022E000F11D8081B70190E00E94C511A110F5CFCA
:1022F000332009F451CEB70180E290E00E94C5116D
:102300003A94F6CFF7018681978102C08FEF9FEF55
:102310002C96E2E10C948A120F931F93CF93DF93D4
:10232000869F8001879F100D969F100D1124C80174
:102330000E94A00DEC01009729F0A80160E070E078
:102340000E94B311CE01DF91CF911F910F9108959B
:10235000FC010590615070400110D8F78095909570
:102360008E0F9F1F0895DC0101C06D9341505040B6
:10237000E0F70895FC016150704001900110D8F71A
:10238000809590958E0F9F1F08950F931F93CF9365
:10239000DF93FB01238121FD03C08FEF9FEF28C056
:1023A00022FF16C046815781248135814217530789
:1023B00044F4A081B1819D012F5F3F4F3183208381
:1023C0008C93268137812F5F3F4F3783268310C040
:1023D000EB01092F182F0084F185E02D0995892B39
:1023E000E1F68E819F8101969F838E83812F902FAE
:1023F000DF91CF911F910F910895FA01AA272830FC
:1024000051F1203181F1E8946F936E7F6E5F7F4FC1
:102410008F4F9F4FAF4FB1E03ED0B4E03CD0670F3D
:10242000781F891F9A1FA11D680F791F8A1F911D90
:10243000A11D6A0F711D811D911DA11D20D009F4E0
:1024400068943F912AE0269F11243019305D319322
:10245000DEF6CF010895462F4770405D4193B3E00B
:102460000FD0C9F7F6CF462F4F70405D4A3318F0B2
:10247000495D31FD4052419302D0A9F7EACFB4E063
:10248000A6959795879577956795BA95C9F700971B
:102490006105710508959B01AC010A2E06945795BC
:1024A000479537952795BA95C9F7620F731F841F13
:1024B000951FA01D08950E94A512A59F900DB49F81
:1024C000900DA49F800D911D11240895B7FF0C94C9
:1024D0005B120E945B12821B930B08952F923F9216
:1024E0004F925F926F927F928F929F92AF92BF9224
:1024F000CF92DF92EF92FF920F931F93CF93DF93D0
:10250000CDB7DEB7CA1BDB0B0FB6F894DEBF0FBE2C
:10251000CDBF09942A88398848885F846E847D8479
:102520008C849B84AA84B984C884DF80EE80FD807B
:102530000C811B81AA81B981CE0FD11D0FB6F894F1
:10254000DEBF0FBECDBFED010895A29FB001B39FC6
:10255000C001A39F700D811D1124911DB29F700DAC
:0C256000811D1124911D0895F894FFCFF7
:10256C000012001000008803200001000000FFFF93
:10257C00FFFFFFFFFFFF706C6179696E670053749A
:10258C00617274696E67205352414D207465737487
:10259C002E2E2E0057726974652070686173652049
:1025AC006572726F723A206578745F72616D5B252B
:1025BC0034645D203D2025303258202873686F75B7
:1025CC006C642062652025303258290A0D00526552
:1025DC007472696576616C207068617365206572D0
:1025EC00726F723A206578745F72616D5B2534642A
:1025FC005D203D2025303258202873686F756C643F
:10260C002062652025303258290A0D005352414D65
:10261C00207465737420636F6D706C6574656420D1
:10262C0077697468200A253464206572726F72733E
:10263C0020696E20777269746520706861736520FB
:10264C00616E64200A253464206572726F72732087
:10265C00696E2072657472696576616C2070686150
:10266C0073650A0A0D003C2D0057454C434F4D45F0
:10267C000053455454494E475300504C4159004463
:10268C00524157494E472047414D450053455454FC
:10269C00494E4753204D454E5500425249474854E8
:1026AC004E455353204849474800425249474854E5
:1026BC004E455353204C4F5700686967682062722F
:1026CC00696768746E657373006C65667420746FEB
:1026DC002072657475726E006C6F77206272696718
:1026EC0068746E657373006C65667420746F007229
:1026FC00657475726E20746F006D61696E206D6506
:10270C006E7500706C6179696E672067616D65200C
:10271C0000202F20313020706F696E747321004DB2
:10272C0055534943204D454E55004F4E004F46469C
:10273C000048454C4C4F205448455245005452419A
:10274C0056454C4C45520057454C434F4D45205433
:10275C004F204F5552004152434144452047414D73
:10276C004521202300706175736500726967687478
:10277C0020627574746F6E202D3E00636F6E7469E9
:10278C006E7565007363726F6C6C206C656674207B
:10279C002D3E00436F6E67726174696C6174696F72
:1027AC006E7300796F75206469642069742100422E
:1027BC006574746572206C75636B006E657874203B
:0827CC0074696D652E002A00FE
:00000001FF
