:100000000C9460030C94F10A0C947D030C947D0312
:100010000C947D030C947D030C947D030C947D0360
:100020000C947D030C947D030C947D030C947D0350
:100030000C947D030C947D030C947D030C947D0340
:100040000C94350C0C947D030C947D030C947D036F
:100050000C947D030C947D030C947D030C947D0320
:100060000C947D030C947D030C947D030C947D0310
:1000700000000000005C00000C000C007C287C28C4
:1000800058DC68002410480028542840000C000068
:10009000007884008478000054385400107C1000EC
:1000A00080400000101010000040000060100C00A4
:1000B00038543800487C40004864580044542C00B0
:1000C0001C107C005C5424003854240064140C0080
:1000D00068542C0048543800004800008048000054
:1000E0001028440028282800442810000454080040
:1000F00038445C00781478007C5428003844280088
:100100007C4438007C5444007C140400384474005F
:100110007C107C00447C440020403C007C106C003F
:100120007C4040007C187C0078103C00384438004B
:100130007C1408003844B8007C146800485424003B
:10014000047C04007C407C003C603C007C307C00F3
:100150006C106C000C700C0064544C00007C44006B
:100160000C106000447C00000804080080808000BF
:1001700000040800304878007C48300030484800CF
:1001800030487C00306850001078140090A8780047
:100190007C08700050744000808074007C106800FF
:1001A000447C4000781078007808700030483000B7
:1001B000F82810003048F80078100800505828003F
:1001C000083C4800384078003840380078207800F3
:1001D0004830480098A0780048685800107884009B
:1001E000007C00008478100008040804000000006F
:1001F0000000005F00000007000700147F147F1458
:10020000242A7F2A1223130864623649552250009B
:1002100005030000001C2241000041221C00082AA6
:100220001C2A0808083E080800503000000808088A
:100230000808006060000020100804023E51494593
:100240003E00427F400042615149462141454B31C9
:100250001814127F1027454545393C4A4949300159
:10026000710905033649494936064949291E0036B0
:100270003600000056360000000814224114141401
:10028000141441221408000201510906324979412F
:100290003E7E1111117E7F494949363E414141223E
:1002A0007F4141221C7F494949417F090901013EA3
:1002B000414151327F0808087F00417F41002040C2
:1002C000413F017F081422417F404040407F0204AB
:1002D000027F7F0408107F3E4141413E7F090909AA
:1002E000063E4151215E7F09192946464949493157
:1002F00001017F01013F4040403F1F2040201F7F00
:100300002018207F631408146303047804036151E8
:1003100049454300007F4141020408102041417FCC
:100320000000040201020440404040400001020479
:100330000020545454787F4844443838444444207E
:10034000384444487F3854545418087E0901020840
:100350001454543C7F0804047800447D400020403D
:10036000443D00007F10284400417F40007C041879
:1003700004787C0804047838444444387C14141409
:1003800008081414187C7C080404084854545420A9
:10039000043F4440203C4040207C1C2040201C3C2A
:1003A0004030403C44281028440C5050503C446499
:1003B000544C44000836410000007F0000004136E4
:1003C000080002010302010000000000000000001C
:1003D000065F5F0600000000070700070700001423
:1003E0007F7F147F7F1400242E6B6B3A120000462F
:1003F0006630180C666200307A4F5D377A48000428
:1004000007030000000000001C3E634100000000E4
:1004100041633E1C000000082A3E1C1C3E2A0808BE
:10042000083E3E0808000000A0E060000000000850
:100430000808080808000000006060000000006074
:1004400030180C060301003E7F594D7F3E000042EC
:10045000427F7F40400000627359496F660000226E
:100460006349497F360000181C16137F7F10002750
:100470006745457D3900003C7E4B497930000003DB
:100480006371190F070000367F49497F3600000667
:100490004F49693F1E000000006C6C000000000026
:1004A000A0EC6C00000000081C3663410000001442
:1004B00014141414140000004163361C08000002D8
:1004C0000351590F0600003E7F415D5D1F1E007CF9
:1004D0007E13137E7C0000417F7F49497F36001CDC
:1004E0003E634141632200417F7F41637F1C0041A5
:1004F0007F7F495D416300417F7F491D0103001CEF
:100500003E6341517372007F7F08087F7F000000C7
:10051000417F7F41000000307040417F3F0100413A
:100520007F7F081C776300417F7F41406070007FC0
:100530007F060C067F7F007F7F060C187F7F001CE4
:100540003E6341633E1C00417F7F49090F06001E48
:100550003F21717F5E0000417F7F19396F46002681
:10056000674D597B32000003417F7F410300007FCC
:100570007F40407F7F00001F3F60603F1F00007F83
:100580007F3018307F7F0063771C081C776300077B
:100590004F78784F0700006773594D47637100002B
:1005A0007F7F41410000000103060C18306000000D
:1005B00041417F7F000000080C0603060C08008004
:1005C000808080808080800000030704000000207D
:1005D0007454543C784000413F7F44447C38003898
:1005E0007C44446C280000307848493F7F40003804
:1005F0007C54545C180000487E7F49030200009838
:10060000BCA4A4F87C0400417F7F08047C7800002F
:10061000447D7D4000000040C484FD7D0000004119
:100620007F7F10386C440000417F7F400000007CD9
:100630007C0C180C7C78007C7C04047C78000038EE
:100640007C44447C38000084FCF8A4243C18001846
:100650003C24A4F8FC8400447C78441C1800004826
:100660005C54547424000000043E7F442400003C89
:100670007C40403C7C40001C3C60603C1C00003CDA
:100680007C6030607C3C00446C3810386C44009CCA
:10069000BCA0A0FC7C00004C64745C4C64000008AE
:1006A000083E7741410000000000777700000041DC
:1006B00041773E0808000002030103020301000025
:1006C00011241FBECFEFD4E0DEBFCDBF13E0A0E00A
:1006D000B1E0E0ECF3E202C005900D92AC34B1075A
:1006E000D9F723E0ACE4B3E001C01D92A635B20710
:1006F000E1F70E9498030C94DE110C940000CF9354
:10070000CFEFCABBC7BB0E948B04C6B98FE190E094
:100710000E94EB0311BAC2BB80E885BF80E280BFB4
:100720000E94F9040E9434090E949709CF9108950C
:10073000CF93DF93CDB7DEB762970FB6F894DEBFE5
:100740000FBECDBFF8940E947F030E940D0C0E9443
:100750002E0C81E089838FEF90E00E947B050E9440
:100760007F080E9487050E94C1070E94EA070E9435
:10077000FB0385E08A8378940F2EFEE0CF2EF1E014
:10078000DF2EF02D0E94A208CE0101960E94470B99
:100790008E811F928F93DF92CF920E949E0ECE0188
:1007A0000B967C0109811A812B813C814D815E81F0
:1007B0006F81788589859A850E94130A0F900F9022
:1007C0000F900F90DFCF5F9BFECF8CB108955D9BA4
:1007D000FECF8CB9089590BD89B988E18AB98EE8B9
:1007E00080BD63EE73E087EE93E00E94530E0895A0
:1007F00080E885BF0895CF92DF92EF92FF920F932A
:100800001F93CF93DF938DE191E00E94B40E80E0BF
:1008100090E00E94480EC0E0D0E000E010E00F2E13
:10082000F3E3EF2EF1E0FF2EF02D0E94430EFE01C8
:10083000F85E808320812817A9F099279F938F93D2
:100840001F922F93DF93CF93FF92EF920E949E0E01
:100850000F5F1F4F8DB79EB708960FB6F8949EBFD7
:100860000FBE8DBF2196C11598E0D907F1F680E043
:1008700090E00E94480EC0E0D0E0E12CF12C0F2E59
:10088000FDE6CF2EF1E0DF2EF02D0E94430EFE019B
:10089000F85E20812817B1F099279F938F931F92BC
:1008A0002F93DF93CF93DF92CF920E949E0E8FEF14
:1008B000E81AF80A8DB79EB708960FB6F8949EBF4F
:1008C0000FBE8DBF2196C11598E0D907F1F6FF92B2
:1008D000EF921F930F938BEA91E09F938F930E9467
:1008E0009E0E0F900F900F900F900F900F90DF9132
:1008F000CF911F910F91FF90EF90DF90CF900895CF
:10090000FC01F85E60830895FC01F85E8081082E8A
:10091000000C990B0895B8980895CF93DF931F9218
:10092000CDB7DEB7E0E0F4E184E0808387E99AE3C5
:100930000197F1F700C0000080818983898190E0F0
:100940000F90DF91CF910895E0E0F4E185E080839E
:1009500087E99AE30197F1F700C00000808190E0F9
:100960000895E0E0F4E186E0808387E99AE3019767
:10097000F1F700C00000808190E00895E0E0F4E12C
:1009800087E0808387E99AE30197F1F700C00000D0
:10099000808190E0089586B3817090E0089586B3D9
:1009A000887090E00895E0910201F0910301808346
:1009B0000895E0910001F091010180830895082ECF
:1009C000000C990B8097880F991F880F991F880F2B
:1009D000991FFC01E953FC4F81539C4FA0910001EA
:1009E000B091010124912C933196E817F907B1F7E2
:1009F0000895E0910201F09103018EEA8083E09175
:100A00000201F091030181EA8083E0910201F091FB
:100A100003018AED8083E0910201F091030182E1FC
:100A20008083E0910201F091030188EC8083E091E2
:100A30000201F091030188EA8083E0910201F091C4
:100A400003018FE38083E0910201F091030185EDC2
:100A50008083E0910201F091030180E88083E091BE
:100A60000201F091030189ED8083E0910201F09190
:100A7000030181E28083E0910201F091030190E2A1
:100A80009083E0910201F091030182E08083E09184
:100A90000201F09103012BED2083E0910201F0911E
:100AA000030120E32083E0910201F09103012DEA8C
:100AB0002083E0910201F09103011082E091020194
:100AC000F091030124EA2083E0910201F0910301F7
:100AD00026EA2083E0910201F09103012FEA2083AE
:100AE000E0910201F09103019083E0910201F09105
:100AF000030180830895E0910201F091030191E8E0
:100B00009083E0910201F091030180830895E091C8
:100B10000201F091030180EB8083E0910201F091EA
:100B2000030181E28083E0910201F09103011082D0
:100B3000E0910201F09103018FE78083E0910201CF
:100B4000F091030182E28083E0910201F0910301C0
:100B50001082E0910201F091030187E0808320EB95
:100B600040E830E00FC0E0910001F09101011082F7
:100B70000197C9F7E0910201F091030120832F5FF3
:100B8000293B19F0842F932FEECFE0910201F091D1
:100B9000030180EB80830895E0910201F09103014D
:100BA00092E29083E0910201F09103011082E091C2
:100BB0000201F091030197E090838155E0910201D9
:100BC000F09103018083E0910201F091030181E241
:100BD0008083E0910201F09103011082E091020113
:100BE000F09103018FE780830895E0910201F09175
:100BF00003019C012F703078332334F421503109E4
:100C0000206F3F6F2F5F3F4F2083E0910201F091F3
:100C100003019C01992314F4215F3F4F35952795DB
:100C200035952795359527953595279520830895F2
:100C3000CF93DF93EB010E94CC05CE010E94F50516
:100C4000DF91CF910895E0910201F091030182E2DA
:100C50008083E0910201F09103011082E091020192
:100C6000F091030187E0808320EB71E260E75FE7AA
:100C70004FE030E0E0910201F09103017083E091D8
:100C80000201F09103016083E0910201F091030100
:100C90005083E0910201F09103012083842F932F70
:100CA000E0910001F091010110820197C9F72F5FD7
:100CB000283B01F708950E94A404C3974CF48FE4E5
:100CC00093EC0197F1F700C0000081E090E00895F7
:100CD0000E94A4048D3C91054CF08FE493EC0197A5
:100CE000F1F700C000008FEF9FEF089580E090E0E3
:100CF00008950E948D048D3C91054CF08FE493EC97
:100D00000197F1F700C0000081E090E008950E9493
:100D10008D04C3974CF48FE493EC0197F1F700C076
:100D200000008FEF9FEF089580E090E008950F930B
:100D30001F93CF93DF93FC0101900020E9F73197D7
:100D4000E81BF90B1E161F0654F4EC018C010E0F64
:100D50001F1F89910E94DF04C017D107D1F7DF91CF
:100D6000CF911F910F910895CF93DF93C82FD92F63
:100D70000E942306E0910201F091030182E2808348
:100D8000E0910201F09103011082E0910201F091E3
:100D9000030187E080838FEA8C0FE0910201F091DC
:100DA00003018083E0910201F091030181E28083DD
:100DB000E0910201F091030180E78083E09102015C
:100DC000F09103018FE7808385E092E00E9497060F
:100DD0008C2F9D2F0E94CC05DF91CF9108958FEF2E
:100DE00090E00E947B0508958FE090E00E947B05D3
:100DF000089585E090E00E947B0508950E94870594
:100E000081E090E00E94CC0588E092E00E94970685
:100E100083E090E00E94CC0580E192E00E9497067A
:100E200084E090E00E94CC0589E192E00E94970660
:100E30008EE192E09F938F930E949E0E0F900F90F1
:100E400008950E94870581E090E00E94CC0588E229
:100E500092E00E94970683E090E00E94CC0586E332
:100E600092E00E94970684E090E00E94CC0586E420
:100E700092E00E94970685E592E09F938F930E94EF
:100E80009E0E0F900F9008950E9487058EE592E0C8
:100E90000E9497068BE692E09F938F930E949E0E8E
:100EA0000F900F9008950E9487050E94EF0686E735
:100EB00092E00E94970683E090E00E94CC0586E8CD
:100EC00092E00E94970608950E9487050E94F90605
:100ED00085E992E00E94970683E090E00E94CC05AD
:100EE00086E892E00E949706089586E190E00E94CD
:100EF000CA0CFC01138212822EEF36E0318320836C
:100F0000158A148A34969C012C5E3F4F11921192DF
:100F1000E217F307D9F70895EF92FF920F931F930B
:100F2000CF93DF93EC017B018A0186E190E00E9480
:100F3000CA0CFC01F182E082D383C283158B048B3F
:100F40002A853B85232B59F0DE011C9623E030E0F7
:100F50002F5F3F4F4D915D91452BD1F702C023E0AC
:100F600030E02E5F3F4F220F331FFE01E20FF31FD1
:100F700091838083DF91CF911F910F91FF90EF902C
:100F800008950F931F93CF93DF930E947507EC0191
:100F900040E050E061E277E00E948C078C0141E084
:100FA00050E064E477E0CE010E948C0740E050E01E
:100FB00063E577E0C8010E948C0740E050E064E6FA
:100FC00077E0C8010E948C07CE01DF91CF911F917D
:100FD0000F910895CF92DF92EF92FF920F931F939C
:100FE000CF93DF937C01DC01ED91FC910995C3E087
:100FF000D0E00F2EF3E0CF2EF02DD12C4CC0CE013F
:101000000E94B4068E010F5F1F4FFE013396EE0F54
:10101000FF1FEE0DFF1D80819181892B29F00E9419
:101020005B06019709F4E8018E0101501109FE01E8
:101030003196EE0FFF1FEE0DFF1D80819181892BF0
:1010400029F00E945B06019609F4E8010E947906E6
:10105000019781F4FE013296EE0FFF1FEE0DFF1D8A
:10106000008111810115110529F0D801ED91FC9144
:10107000099578010E947906019669F4F7010281C9
:1010800013810115110539F0D801ED91FC910995F5
:101090007801CC2DDD2DD70154968D919C915597DB
:1010A000019709F0ACCFDF91CF911F910F91FF9085
:1010B000EF90DF90CF9008950E94870581E090E047
:1010C0000E94CC0584EA92E00E94970683E090E0BB
:1010D0000E94CC058FEA92E00E94970684E090E09F
:1010E0000E94CC0582EB92E00E94970686EB92E08C
:1010F0009F938F930E949E0E0F900F9008950E94D1
:10110000870582E090E00E94CC058CEB92E00E9483
:10111000970683E090E00E94CC0588EC92E00E9464
:10112000970685E090E00E94CC0582ED92E00E9457
:10113000970686E090E00E94CC0581EE92E00E9446
:10114000970608950E94CF04892B69F10E948705B4
:101150008EEE92E00E94970682E090E00E94CC051D
:1011600084EF92E00E94970683E090E00E94CC0515
:1011700080E093E00E94970684E090E00E94CC0516
:1011800087E093E00E9497060AC00E94CB04892B57
:1011900031F00E9487058BE692E00E9497060E943C
:1011A000CB04892B91F308958FB9779BFECF0895D7
:1011B0008FEF8FB9779BFECF8FB190E008950097A6
:1011C00019F0019719F00895C4980895C49A0895E4
:1011D00080EB87BBBE9881E58DB981E090E00E94ED
:1011E000DF080895CF93DF93C82F80E090E00E943E
:1011F000DF0883E00E94D4088C2F0E94D4080E944C
:10120000D808EC0181E090E00E94DF08CE01DF9178
:10121000CF910895CF93DF93D82FC62F80E090E031
:101220000E94DF0882E00E94D4088D2F0E94D4081B
:101230008C2F0E94D40881E090E00E94DF08DF91AB
:10124000CF91089580E090E00E94DF0880EC0E943A
:10125000D40881E090E00E94DF0883EC99E00197D8
:10126000F1F700C0000008950E94E8080E942209DA
:101270008EE090E00E94F208089580E090E00E94E5
:10128000DF0880EA0E94D40881E090E00E94DF0835
:1012900080EA90E0089581E090E00895CF93DF9395
:1012A000EC0180E090E00E94DF08CE0163E070E096
:1012B0000E94610C009739F08130910531F002975E
:1012C00031F484E805C081E803C082E801C081E808
:1012D0000E94D40881E090E00E94DF08DF91CF9166
:1012E00008951F93CF93DF93182FD62FC42F80E03C
:1012F00090E00E94DF0885E00E94D408812F0E94C0
:10130000D4088D2F0E94D4088C2F0E94D40881E02D
:1013100090E00E94DF08DF91CF911F910895AC010A
:1013200060EE70E08FE090E00E947109089580E027
:1013300090E00E94DF0841E050E061E070E08BE265
:1013400090E00E94710941E050E064E070E08BE2BF
:1013500090E00E94710940E050E061E070E08CE2B2
:1013600090E00E94710940E050E064E070E08CE29F
:1013700090E00E94710985B7826085BF8BB7806459
:101380008BBF8AB780648ABF80E090E00E948F099B
:1013900081E090E00E94DF0878940895EF92FF9238
:1013A0000F931F93CF93DF937C01FC0160816695BF
:1013B0006695669570E081E390E00E940A09F70166
:1013C0006081F0E26F9FB001112482E390E00E94FF
:1013D0000A09F701618170E085E390E00E940A0943
:1013E000F70181818823A1F087010E5F1F4FC0E0C4
:1013F000D0E0F80161918F0170E0CE01C6960E94A5
:101400000A092196F701218130E0C217D3078CF336
:1014100080E090E00E944E09DF91CF911F910F91E3
:10142000FF90EF900895EF92FF920F931F93CF9349
:10143000DF93CDB7DEB72A970FB6F894DEBF0FBEA5
:10144000CDBF09831A832B833C834D835E836F83D7
:10145000788789879A87822F90E0F7012081821B05
:1014600091099C0122F422273327281B390B2430B1
:1014700031056CF58C8190E0F7012181821B910987
:101480009C0122F422273327281B390B24303105F5
:10149000F4F48E8190E0F7012381821B91099C0175
:1014A00022F422273327281B390B243031057CF402
:1014B0008F8190E0F7012481821B91099C0122F425
:1014C00022273327281B390B121613065CF4CE0192
:1014D00001960E94CE0906C081918D93E217F30711
:1014E000D9F707C0FE013396D7019E01255F3F4F14
:1014F000F3CF80E090E02A960FB6F894DEBF0FBEDF
:10150000CDBFDF91CF911F910F91FF90EF90089584
:101510007F928F929F92AF92BF92CF92DF92EF9283
:10152000FF920F931F93CF93DF93CDB7DEB72A9728
:101530000FB6F894DEBF0FBECDBF5C0181E690E030
:101540000E94F208182F82E690E00E94F208969519
:101550008795929582958F7089279F708927782E1D
:1015600028E0129F700C112485E690E00E94F2089A
:101570004C016C01DD241C141D04A4F47E0183E0E5
:10158000E80EF11CE6E6CE0ED11C06E610E0C8011E
:101590000E94F208F70181937F010F5F1F4F0C1526
:1015A0001D05A9F779828A828AE0FE013196D5016C
:1015B00001900D928A95E1F7C5012A960FB6F8942D
:1015C000DEBF0FBECDBFDF91CF911F910F91FF9076
:1015D000EF90DF90CF90BF90AF909F908F907F90D3
:1015E00008951F920F920FB60F9211242F933F93DD
:1015F0004F935F936F937F938F939F93AF93BF931B
:10160000EF93FF93CF93DF93CDB7DEB72A97DEBF7B
:10161000CDBFF894CE0101960E94880A8A81893054
:1016200060F01F928F9383E193E09F938F930E94CA
:101630009E0E0F900F900F900F9040E050E061E0F1
:1016400070E08CE290E00E94710985E393E09F9343
:101650008F930E949E0E78940F900F902A960FB64B
:10166000F894DEBF0FBECDBFDF91CF91FF91EF9118
:10167000BF91AF919F918F917F916F915F914F91AA
:101680003F912F910F900FBE0F901F901895CF9301
:10169000DF93EC010E948D048A830E94A4048B8353
:1016A0000E94B1048C830E94BE048D830E94CB04EF
:1016B0008E83DF91CF910895CF93DF93C0E0D0E088
:1016C00060E070E0CE010E9480042196C11584E0A4
:1016D000D807B1F7DF91CF9108950E945C0B089570
:1016E0000F931F93CF93DF93EB01880F991F880F00
:1016F000991F880F991F9B01DD2314F4295F3F4F29
:101700003595279535952795359527958C01020FA9
:10171000131FC8010E9484049E0127703078332370
:1017200034F421503109286F3F6F2F5F3F4F61E044
:1017300070E002C0660F771F2A95E2F7682B062E2D
:10174000000C770BC8010E948004DF91CF911F919C
:101750000F910895BF92CF92DF92EF92FF920F9375
:101760001F93CF93DF93C12CD12CE12CF12CB12C02
:1017700000E01DC0CE018C0D9D1D0E948404182F19
:10178000B701CE010E941806812F110F990B0E94FC
:10179000D9042196C830D10569F78FEFE81AF80A05
:1017A00088E0C80ED11C80E8E816F10419F0CB2DB2
:1017B000D02FE0CFDF91CF911F910F91FF90EF904D
:1017C000DF90CF90BF9008950E945C0BE12CF12C2C
:1017D0000E947906082F192F0E945B06C02FD12F77
:1017E000DD2314F4CE2DDF2D082F192F112314F42F
:1017F0000E2D1F2DB801CE010E94180682E493E041
:101800000E9497060E94CB04892B11F3B801CE01E8
:101810000E94700B0E94AA0BDBCF8D9A8FB580645B
:101820008FBD8FB583608FBD8EB588618EBD8EB53F
:1018300082608EBD0895880F991F880F991F880FA9
:10184000991F9C01990F440B550B60E070E08BE4ED
:1018500090E00E94750C3BBD2ABD08958DE083BFCA
:1018600080E581BF81E089BF08951F920F920FB676
:101870000F9211242F933F934F935F936F937F9316
:101880008F939F93AF93BF93EF93FF9384E493E081
:101890009F938F930E949E0E80E581BF0F900F90C3
:1018A000FF91EF91BF91AF919F918F917F916F9138
:1018B0005F914F913F912F910F900FBE0F901F900E
:1018C000189597FB072E16F4009407D077FD09D0E2
:1018D0000E94940C07FC05D03EF4909581959F4F93
:1018E0000895709561957F4F0895052E97FB1EF41E
:1018F00000940E948C0C57FD07D00E94A80C07FC96
:1019000003D04EF40C948C0C509540953095219555
:101910003F4F4F4F5F4F089590958095709561951B
:101920007F4F8F4F9F4F0895AA1BBB1B51E107C0EC
:10193000AA1FBB1FA617B70710F0A61BB70B881F5F
:10194000991F5A95A9F780959095BC01CD010895EE
:10195000A1E21A2EAA1BBB1BFD010DC0AA1FBB1FB3
:10196000EE1FFF1FA217B307E407F50720F0A21B25
:10197000B30BE40BF50B661F771F881F991F1A9492
:1019800069F760957095809590959B01AC01BD01BC
:10199000CF010895CF93DF938230910510F482E058
:1019A00090E0E0914E03F0914F0320E030E0C0E082
:1019B000D0E0309711F14081518148175907C0F0AC
:1019C0004817590761F482819381209719F09B830E
:1019D0008A832BC090934F0380934E0326C021151A
:1019E000310519F04217530718F49A01BE01DF01BF
:1019F000EF010280F381E02DDCCF2115310509F1E3
:101A0000281B390B2430310590F412968D919C914E
:101A100013976115710521F0FB019383828304C044
:101A200090934F0380934E03FD01329644C0FD0115
:101A3000E20FF31F81939193225031092D933C9330
:101A40003AC020914C0330914D03232B41F4209157
:101A500006013091070130934D0320934C032091F0
:101A60000401309105012115310541F42DB73EB730
:101A70004091080150910901241B350BE0914C0362
:101A8000F0914D03E217F307A0F42E1B3F0B28172C
:101A9000390778F0AC014E5F5F4F2417350748F0E7
:101AA0004E0F5F1F50934D0340934C0381939193CE
:101AB00002C0E0E0F0E0CF01DF91CF9108950F93F5
:101AC0001F93CF93DF93009709F48CC0FC013297EA
:101AD0001382128200914E0310914F0301151105DC
:101AE00081F420813181820F931F20914C0330912A
:101AF0004D032817390779F5F0934D03E0934C0314
:101B000071C0D80140E050E0AE17BF0750F4129604
:101B10002D913C911397AD012115310509F1D901A2
:101B2000F3CF9D01DA013383228360817181860FB7
:101B3000971F8217930769F4EC0128813981260FDA
:101B4000371F2E5F3F4F318320838A819B81938390
:101B50008283452B29F4F0934F03E0934E0342C058
:101B60001396FC93EE931297ED01499159919E01C2
:101B7000240F351FE217F30771F480819181840FE0
:101B8000951F029611969C938E9382819381139652
:101B90009C938E931297E0E0F0E0D80112968D911D
:101BA0009C911397009719F0F8018C01F6CF8D9155
:101BB0009C9198012E5F3F4F820F931F20914C0301
:101BC00030914D032817390769F4309729F41092A2
:101BD0004F0310924E0302C01382128210934D03E2
:101BE00000934C03DF91CF911F910F9108958F9235
:101BF0009F92AF92BF92CF92DF92EF92FF92CF93DC
:101C0000DF93EC01688179818A819B81611571057F
:101C10008105910521F464E279ED8BE597E02DE1F2
:101C200033EF41E050E00E94750C49015A019B01DD
:101C3000AC01A7EAB1E40E9485116B017C01ACEE16
:101C4000B4EFA50194010E949311DC01CB018C0D2E
:101C50009D1DAE1DBF1DB7FF03C00197A109B04870
:101C600088839983AA83BB839F77DF91CF91FF906D
:101C7000EF90DF90CF90BF90AF909F908F9008959E
:101C80000E94F70D08958AE091E00E94F70D0895F3
:101C9000A0E0B0E080930A0190930B01A0930C01A7
:101CA000B0930D0108950F931F93CF93DF93009787
:101CB00031F46115710519F480E090E03AC08B01B0
:101CC000EC016EE070E081E090E00E94B610FC0153
:101CD000892B91F380E883830115110571F0138737
:101CE000028781E883838091500390915103892B6F
:101CF00021F4F0935103E09350032097C9F0D1876A
:101D0000C0878381826083838091520390915303C3
:101D1000892B71F4F0935303E093520380915403A1
:101D200090915503892B21F4F0935503E0935403CC
:101D3000CF01DF91CF911F910F910895A0E0B0E006
:101D4000E4EAFEE00C94A811AE014B5F5F4FFA018C
:101D500061917191AF0180915203909153030E9460
:101D6000E40EE2E00C94C4110F931F93CF93DF9322
:101D7000E0915203F0915303238121FF1BC08C019A
:101D8000D0E0C0E0F80181918F0160915203709121
:101D90005303DB011896ED91FC911997882331F0DC
:101DA0000995892B79F3DFEFCFEFECCF8AE0099526
:101DB000892B19F08FEF9FEF02C08D2F9C2FDF91A1
:101DC000CF911F910F910895ACE0B0E0EAEEFEE0F4
:101DD0000C9498117C016B018A01FC011782168218
:101DE000838181FFBDC1CE0101964C01F701938132
:101DF000F60193FD859193FF81916F01882309F48A
:101E0000ABC1853239F493FD859193FF81916F01C8
:101E1000853229F4B70190E00E94EF10E7CF512CF2
:101E2000312C20E02032A0F48B3269F030F4803283
:101E300059F0833269F420612CC08D3239F080333F
:101E400039F4216026C02260246023C0286021C0AC
:101E500027FD27C030ED380F3A3078F426FF06C052
:101E6000FAE05F9E300D1124532E13C08AE0389E95
:101E7000300D1124332E20620CC08E3221F426FD49
:101E80006BC1206406C08C3611F4206802C088360D
:101E900041F4F60193FD859193FF81916F018111CA
:101EA000C1CF982F9F7D9554933028F40C5F1F4F1E
:101EB000FFE3F9830DC0833631F0833771F083354A
:101EC00009F05BC022C0F801808189830E5F1F4F3B
:101ED00044244394512C540115C03801F2E06F0E94
:101EE000711CF801A080B18026FF03C0652D70E051
:101EF00002C06FEF7FEFC5012C870E94E4102C0118
:101F000083012C852F77222E17C03801F2E06F0E47
:101F1000711CF801A080B18026FF03C0652D70E020
:101F200002C06FEF7FEFC5012C870E94D2102C01F9
:101F30002C852068222E830123FC1BC0832D90E07A
:101F400048165906B0F4B70180E290E00E94EF1005
:101F50003A94F4CFF50127FC859127FE81915F012A
:101F6000B70190E00E94EF1031103A94F1E04F1A5F
:101F700051084114510471F7E5C0843611F08936D7
:101F800039F5F80127FF07C0608171818281938153
:101F90000C5F1F4F08C060817181072E000C880BF9
:101FA000990B0E5F1F4F2F76722E97FF09C09095E9
:101FB0008095709561957F4F8F4F9F4F2068722E4F
:101FC0002AE030E0A4010E942711A82EA81844C0DE
:101FD000853729F42F7EB22E2AE030E025C0F22F7B
:101FE000F97FBF2E8F36C1F018F4883579F0B4C070
:101FF000803719F0883721F0AFC02F2F2061B22E23
:10200000B4FE0DC08B2D8460B82E09C024FF0AC019
:102010009F2F9660B92E06C028E030E005C020E171
:1020200030E002C020E132E0F801B7FE07C0608175
:102030007181828193810C5F1F4F06C06081718125
:1020400080E090E00E5F1F4FA4010E942711A82E90
:10205000A818FB2DFF777F2E76FE0BC0372D3E7F15
:10206000A51450F474FE0AC072FC08C0372D3E7EE1
:1020700005C0BA2C372D03C0BA2C01C0B52C34FFD3
:102080000DC0FE01EA0DF11D8081803311F4397E0F
:1020900009C032FF06C0B394B39404C0832F86787E
:1020A00009F0B39433FD13C030FF06C05A2CB314AB
:1020B00018F4530C5B18B32CB31468F4B70180E226
:1020C00090E03C870E94EF10B3943C85F5CFB314A9
:1020D00010F43B1801C0312C34FF12C0B70180E36B
:1020E00090E03C870E94EF103C8532FF17C031FD25
:1020F00003C088E790E002C088E590E0B7010CC01B
:10210000832F867859F031FF02C08BE201C080E254
:1021100037FD8DE2B70190E00E94EF10A51438F46E
:10212000B70180E390E00E94EF105A94F7CFAA9491
:10213000F401EA0DF11D8081B70190E00E94EF10DB
:10214000A110F5CF332009F451CEB70180E290E021
:102150000E94EF103A94F6CFF7018681978102C072
:102160008FEF9FEF2C96E2E10C94B4110F931F9325
:10217000CF93DF93869F8001879F100D969F100D50
:102180001124C8010E94CA0CEC01009729F0A80193
:1021900060E070E00E94DD10CE01DF91CF911F91D1
:1021A0000F910895FC010590615070400110D8F71F
:1021B000809590958E0F9F1F0895DC0101C06D934F
:1021C00041505040E0F70895FC016150704001908B
:1021D0000110D8F7809590958E0F9F1F08950F934B
:1021E0001F93CF93DF93FB01238121FD03C08FEF6A
:1021F0009FEF28C022FF16C0468157812481358178
:102200004217530744F4A081B1819D012F5F3F4FD6
:10221000318320838C93268137812F5F3F4F378313
:10222000268310C0EB01092F182F0084F185E02DC3
:102230000995892BE1F68E819F8101969F838E837C
:10224000812F902FDF91CF911F910F910895FA0167
:10225000AA27283051F1203181F1E8946F936E7FE5
:102260006E5F7F4F8F4F9F4FAF4FB1E03ED0B4E0D6
:102270003CD0670F781F891F9A1FA11D680F791F17
:102280008A1F911DA11D6A0F711D811D911DA11D28
:1022900020D009F468943F912AE0269F1124301938
:1022A000305D3193DEF6CF010895462F4770405DD3
:1022B0004193B3E00FD0C9F7F6CF462F4F70405D82
:1022C0004A3318F0495D31FD4052419302D0A9F7DD
:1022D000EACFB4E0A6959795879577956795BA95D7
:1022E000C9F700976105710508959B01AC010A2E9D
:1022F00006945795479537952795BA95C9F7620F74
:10230000731F841F951FA01D08950E94CF11A59FC4
:10231000900DB49F900DA49F800D911D11240895E0
:10232000B7FF0C9485110E948511821B930B0895B1
:102330002F923F924F925F926F927F928F929F92D5
:10234000AF92BF92CF92DF92EF92FF920F931F93C3
:10235000CF93DF93CDB7DEB7CA1BDB0B0FB6F89474
:10236000DEBF0FBECDBF09942A88398848885F84B4
:102370006E847D848C849B84AA84B984C884DF8025
:10238000EE80FD800C811B81AA81B981CE0FD11D09
:102390000FB6F894DEBF0FBECDBFED010895A29F2A
:1023A000B001B39FC001A39F700D811D1124911D29
:1023B000B29F700D811D1124911D0895F894FFCFD7
:1023C0000012001000005603200001000000706F92
:1023D000735F736C6964657225640A0D00537461E0
:1023E0007274696E67205352414D20746573742E68
:1023F0002E2E0057726974652070686173652065C0
:1024000072726F723A206578745F72616D5B253409
:10241000645D203D2025303258202873686F756C2C
:10242000642062652025303258290A0D00526574F7
:1024300072696576616C207068617365206572727F
:102440006F723A206578745F72616D5B2534645DEC
:10245000203D2025303258202873686F756C642029
:1024600062652025303258290A0D005352414D2013
:102470007465737420636F6D706C65746564207728
:10248000697468200A253464206572726F72732043
:10249000696E207772697465207068617365206168
:1024A0006E64200A253464206572726F727320692D
:1024B0006E2072657472696576616C2070686173F4
:1024C000650A0A0D003C2D0057454C434F4D450011
:1024D00053455454494E475300504C4159006D6187
:1024E000696E206D656E750053455454494E4753CF
:1024F000204D454E55004252494748544E4553538E
:102500002048494748004252494748544E45535392
:10251000204C4F570073657474696E677300706C5C
:102520006179696E672067616D6500706C617969BA
:102530006E672E2E2E006869676820627269676870
:10254000746E657373006C65667420746F207265B9
:102550007475726E006C6F77206272696768746E52
:10256000657373004D55534943204D454E55004FFB
:102570004E004F4646006D757369630048454C4CEC
:102580004F2054484552450054524156454C4C4505
:10259000520057454C434F4D4520544F204F555204
:1025A000004152434144452047414D45210070615F
:1025B0007573650070726573732072696768740063
:1025C000627574746F6E00746F20636F6E74696EE1
:1025D000756500746F6F206C6F6E67206D65737327
:1025E0006167652E204D7367206C656E6774683A6D
:1025F00025640A0D00696E746572757074796F21B7
:0C26000021002A0074696D6572796F007A
:00000001FF
