:100000000C9460030C947D030C947D030C947D038D
:100010000C947D030C947D030C947D030C947D0360
:100020000C947D030C947D030C947D030C947D0350
:100030000C947D030C947D030C947D030C947D0340
:100040000C947D030C947D030C947D030C947D0330
:100050000C947D030C947D030C947D030C947D0320
:100060000C947D030C947D030C947D030C947D0310
:1000700000000000005C00000C000C007C287C28C4
:1000800058DC68002410480028542840000C000068
:10009000007884008478000054385400107C1000EC
:1000A00080400000101010000040000060100C00A4
:1000B00038543800487C40004864580044542C00B0
:1000C0001C107C005C5424003854240064140C0080
:1000D00068542C0048543800004800008048000054
:1000E0001028440028282800442810000454080040
:1000F00038445C00781478007C5428003844280088
:100100007C4438007C5444007C140400384474005F
:100110007C107C00447C440020403C007C106C003F
:100120007C4040007C187C0078103C00384438004B
:100130007C1408003844B8007C146800485424003B
:10014000047C04007C407C003C603C007C307C00F3
:100150006C106C000C700C0064544C00007C44006B
:100160000C106000447C00000804080080808000BF
:1001700000040800304878007C48300030484800CF
:1001800030487C00306850001078140090A8780047
:100190007C08700050744000808074007C106800FF
:1001A000447C4000781078007808700030483000B7
:1001B000F82810003048F80078100800505828003F
:1001C000083C4800384078003840380078207800F3
:1001D0004830480098A0780048685800107884009B
:1001E000007C00008478100008040804000000006F
:1001F0000000005F00000007000700147F147F1458
:10020000242A7F2A1223130864623649552250009B
:1002100005030000001C2241000041221C00082AA6
:100220001C2A0808083E080800503000000808088A
:100230000808006060000020100804023E51494593
:100240003E00427F400042615149462141454B31C9
:100250001814127F1027454545393C4A4949300159
:10026000710905033649494936064949291E0036B0
:100270003600000056360000000814224114141401
:10028000141441221408000201510906324979412F
:100290003E7E1111117E7F494949363E414141223E
:1002A0007F4141221C7F494949417F090901013EA3
:1002B000414151327F0808087F00417F41002040C2
:1002C000413F017F081422417F404040407F0204AB
:1002D000027F7F0408107F3E4141413E7F090909AA
:1002E000063E4151215E7F09192946464949493157
:1002F00001017F01013F4040403F1F2040201F7F00
:100300002018207F631408146303047804036151E8
:1003100049454300007F4141020408102041417FCC
:100320000000040201020440404040400001020479
:100330000020545454787F4844443838444444207E
:10034000384444487F3854545418087E0901020840
:100350001454543C7F0804047800447D400020403D
:10036000443D00007F10284400417F40007C041879
:1003700004787C0804047838444444387C14141409
:1003800008081414187C7C080404084854545420A9
:10039000043F4440203C4040207C1C2040201C3C2A
:1003A0004030403C44281028440C5050503C446499
:1003B000544C44000836410000007F0000004136E4
:1003C000080002010302010000000000000000001C
:1003D000065F5F0600000000070700070700001423
:1003E0007F7F147F7F1400242E6B6B3A120000462F
:1003F0006630180C666200307A4F5D377A48000428
:1004000007030000000000001C3E634100000000E4
:1004100041633E1C000000082A3E1C1C3E2A0808BE
:10042000083E3E0808000000A0E060000000000850
:100430000808080808000000006060000000006074
:1004400030180C060301003E7F594D7F3E000042EC
:10045000427F7F40400000627359496F660000226E
:100460006349497F360000181C16137F7F10002750
:100470006745457D3900003C7E4B497930000003DB
:100480006371190F070000367F49497F3600000667
:100490004F49693F1E000000006C6C000000000026
:1004A000A0EC6C00000000081C3663410000001442
:1004B00014141414140000004163361C08000002D8
:1004C0000351590F0600003E7F415D5D1F1E007CF9
:1004D0007E13137E7C0000417F7F49497F36001CDC
:1004E0003E634141632200417F7F41637F1C0041A5
:1004F0007F7F495D416300417F7F491D0103001CEF
:100500003E6341517372007F7F08087F7F000000C7
:10051000417F7F41000000307040417F3F0100413A
:100520007F7F081C776300417F7F41406070007FC0
:100530007F060C067F7F007F7F060C187F7F001CE4
:100540003E6341633E1C00417F7F49090F06001E48
:100550003F21717F5E0000417F7F19396F46002681
:10056000674D597B32000003417F7F410300007FCC
:100570007F40407F7F00001F3F60603F1F00007F83
:100580007F3018307F7F0063771C081C776300077B
:100590004F78784F0700006773594D47637100002B
:1005A0007F7F41410000000103060C18306000000D
:1005B00041417F7F000000080C0603060C08008004
:1005C000808080808080800000030704000000207D
:1005D0007454543C784000413F7F44447C38003898
:1005E0007C44446C280000307848493F7F40003804
:1005F0007C54545C180000487E7F49030200009838
:10060000BCA4A4F87C0400417F7F08047C7800002F
:10061000447D7D4000000040C484FD7D0000004119
:100620007F7F10386C440000417F7F400000007CD9
:100630007C0C180C7C78007C7C04047C78000038EE
:100640007C44447C38000084FCF8A4243C18001846
:100650003C24A4F8FC8400447C78441C1800004826
:100660005C54547424000000043E7F442400003C89
:100670007C40403C7C40001C3C60603C1C00003CDA
:100680007C6030607C3C00446C3810386C44009CCA
:10069000BCA0A0FC7C00004C64745C4C64000008AE
:1006A000083E7741410000000000777700000041DC
:1006B00041773E0808000002030103020301000025
:1006C00011241FBECFEFD4E0DEBFCDBF12E0A0E00B
:1006D000B1E0E6E2FDE102C005900D92AA36B10755
:1006E000D9F722E0AAE6B2E001C01D92A837B2070E
:1006F000E1F70E947F030C94910E0C940000CF93BD
:10070000DF93CDB7DEB72A970FB6F894DEBF0FBEE2
:10071000CDBF1FEF1ABB17BB16B98FE190E00E9447
:10072000DC0311BA12BB80E885BF80E280BF0E9463
:10073000D5040E9459050E94B70683E0898394E09E
:100740009A8391E09B838C838D8387E08E830E94C4
:10075000D4070E9444088EE090E00E9492079F9385
:100760008F938EE091E09F938F930E94100B0F90D8
:100770000F900F900F900AE612E00E940A06F8010F
:10078000808191810E946A060E943807CE010196FD
:100790000E947A08FFEF2FE781E0F150204080406F
:1007A000E1F700C000C0E9CF5F9BFECF8CB1089598
:1007B0005D9BFECF8CB9089590BD89B988E18AB957
:1007C0008EE880BD64ED73E088ED93E00E94C50A79
:1007D000089580E885BF0895CF92DF92EF92FF924F
:1007E0000F931F93CF93DF9388E291E00E94260B33
:1007F00080E090E00E94BA0AC0E0D0E000E010E0A3
:100800000F2EFEE3EF2EF1E0FF2EF02D0E94B50A31
:10081000FE01F85E808320812817A9F099279F9315
:100820008F931F922F93DF93CF93FF92EF920E94AB
:10083000100B0F5F1F4F8DB79EB708960FB6F89439
:100840009EBF0FBE8DBF2196C11598E0D907F1F666
:1008500080E090E00E94BA0AC0E0D0E0E12CF12CE8
:100860000F2EF8E7CF2EF1E0DF2EF02D0E94B50A13
:10087000FE01F85E20812817B1F099279F938F938E
:100880001F922F93DF93CF93DF92CF920E94100B92
:100890008FEFE81AF80A8DB79EB708960FB6F8944E
:1008A0009EBF0FBE8DBF2196C11598E0D907F1F606
:1008B000FF92EF921F930F9386EB91E09F938F939C
:1008C0000E94100B0F900F900F900F900F900F90B1
:1008D000DF91CF911F910F91FF90EF90DF90CF901C
:1008E0000895CF93DF931F92CDB7DEB7E0E0F4E138
:1008F00084E0808387E99AE30197F1F700C0000064
:1009000080818983898190E00F90DF91CF91089554
:10091000E0E0F4E185E0808387E99AE30197F1F76D
:1009200000C00000808190E00895E0E0F4E186E0FE
:10093000808387E99AE30197F1F700C00000808186
:1009400090E00895E0E0F4E187E0808387E99AE3AE
:100950000197F1F700C00000808190E00895E091D8
:100960000201F091030180830895E0910001F0916C
:10097000010180830895082E000C990B8097880F41
:10098000991F880F991F880F991FFC01E953FC4F8D
:1009900081539C4FA0910001B091010124912C93AF
:1009A0003196E817F907B1F70895E0910201F09147
:1009B00003018EEA8083E0910201F091030181EA54
:1009C0008083E0910201F09103018AED8083E09140
:1009D0000201F091030182E18083E0910201F09134
:1009E000030188EC8083E0910201F091030188EA21
:1009F0008083E0910201F09103018FE38083E09115
:100A00000201F091030185ED8083E0910201F091F4
:100A1000030180E88083E0910201F091030181E805
:100A20008083E0910201F091030180E58083E091F1
:100A30000201F091030189ED8083E0910201F091C0
:100A4000030181E28083E0910201F091030180E2E1
:100A50008083E0910201F091030182E08083E091C4
:100A60000201F09103018BED8083E0910201F0918E
:100A7000030180E38083E0910201F09103018DEA9C
:100A80008083E0910201F09103011082E091020164
:100A9000F091030184EA8083E0910201F091030167
:100AA00086EA8083E0910201F09103018FEA80835E
:100AB0000895E0910201F091030180EB8083E091C1
:100AC0000201F091030181E28083E0910201F09143
:100AD00003011082E0910201F09103018FE780830E
:100AE000E0910201F091030182E28083E091020132
:100AF000F09103011082E0910201F091030187E07F
:100B0000808320EB40E830E00FC0E0910001F091DD
:100B1000010110820197C9F7E0910201F0910301F0
:100B200020832F5F293B19F0842F932FEECFE09184
:100B30000201F091030180EB80830895E0910201AE
:100B4000F091030122E22083E0910201F091030180
:100B50001082E0910201F091030127E020832FEA47
:100B6000280FE0910201F09103012083E09102013E
:100B7000F091030121E22083E0910201F091030151
:100B80001082E0910201F09103012FE72083EAE651
:100B9000F2E0808391830895E0910201F0910301D6
:100BA00082E28083E0910201F09103011082E091E2
:100BB0000201F091030187E0808320EB71E260E79E
:100BC0005FE74FE030E0E0910201F09103017083B4
:100BD000E0910201F09103016083E0910201F09144
:100BE00003015083E0910201F09103012083842FDF
:100BF000932FE0910001F091010110820197C9F754
:100C00002F5F283B01F780916A0290916B020E944E
:100C10009E0508950E948804892BD1F480916A0270
:100C200090916B02883091059CF4019690936B0231
:100C300080936A020E949E052FE38DE093E021508D
:100C400080409040E1F700C0000081E090E008950E
:100C50000E948804863E9105D4F080916A029091AA
:100C60006B0284309105B4F0019790936B028093EE
:100C70006A020E949E052FE38DE093E021508040A0
:100C80009040E1F700C0000081E090E0089580E02E
:100C900090E0089580E090E008950F931F93CF9324
:100CA000DF93FC0101900020E9F73197E81BF90B75
:100CB0001E161F0654F4EC018C010E0F1F1F8991A4
:100CC0000E94BB04C017D107D1F7DF91CF911F91CC
:100CD0000F910895CF93DF93C82FD92F0E94CC0591
:100CE000E0910201F091030182E28083E091020130
:100CF000F09103011082E0910201F091030187E07D
:100D000080838FEA8C0FE0910201F09103018083D0
:100D1000E0910201F091030181E28083E091020100
:100D2000F091030180E78083E0910201F0910301DB
:100D30008FE7808380E192E00E944D06EAE6F2E0D0
:100D4000C083D1838C2F9D2F0E949E05DF91CF9170
:100D5000089584E090E00E943C09FC011182108219
:100D600013821282608171818281938108950E9431
:100D7000590581E090E00E946A0681E090E00E94BF
:100D80009E0583E192E00E944D0683E090E00E9480
:100D90009E0580E292E00E944D0684E090E00E9471
:100DA0009E0585E292E00E944D0685E090E00E945B
:100DB0009E058EE292E00E944D0680916A0290911B
:100DC0006B020E946A0608950E94590581E090E036
:100DD0000E949E0585E292E00E944D0683E090E02D
:100DE0000E949E058BE392E00E944D0684E090E015
:100DF0000E949E0586E492E00E944D0680916A0260
:100E000090916B020E946A0608950E94590581E044
:100E100090E00E949E058FE492E00E944D0683E0E0
:100E200090E00E949E0585E592E00E944D0684E0D8
:100E300090E00E949E0587E392E00E944D0680911B
:100E40006A0290916B020E946A0608950E947104E2
:100E5000899744F00E947104853F910534F480E045
:100E600090E0089581E090E0089582E090E0089598
:100E700080916C0290916D02892B59F580916A02E4
:100E800090916B02049799F40E942607029749F407
:100E90000E94E40682E090E090936D0280936C02E1
:100EA00018C080916C0290916D02892B91F4809111
:100EB0006A0290916B02059761F40E9426070297DF
:100EC00041F40E94050783E090E090936D028093C7
:100ED0006C020E942607019731F40E94B706109217
:100EE0006D0210926C0208958FB9779BFECF089522
:100EF0008FEF8FB9779BFECF8FB190E00895009769
:100F000019F0019719F00895C4980895C49A0895A6
:100F100080EB87BBBE9881E58DB981E090E00E94AF
:100F20007F070895CF93DF93C82F80E090E00E9461
:100F30007F0783E00E9474078C2F0E9474070E9431
:100F40007807EC0181E090E00E947F07CE01DF91FD
:100F5000CF910895CF93DF93D82FC62F80E090E0F4
:100F60000E947F0782E00E9474078D2F0E94740701
:100F70008C2F0E94740781E090E00E947F07DF9130
:100F8000CF91089580E090E00E947F0780EC0E945E
:100F9000740781E090E00E947F078FE493EC019753
:100FA000F1F700C0000008950E9488070E94C20760
:100FB0008EE090E00E94920799279F938F9388E597
:100FC00092E09F938F930E94100B0F900F900F90C1
:100FD0000F90089580E090E00E947F0780EA0E94D1
:100FE000740781E090E00E947F0780EA90E0089516
:100FF00081E090E00895CF93DF93EC0180E090E0F2
:101000000E947F07CE0163E070E00E941409009700
:1010100039F08130910531F0029731F484E805C050
:1010200081E803C082E801C081E80E94740781E082
:1010300090E00E947F07DF91CF9108951F93CF9397
:10104000DF93182FD62FC42F80E090E00E947F07F7
:1010500085E00E947407812F0E9474078D2F0E94E3
:1010600074078C2F0E94740781E090E00E947F0734
:10107000DF91CF911F910895AC0160EE70E08FE099
:1010800090E00E941E08089580E090E00E947F0793
:1010900041E050E061E070E08BE290E00E941E08C9
:1010A00041E050E064E070E08BE290E00E941E08B6
:1010B00040E050E061E070E08CE290E00E941E08A9
:1010C00040E050E064E070E08CE290E00E941E0896
:1010D00085B7826085BF8BB780648BBF8AB7806419
:1010E0008ABF80E090E00E943C0881E090E00E948E
:1010F0007F070895EF92FF920F931F93CF93DF9393
:101100007C01FC01608166956695669570E081E3DF
:1011100090E00E94AA07F7016081F0E26F9FB001A2
:10112000112482E390E00E94AA07F701618170E038
:1011300085E390E00E94AA07F70181818823A1F04E
:1011400087010E5F1F4FC0E0D0E0F80161918F0171
:1011500070E0CE01C6960E94AA072196F701218170
:1011600030E0C217D3078CF380E090E00E94FB07C9
:10117000DF91CF911F910F91FF90EF900895CF9243
:10118000DF92EF92FF920F931F93CF93DF937C0137
:1011900081E690E00E949207C82F82E690E00E94CC
:1011A000920796958795929582958F7089279F7063
:1011B0008927282F38E0C39F200D1124F7012083B1
:1011C00085E690E00E949207F7018183882319F158
:1011D00087010E5F1F4FC12CD12CC5E6D2E0C6019E
:1011E0008A599F4F0E949207F80181938F01992796
:1011F0009F938F93DF93CF930E94100B8FEFC81AAA
:10120000D80AF701818190E00F900F900F900F9016
:10121000C816D90624F3DF91CF911F910F91FF904B
:10122000EF90DF90CF90089597FB072E16F400946F
:1012300007D077FD09D00E94280907FC05D03EF4AD
:10124000909581959F4F0895709561957F4F089572
:10125000AA1BBB1B51E107C0AA1FBB1FA617B707DC
:1012600010F0A61BB70B881F991F5A95A9F78095F8
:101270009095BC01CD010895CF93DF938230910505
:1012800010F482E090E0E0917002F091710220E0B1
:1012900030E0C0E0D0E0309711F140815181481733
:1012A0005907C0F04817590761F48281938120974C
:1012B00019F09B838A832BC09093710280937002F4
:1012C00026C02115310519F04217530718F49A0169
:1012D000BE01DF01EF010280F381E02DDCCF21159B
:1012E000310509F1281B390B2430310590F4129691
:1012F0008D919C9113976115710521F0FB019383EA
:10130000828304C09093710280937002FD01329633
:1013100044C0FD01E20FF31F8193919322503109E4
:101320002D933C933AC020916E0230916F02232B93
:1013300041F4209106013091070130936F02209310
:101340006E0220910401309105012115310541F40F
:101350002DB73EB74091080150910901241B350B70
:10136000E0916E02F0916F02E217F307A0F42E1BDA
:101370003F0B2817390778F0AC014E5F5F4F2417F9
:10138000350748F04E0F5F1F50936F0240936E0277
:101390008193919302C0E0E0F0E0CF01DF91CF9123
:1013A00008950F931F93CF93DF93009709F48CC098
:1013B000FC01329713821282009170021091710227
:1013C0000115110581F420813181820F931F209135
:1013D0006E0230916F022817390779F5F0936F028A
:1013E000E0936E0271C0D80140E050E0AE17BF0735
:1013F00050F412962D913C911397AD0121153105B2
:1014000009F1D901F3CF9D01DA0133832283608191
:101410007181860F971F8217930769F4EC01288169
:101420003981260F371F2E5F3F4F318320838A81FA
:101430009B8193838283452B29F4F0937102E0937F
:10144000700242C01396FC93EE931297ED014991FE
:1014500059919E01240F351FE217F30771F4808123
:101460009181840F951F029611969C938E93828191
:10147000938113969C938E931297E0E0F0E0D8014D
:1014800012968D919C911397009719F0F8018C0199
:10149000F6CF8D919C9198012E5F3F4F820F931F45
:1014A00020916E0230916F022817390769F4309746
:1014B00029F4109271021092700202C013821282FB
:1014C00010936F0200936E02DF91CF911F910F91E5
:1014D00008958F929F92AF92BF92CF92DF92EF9238
:1014E000FF92CF93DF93EC01688179818A819B81A0
:1014F000611571058105910521F464E279ED8BE5B3
:1015000097E02DE133EF41E050E00E94F70D4901F3
:101510005A019B01AC01A7EAB1E40E94160E6B01CF
:101520007C01ACEEB4EFA50194010E94240EDC0115
:10153000CB018C0D9D1DAE1DBF1DB7FF03C00197D4
:10154000A109B04888839983AA83BB839F77DF91E1
:10155000CF91FF90EF90DF90CF90BF90AF909F9092
:101560008F9008950E94690A08958AE091E00E9490
:10157000690A0895A0E0B0E080930A0190930B01FE
:10158000A0930C01B0930D0108950F931F93CF9377
:10159000DF93009731F46115710519F480E090E054
:1015A0003AC08B01EC016EE070E081E090E00E94B7
:1015B000280DFC01892B91F380E883830115110527
:1015C00071F01387028781E8838380917202909182
:1015D0007302892B21F4F0937302E0937202209737
:1015E000C9F0D187C0878381826083838091740230
:1015F00090917502892B71F4F0937502E093740257
:101600008091760290917702892B21F4F0937702F2
:10161000E0937602CF01DF91CF911F910F91089552
:10162000A0E0B0E0E6E1FBE00C94390EAE014B5FC8
:101630005F4FFA0161917191AF01809174029091B5
:1016400075020E94560BE2E00C94550E0F931F9307
:10165000CF93DF93E0917402F0917502238121FF13
:101660001BC08C01D0E0C0E0F80181918F01609136
:10167000740270917502DB011896ED91FC91199737
:10168000882331F00995892B79F3DFEFCFEFECCF89
:101690008AE00995892B19F08FEF9FEF02C08D2FFB
:1016A0009C2FDF91CF911F910F910895ACE0B0E096
:1016B000ECE5FBE00C94290E7C016B018A01FC0136
:1016C00017821682838181FFBDC1CE0101964C0134
:1016D000F7019381F60193FD859193FF81916F014D
:1016E000882309F4ABC1853239F493FD859193FFCA
:1016F00081916F01853229F4B70190E00E94610D5C
:10170000E7CF512C312C20E02032A0F48B3269F04D
:1017100030F4803259F0833269F420612CC08D326C
:1017200039F0803339F4216026C02260246023C060
:10173000286021C027FD27C030ED380F3A3078F4FB
:1017400026FF06C0FAE05F9E300D1124532E13C011
:101750008AE0389E300D1124332E20620CC08E3268
:1017600021F426FD6BC1206406C08C3611F420687C
:1017700002C0883641F4F60193FD859193FF819173
:101780006F018111C1CF982F9F7D9554933028F41C
:101790000C5F1F4FFFE3F9830DC0833631F08337B1
:1017A00071F0833509F05BC022C0F8018081898324
:1017B0000E5F1F4F44244394512C540115C038012F
:1017C000F2E06F0E711CF801A080B18026FF03C00B
:1017D000652D70E002C06FEF7FEFC5012C870E947E
:1017E000560D2C0183012C852F77222E17C038012E
:1017F000F2E06F0E711CF801A080B18026FF03C0DB
:10180000652D70E002C06FEF7FEFC5012C870E944D
:10181000440D2C012C852068222E830123FC1BC043
:10182000832D90E048165906B0F4B70180E290E0AD
:101830000E94610D3A94F4CFF50127FC859127FEB3
:1018400081915F01B70190E00E94610D31103A94DF
:10185000F1E04F1A51084114510471F7E5C0843684
:1018600011F0893639F5F80127FF07C060817181D1
:10187000828193810C5F1F4F08C060817181072EA8
:10188000000C880B990B0E5F1F4F2F76722E97FF5F
:1018900009C090958095709561957F4F8F4F9F4FB0
:1018A0002068722E2AE030E0A4010E94990DA82E33
:1018B000A81844C0853729F42F7EB22E2AE030E0E4
:1018C00025C0F22FF97FBF2E8F36C1F018F488356E
:1018D00079F0B4C0803719F0883721F0AFC02F2FCE
:1018E0002061B22EB4FE0DC08B2D8460B82E09C0CD
:1018F00024FF0AC09F2F9660B92E06C028E030E072
:1019000005C020E130E002C020E132E0F801B7FE7E
:1019100007C060817181828193810C5F1F4F06C077
:101920006081718180E090E00E5F1F4FA4010E94F2
:10193000990DA82EA818FB2DFF777F2E76FE0BC0E1
:10194000372D3E7FA51450F474FE0AC072FC08C007
:10195000372D3E7E05C0BA2C372D03C0BA2C01C0EE
:10196000B52C34FF0DC0FE01EA0DF11D80818033DE
:1019700011F4397E09C032FF06C0B394B39404C099
:10198000832F867809F0B39433FD13C030FF06C06F
:101990005A2CB31418F4530C5B18B32CB31468F41A
:1019A000B70180E290E03C870E94610DB3943C85D2
:1019B000F5CFB31410F43B1801C0312C34FF12C022
:1019C000B70180E390E03C870E94610D3C8532FFC7
:1019D00017C031FD03C088E790E002C088E590E0C1
:1019E000B7010CC0832F867859F031FF02C08BE21B
:1019F00001C080E237FD8DE2B70190E00E94610DE9
:101A0000A51438F4B70180E390E00E94610D5A9468
:101A1000F7CFAA94F401EA0DF11D8081B70190E09F
:101A20000E94610DA110F5CF332009F451CEB7010A
:101A300080E290E00E94610D3A94F6CFF701868132
:101A4000978102C08FEF9FEF2C96E2E10C94450E38
:101A50000F931F93CF93DF93869F8001879F100D75
:101A6000969F100D1124C8010E943C09EC010097BB
:101A700029F0A80160E070E00E944F0DCE01DF91D7
:101A8000CF911F910F910895FC0105906150704016
:101A90000110D8F7809590958E0F9F1F0895DC0157
:101AA00001C06D9341505040E0F70895FC01615032
:101AB000704001900110D8F7809590958E0F9F1F70
:101AC00008950F931F93CF93DF93FB01238121FD93
:101AD00003C08FEF9FEF28C022FF16C046815781B9
:101AE000248135814217530744F4A081B1819D01BF
:101AF0002F5F3F4F318320838C93268137812F5F67
:101B00003F4F3783268310C0EB01092F182F008425
:101B1000F185E02D0995892BE1F68E819F81019653
:101B20009F838E83812F902FDF91CF911F910F91F3
:101B30000895FA01AA27283051F1203181F1E89463
:101B40006F936E7F6E5F7F4F8F4F9F4FAF4FB1E0B0
:101B50003ED0B4E03CD0670F781F891F9A1FA11DAB
:101B6000680F791F8A1F911DA11D6A0F711D811DAC
:101B7000911DA11D20D009F468943F912AE0269F71
:101B800011243019305D3193DEF6CF010895462FD0
:101B90004770405D4193B3E00FD0C9F7F6CF462FB1
:101BA0004F70405D4A3318F0495D31FD405241931A
:101BB00002D0A9F7EACFB4E0A695979587957795D7
:101BC0006795BA95C9F700976105710508959B015E
:101BD000AC010A2E06945795479537952795BA95E7
:101BE000C9F7620F731F841F951FA01D0895052E4E
:101BF00097FB1EF400940E940E0E57FD07D00E9422
:101C0000600E07FC03D04EF40C940E0E50954095D8
:101C1000309521953F4F4F4F5F4F08959095809598
:101C2000709561957F4F8F4F9F4F08950E94820E50
:101C3000A59F900DB49F900DA49F800D911D112420
:101C40000895B7FF0C94160E0E94160E821B930B7C
:101C500008952F923F924F925F926F927F928F9250
:101C60009F92AF92BF92CF92DF92EF92FF920F932B
:101C70001F93CF93DF93CDB7DEB7CA1BDB0B0FB635
:101C8000F894DEBF0FBECDBF09942A8839884888F2
:101C90005F846E847D848C849B84AA84B984C88488
:101CA000DF80EE80FD800C811B81AA81B981CE0F7F
:101CB000D11D0FB6F894DEBF0FBECDBFED01089564
:101CC000A1E21A2EAA1BBB1BFD010DC0AA1FBB1F40
:101CD000EE1FFF1FA217B307E407F50720F0A21BB2
:101CE000B30BE40BF50B661F771F881F991F1A941F
:101CF00069F760957095809590959B01AC01BD0149
:101D0000CF010895A29FB001B39FC001A39F700DA2
:101D1000811D1124911DB29F700D811D1124911DF3
:061D20000895F894FFCFC6
:101D2600001200100000780220000100000043416C
:101D36004E53544154206166746572207265736512
:101D4600743A2025640A0D005374617274696E67D3
:101D5600205352414D20746573742E2E2E005772F7
:101D6600697465207068617365206572726F723A76
:101D7600206578745F72616D5B2534645D203D205B
:101D860025303258202873686F756C642062652090
:101D960025303258290A0D005265747269657661DC
:101DA6006C207068617365206572726F723A206587
:101DB60078745F72616D5B2534645D203D2025304B
:101DC6003258202873686F756C6420626520253050
:101DD6003258290A0D005352414D20746573742000
:101DE600636F6D706C657465642077697468200A2A
:101DF600253464206572726F727320696E20777263
:101E060069746520706861736520616E64200A25B7
:101E16003464206572726F727320696E2072657405
:101E260072696576616C2070686173650A0A0D00D7
:101E36003C2D0057454C434F4D452043554E5400CD
:101E4600504C41590053455454494E4753004D5543
:101E5600534943204F4E2F4F46460042524947486A
:101E6600544E45535300464F4E5453495A45004D20
:101E760055534943004F4E0056616C2043414E5323
:0A1E86005441543A2025640A0D006F
:00000001FF
