:100000000C9438000C9455000C9455000C94550039
:100010000C9455000C9455000C9455000C9455000C
:100020000C9455000C9455000C9455000C945500FC
:100030000C9455000C9455000C9455000C945500EC
:100040000C9455000C9455000C9455000C945500DC
:100050000C9455000C9455000C9455000C945500CC
:100060000C9455000C9455000C9455000C945500BC
:1000700011241FBECFEFD4E0DEBFCDBF11E0A0E062
:10008000B1E0ECECF4E002C005900D92AC30B107A9
:10009000D9F721E0ACE0B1E001C01D92A631B20772
:1000A000E1F70E9457000C9464020C94000081E078
:1000B00087BB8FE190E00E947D000F2EF6E0EF2ECF
:1000C000F1E0FF2EF02D08E011E0CAE0D1E08E2D26
:1000D0000E947900802F0E9479008C2F0E94790065
:1000E00081E690E00E94D500F2CF5F9BFECF8CB1FD
:1000F00008955D9BFECF8CB9089590BD89B988E1C4
:100100008AB98EE880BD65E770E089E790E00E94DB
:100110008A0008950F931F93CF93DF93009731F4D4
:100120006115710519F480E090E03AC08B01EC0193
:100130006EE070E081E090E00E94DC00FC01892B21
:1001400091F380E883830115110571F0138702870D
:1001500081E8838380910C0190910D01892B21F41A
:10016000F0930D01E0930C012097C9F0D187C0876F
:1001700083818260838380910E0190910F01892B8E
:1001800071F4F0930F01E0930E01809110019091B2
:100190001101892B21F4F0931101E0931001CF019B
:1001A000DF91CF911F910F91089560910E01709191
:1001B0000F010E942C0208950F931F93CF93DF939A
:1001C000869F8001879F100D969F100D1124C801F6
:1001D0000E94F800EC01009729F0A80160E070E0AF
:1001E0000E942502CE01DF91CF911F910F910895BA
:1001F000CF93DF938230910510F482E090E0E0919C
:100200001401F091150120E030E0C0E0D0E030971B
:1002100011F14081518148175907C0F0481759071B
:1002200061F482819381209719F09B838A832BC08C
:10023000909315018093140126C02115310519F002
:100240004217530718F49A01BE01DF01EF01028043
:10025000F381E02DDCCF2115310509F1281B390B85
:100260002430310590F412968D919C91139761156D
:10027000710521F0FB019383828304C090931501E3
:1002800080931401FD01329644C0FD01E20FF31F7B
:1002900081939193225031092D933C933AC0209140
:1002A000120130911301232B41F42091020130916E
:1002B000030130931301209312012091000130912A
:1002C00001012115310541F42DB73EB740910401DC
:1002D00050910501241B350BE0911201F09113019F
:1002E000E217F307A0F42E1B3F0B2817390778F00D
:1002F000AC014E5F5F4F2417350748F04E0F5F1F6C
:1003000050931301409312018193919302C0E0E056
:10031000F0E0CF01DF91CF9108950F931F93CF931A
:10032000DF93009709F48CC0FC013297138212828C
:1003300000911401109115010115110581F420811E
:100340003181820F931F20911201309113012817E0
:10035000390779F5F0931301E093120171C0D801C8
:1003600040E050E0AE17BF0750F412962D913C913B
:100370001397AD012115310509F1D901F3CF9D0185
:10038000DA013383228360817181860F971F821780
:10039000930769F4EC0128813981260F371F2E5FFE
:1003A0003F4F318320838A819B8193838283452BB6
:1003B00029F4F0931501E093140142C01396FC93C5
:1003C000EE931297ED01499159919E01240F351F2B
:1003D000E217F30771F480819181840F951F0296D3
:1003E00011969C938E938281938113969C938E9306
:1003F0001297E0E0F0E0D80112968D919C9113974E
:10040000009719F0F8018C01F6CF8D919C9198011D
:100410002E5F3F4F820F931F2091120130911301E5
:100420002817390769F4309729F4109215011092B2
:10043000140102C01382128210931301009312015F
:10044000DF91CF911F910F910895DC0101C06D9351
:1004500041505040E0F708950F931F93CF93DF93DF
:10046000FB01238121FD03C08FEF9FEF28C022FFF6
:1004700016C046815781248135814217530744F4C1
:10048000A081B1819D012F5F3F4F318320838C93E9
:10049000268137812F5F3F4F3783268310C0EB01C2
:1004A000092F182F0084F185E02D0995892BE1F69D
:1004B0008E819F8101969F838E83812F902FDF9164
:0C04C000CF911F910F910895F894FFCF89
:0C04CC00000016012000610062007A00B0
:00000001FF
