:100000000C9438000C9455000C9455000C94550039
:100010000C9455000C9455000C9455000C9455000C
:100020000C9455000C9455000C9455000C945500FC
:100030000C9455000C9455000C9455000C945500EC
:100040000C9455000C9455000C9455000C945500DC
:100050000C9455000C9455000C9455000C945500CC
:100060000C9455000C9455000C9455000C945500BC
:1000700011241FBECFEFD4E0DEBFCDBF11E0A0E062
:10008000B1E0E6EAFCE002C005900D92A03FB107A6
:10009000D9F721E0A0EFB1E001C01D92AA3FB2075D
:1000A000E1F70E9457000C9451060C9400001BBA13
:1000B00080E885BF8FE190E00E946F000E947C0085
:1000C0000E947D008FEF8ABB87BB86B908955F9B36
:1000D000FECF8CB108955D9BFECF8CB9089590BD85
:1000E00089B988E18AB98EE880BD67E670E08BE661
:1000F00090E00E94580108950895CF92DF92EF9208
:10010000FF920F931F93CF93DF938AE091E00E94B9
:10011000B9010E944801C0E0D0E000E010E00F2EDD
:10012000F0E2EF2EF1E0FF2EF02D0E944801FE01DB
:10013000F85E808320812817A9F099279F938F93D9
:100140001F922F93DF93CF93FF92EF920E94A30110
:100150000F5F1F4F8DB79EB708960FB6F8949EBFDE
:100160000FBE8DBF2196C11598E0D907F1F6C0E00A
:10017000D0E0E12CF12C0F2EF9E5CF2EF1E0DF2EAF
:10018000F02D0E944801FE01F85E20812817B1F091
:1001900099279F938F931F922F93DF93CF93DF9293
:1001A000CF920E94A3018FEFE81AF80A8DB79EB78D
:1001B00008960FB6F8949EBF0FBE8DBF2196C1154D
:1001C00098E0D907F1F6FF92EF921F930F9386E91B
:1001D00091E09F938F930E94A3010F900F900F9037
:1001E0000F900F900F90DF91CF911F910F91FF9083
:1001F000EF90DF90CF9008958F929F92AF92BF9231
:10020000CF92DF92EF92FF92CF93DF93EC01688160
:1002100079818A819B81611571058105910521F4A0
:1002200064E279ED8BE597E02DE133EF41E050E0BA
:100230000E94B70549015A019B01AC01A7EAB1E44C
:100240000E94D6056B017C01ACEEB4EFA5019401D0
:100250000E94E405DC01CB018C0D9D1DAE1DBF1D70
:10026000B7FF03C00197A109B04888839983AA8387
:10027000BB839F77DF91CF91FF90EF90DF90CF907E
:10028000BF90AF909F908F9008950E94FC000895BA
:1002900080E091E00E94FC000895A0E0B0E080932F
:1002A000000190930101A0930201B093030108950E
:1002B0000F931F93CF93DF93009731F4611571056E
:1002C00019F480E090E03AC08B01EC016EE070E040
:1002D00081E090E00E94BB03FC01892B91F380E850
:1002E00083830115110571F01387028781E88383E9
:1002F0008091F0019091F101892B21F4F093F101AB
:10030000E093F0012097C9F0D187C0878381826094
:1003100083838091F2019091F301892B71F4F09322
:10032000F301E093F2018091F4019091F501892BA2
:1003300021F4F093F501E093F401CF01DF91CF9127
:100340001F910F910895A0E0B0E0E9EAF1E00C946C
:10035000F905AE014B5F5F4FFA0161917191AF01F9
:100360008091F2019091F3010E94E901E2E00C9486
:1003700015060F931F93CF93DF93E091F201F09155
:10038000F301238121FF1BC08C01D0E0C0E0F80104
:1003900081918F016091F2017091F301DB01189658
:1003A000ED91FC911997882331F00995892B79F308
:1003B000DFEFCFEFECCF8AE00995892B19F08FEFB3
:1003C0009FEF02C08D2F9C2FDF91CF911F910F9136
:1003D0000895ACE0B0E0EFEEF1E00C94E9057C01AB
:1003E0006B018A01FC0117821682838181FFBDC1E6
:1003F000CE0101964C01F7019381F60193FD8591A1
:1004000093FF81916F01882309F4ABC1853239F4E0
:1004100093FD859193FF81916F01853229F4B70196
:1004200090E00E942105E7CF512C312C20E02032B2
:10043000A0F48B3269F030F4803259F0833269F4E1
:1004400020612CC08D3239F0803339F4216026C010
:100450002260246023C0286021C027FD27C030ED22
:10046000380F3A3078F426FF06C0FAE05F9E300D70
:100470001124532E13C08AE0389E300D1124332EE0
:1004800020620CC08E3221F426FD6BC1206406C0B0
:100490008C3611F4206802C0883641F4F60193FDD1
:1004A000859193FF81916F018111C1CF982F9F7D1D
:1004B0009554933028F40C5F1F4FFFE3F9830DC070
:1004C000833631F0833771F0833509F05BC022C089
:1004D000F801808189830E5F1F4F44244394512C7F
:1004E000540115C03801F2E06F0E711CF801A080B4
:1004F000B18026FF03C0652D70E002C06FEF7FEF73
:10050000C5012C870E9416052C0183012C852F77AD
:10051000222E17C03801F2E06F0E711CF801A08086
:10052000B18026FF03C0652D70E002C06FEF7FEF42
:10053000C5012C870E9404052C012C852068222EE1
:10054000830123FC1BC0832D90E048165906B0F4AC
:10055000B70180E290E00E9421053A94F4CFF501C2
:1005600027FC859127FE81915F01B70190E00E94F1
:10057000210531103A94F1E04F1A51084114510409
:1005800071F7E5C0843611F0893639F5F80127FF97
:1005900007C060817181828193810C5F1F4F08C009
:1005A00060817181072E000C880B990B0E5F1F4F25
:1005B0002F76722E97FF09C0909580957095619562
:1005C0007F4F8F4F9F4F2068722E2AE030E0A401AA
:1005D0000E945905A82EA81844C0853729F42F7EFB
:1005E000B22E2AE030E025C0F22FF97FBF2E8F36E1
:1005F000C1F018F4883579F0B4C0803719F0883725
:1006000021F0AFC02F2F2061B22EB4FE0DC08B2D74
:100610008460B82E09C024FF0AC09F2F9660B92EAF
:1006200006C028E030E005C020E130E002C020E153
:1006300032E0F801B7FE07C0608171818281938149
:100640000C5F1F4F06C06081718180E090E00E5FFB
:100650001F4FA4010E945905A82EA818FB2DFF7753
:100660007F2E76FE0BC0372D3E7FA51450F474FE0E
:100670000AC072FC08C0372D3E7E05C0BA2C372D4B
:1006800003C0BA2C01C0B52C34FF0DC0FE01EA0D29
:10069000F11D8081803311F4397E09C032FF06C01C
:1006A000B394B39404C0832F867809F0B39433FDD8
:1006B00013C030FF06C05A2CB31418F4530C5B1847
:1006C000B32CB31468F4B70180E290E03C870E9439
:1006D0002105B3943C85F5CFB31410F43B1801C049
:1006E000312C34FF12C0B70180E390E03C870E94B8
:1006F00021053C8532FF17C031FD03C088E790E03B
:1007000002C088E590E0B7010CC0832F867859F0CD
:1007100031FF02C08BE201C080E237FD8DE2B701FC
:1007200090E00E942105A51438F4B70180E390E021
:100730000E9421055A94F7CFAA94F401EA0DF11D05
:100740008081B70190E00E942105A110F5CF3320F0
:1007500009F451CEB70180E290E00E9421053A945D
:10076000F6CFF7018681978102C08FEF9FEF2C961D
:10077000E2E10C9405060F931F93CF93DF93869FBE
:100780008001879F100D969F100D1124C8010E94B3
:10079000D703EC01009729F0A80160E070E00E9407
:1007A0000F05CE01DF91CF911F910F910895CF9347
:1007B000DF938230910510F482E090E0E091F8013F
:1007C000F091F90120E030E0C0E0D0E0309711F185
:1007D0004081518148175907C0F04817590761F403
:1007E00082819381209719F09B838A832BC09093F9
:1007F000F9018093F80126C02115310519F042173F
:10080000530718F49A01BE01DF01EF010280F38162
:10081000E02DDCCF2115310509F1281B390B2430DF
:10082000310590F412968D919C9113976115710585
:1008300021F0FB019383828304C09093F90180939C
:10084000F801FD01329644C0FD01E20FF31F8193D0
:100850009193225031092D933C933AC02091F60197
:100860003091F701232B41F42091060130910701CB
:100870003093F7012093F601209104013091050196
:100880002115310541F42DB73EB740910801509133
:100890000901241B350BE091F601F091F701E217F5
:1008A000F307A0F42E1B3F0B2817390778F0AC0193
:1008B0004E5F5F4F2417350748F04E0F5F1F509370
:1008C000F7014093F6018193919302C0E0E0F0E0DC
:1008D000CF01DF91CF9108950F931F93CF93DF93B3
:1008E000009709F48CC0FC013297138212820091A8
:1008F000F8011091F9010115110581F42081318170
:10090000820F931F2091F6013091F70128173907C4
:1009100079F5F093F701E093F60171C0D80140E05A
:1009200050E0AE17BF0750F412962D913C911397EB
:10093000AD012115310509F1D901F3CF9D01DA018E
:100940003383228360817181860F971F82179307FB
:1009500069F4EC0128813981260F371F2E5F3F4F44
:10096000318320838A819B8193838283452B29F461
:10097000F093F901E093F80142C01396FC93EE93D3
:100980001297ED01499159919E01240F351FE217ED
:10099000F30771F480819181840F951F029611965F
:1009A0009C938E938281938113969C938E9312973E
:1009B000E0E0F0E0D80112968D919C91139700979A
:1009C00019F0F8018C01F6CF8D919C9198012E5F62
:1009D0003F4F820F931F2091F6013091F7012817A6
:1009E000390769F4309729F41092F9011092F8014F
:1009F00002C0138212821093F7010093F601DF9177
:100A0000CF911F910F910895FC01059061507040A6
:100A10000110D8F7809590958E0F9F1F0895DC01E7
:100A200001C06D9341505040E0F70895FC016150C2
:100A3000704001900110D8F7809590958E0F9F1F00
:100A400008950F931F93CF93DF93FB01238121FD23
:100A500003C08FEF9FEF28C022FF16C04681578149
:100A6000248135814217530744F4A081B1819D014F
:100A70002F5F3F4F318320838C93268137812F5FF7
:100A80003F4F3783268310C0EB01092F182F0084B6
:100A9000F185E02D0995892BE1F68E819F810196E4
:100AA0009F838E83812F902FDF91CF911F910F9184
:100AB0000895FA01AA27283051F1203181F1E894F4
:100AC0006F936E7F6E5F7F4F8F4F9F4FAF4FB1E041
:100AD0003ED0B4E03CD0670F781F891F9A1FA11D3C
:100AE000680F791F8A1F911DA11D6A0F711D811D3D
:100AF000911DA11D20D009F468943F912AE0269F02
:100B000011243019305D3193DEF6CF010895462F60
:100B10004770405D4193B3E00FD0C9F7F6CF462F41
:100B20004F70405D4A3318F0495D31FD40524193AA
:100B300002D0A9F7EACFB4E0A69597958795779567
:100B40006795BA95C9F700976105710508959B01EE
:100B5000AC010A2E06945795479537952795BA9577
:100B6000C9F7620F731F841F951FA01D0895052EDE
:100B700097FB1EF400940E94CE0557FD07D00E94FB
:100B8000200607FC03D04EF40C94CE0550954095FA
:100B9000309521953F4F4F4F5F4F08959095809529
:100BA000709561957F4F8F4F9F4F08950E94420629
:100BB000A59F900DB49F900DA49F800D911D1124B1
:100BC0000895B7FF0C94D6050E94D605821B930B9F
:100BD00008952F923F924F925F926F927F928F92E1
:100BE0009F92AF92BF92CF92DF92EF92FF920F93BC
:100BF0001F93CF93DF93CDB7DEB7CA1BDB0B0FB6C6
:100C0000F894DEBF0FBECDBF09942A883988488882
:100C10005F846E847D848C849B84AA84B984C88418
:100C2000DF80EE80FD800C811B81AA81B981CE0F0F
:100C3000D11D0FB6F894DEBF0FBECDBFED010895F4
:100C4000A1E21A2EAA1BBB1BFD010DC0AA1FBB1FD0
:100C5000EE1FFF1FA217B307E407F50720F0A21B42
:100C6000B30BE40BF50B661F771F881F991F1A94AF
:100C700069F760957095809590959B01AC01BD01D9
:100C8000CF010895A29FB001B39FC001A39F700D33
:100C9000811D1124911DB29F700D811D1124911D84
:060CA0000895F894FFCF57
:100CA600010000000000FA012000537461727469AB
:100CB6006E67205352414D20746573742E2E2E009C
:100CC6005772697465207068617365206572726F0A
:100CD600723A206578745F72616D5B2534645D20BD
:100CE6003D2025303258202873686F756C64206269
:100CF600652025303258290A005265747269657676
:100D0600616C207068617365206572726F723A203B
:100D16006578745F72616D5B2534645D203D2025C6
:100D2600303258202873686F756C64206265202500
:100D3600303258290A005352414D2074657374208D
:100D4600636F6D706C657465642077697468200ADA
:100D5600253464206572726F727320696E20777213
:100D660069746520706861736520616E64200A2568
:100D76003464206572726F727320696E20726574B6
:100D860072696576616C2070686173650A0A000095
:00000001FF
