:100000000C9438000C9455000C9455000C94550039
:100010000C9455000C9455000C9455000C9455000C
:100020000C9455000C9455000C9455000C945500FC
:100030000C9455000C9455000C9455000C945500EC
:100040000C9455000C9455000C9455000C945500DC
:100050000C9455000C9455000C9455000C945500CC
:100060000C9455000C9455000C9455000C945500BC
:1000700011241FBECFEFD4E0DEBFCDBF11E0A0E062
:10008000B1E0ECE9FCE002C005900D92A23FB1079F
:10009000D9F721E0A2EFB1E001C01D92AC3FB20759
:1000A000E1F70E9457000C944C060C94000080E885
:1000B00085BF80E280BF8FE190E00E946A000E94CD
:1000C000780008955F9BFECF8CB108955D9BFECFB5
:1000D0008CB9089590BD89B988E18AB98EE880BD50
:1000E00062E670E086E690E00E945301089508956C
:1000F000CF92DF92EF92FF920F931F93CF93DF93F4
:100100008AE091E00E94B4010E944301C0E0D0E087
:1001100000E010E00F2EF0E2EF2EF1E0FF2EF02DC8
:100120000E944301FE01F85E808320812817A9F018
:1001300099279F938F931F922F93DF93CF93FF92D3
:10014000EF920E949E010F5F1F4F8DB79EB70896DA
:100150000FB6F8949EBF0FBE8DBF2196C11598E1D2
:10016000D907F1F6C0E0D0E0E12CF12C0F2EFAE532
:10017000CF2EF1E0DF2EF02D0E944301FE01F85E4C
:1001800020812817B1F099279F938F931F922F9367
:10019000DF93CF93DF92CF920E949E018FEFE81AF8
:1001A000F80A8DB79EB708960FB6F8949EBF0FBE9B
:1001B0008DBF2196C11598E1D907F1F6FF92EF9214
:1001C0001F930F9388E991E09F938F930E949E0164
:1001D0000F900F900F900F900F900F90DF91CF9195
:1001E0001F910F91FF90EF90DF90CF9008958F9225
:1001F0009F92AF92BF92CF92DF92EF92FF92CF93F6
:10020000DF93EC01688179818A819B816115710599
:100210008105910521F464E279ED8BE597E02DE10C
:1002200033EF41E050E00E94B20549015A019B01C1
:10023000AC01A7EAB1E40E94D1056B017C01ACEEF0
:10024000B4EFA50194010E94DF05DC01CB018C0D08
:100250009D1DAE1DBF1DB7FF03C00197A109B0488A
:1002600088839983AA83BB839F77DF91CF91FF9087
:10027000EF90DF90CF90BF90AF909F908F900895B8
:100280000E94F700089580E091E00E94F700089531
:10029000A0E0B0E08093000190930101A0930201DF
:1002A000B093030108950F931F93CF93DF930097AB
:1002B00031F46115710519F480E090E03AC08B01CA
:1002C000EC016EE070E081E090E00E94B603FC017A
:1002D000892B91F380E883830115110571F0138751
:1002E000028781E883838091F2019091F301892B49
:1002F00021F4F093F301E093F2012097C9F0D18744
:10030000C0878381826083838091F4019091F5019D
:10031000892B71F4F093F501E093F4018091F601DB
:100320009091F701892B21F4F093F701E093F60106
:10033000CF01DF91CF911F910F910895A0E0B0E020
:10034000E4EAF1E00C94F405AE014B5F5F4FFA0173
:1003500061917191AF018091F4019091F5010E943A
:10036000E401E2E00C9410060F931F93CF93DF9308
:10037000E091F401F091F501238121FF1BC08C0174
:10038000D0E0C0E0F80181918F016091F40170919B
:10039000F501DB011896ED91FC911997882331F056
:1003A0000995892B79F3DFEFCFEFECCF8AE0099540
:1003B000892B19F08FEF9FEF02C08D2F9C2FDF91BB
:1003C000CF911F910F910895ACE0B0E0EAEEF1E01B
:1003D0000C94E4057C016B018A01FC0117821682F2
:1003E000838181FFBDC1CE0101964C01F70193814C
:1003F000F60193FD859193FF81916F01882309F4A4
:10040000ABC1853239F493FD859193FF81916F01E2
:10041000853229F4B70190E00E941C05E7CF512CEA
:10042000312C20E02032A0F48B3269F030F480329D
:1004300059F0833269F420612CC08D3239F0803359
:1004400039F4216026C02260246023C0286021C0C6
:1004500027FD27C030ED380F3A3078F426FF06C06C
:10046000FAE05F9E300D1124532E13C08AE0389EAF
:10047000300D1124332E20620CC08E3221F426FD63
:100480006BC1206406C08C3611F4206802C0883627
:1004900041F4F60193FD859193FF81916F018111E4
:1004A000C1CF982F9F7D9554933028F40C5F1F4F38
:1004B000FFE3F9830DC0833631F0833771F0833564
:1004C00009F05BC022C0F801808189830E5F1F4F55
:1004D00044244394512C540115C03801F2E06F0EAE
:1004E000711CF801A080B18026FF03C0652D70E06B
:1004F00002C06FEF7FEFC5012C870E9411052C0110
:1005000083012C852F77222E17C03801F2E06F0E61
:10051000711CF801A080B18026FF03C0652D70E03A
:1005200002C06FEF7FEFC5012C870E94FF042C01F2
:100530002C852068222E830123FC1BC0832D90E094
:1005400048165906B0F4B70180E290E00E941C05FD
:100550003A94F4CFF50127FC859127FE81915F0144
:10056000B70190E00E941C0531103A94F1E04F1A57
:1005700051084114510471F7E5C0843611F08936F1
:1005800039F5F80127FF07C060817181828193816D
:100590000C5F1F4F08C060817181072E000C880B13
:1005A000990B0E5F1F4F2F76722E97FF09C0909503
:1005B0008095709561957F4F8F4F9F4F2068722E69
:1005C0002AE030E0A4010E945405A82EA81844C0D7
:1005D000853729F42F7EB22E2AE030E025C0F22F95
:1005E000F97FBF2E8F36C1F018F4883579F0B4C08A
:1005F000803719F0883721F0AFC02F2F2061B22E3D
:10060000B4FE0DC08B2D8460B82E09C024FF0AC033
:100610009F2F9660B92E06C028E030E005C020E18B
:1006200030E002C020E132E0F801B7FE07C060818F
:100630007181828193810C5F1F4F06C0608171813F
:1006400080E090E00E5F1F4FA4010E945405A82E89
:10065000A818FB2DFF777F2E76FE0BC0372D3E7F2F
:10066000A51450F474FE0AC072FC08C0372D3E7EFB
:1006700005C0BA2C372D03C0BA2C01C0B52C34FFED
:100680000DC0FE01EA0DF11D8081803311F4397E29
:1006900009C032FF06C0B394B39404C0832F867898
:1006A00009F0B39433FD13C030FF06C05A2CB314C5
:1006B00018F4530C5B18B32CB31468F4B70180E240
:1006C00090E03C870E941C05B3943C85F5CFB314A1
:1006D00010F43B1801C0312C34FF12C0B70180E385
:1006E00090E03C870E941C053C8532FF17C031FD1D
:1006F00003C088E790E002C088E590E0B7010CC035
:10070000832F867859F031FF02C08BE201C080E26E
:1007100037FD8DE2B70190E00E941C05A51438F466
:10072000B70180E390E00E941C055A94F7CFAA9489
:10073000F401EA0DF11D8081B70190E00E941C05D3
:10074000A110F5CF332009F451CEB70180E290E03B
:100750000E941C053A94F6CFF7018681978102C06A
:100760008FEF9FEF2C96E2E10C9400060F931F93FE
:10077000CF93DF93869F8001879F100D969F100D6A
:100780001124C8010E94D203EC01009729F0A801AE
:1007900060E070E00E940A05CE01DF91CF911F91C9
:1007A0000F910895CF93DF938230910510F482E08A
:1007B00090E0E091FA01F091FB0120E030E0C0E030
:1007C000D0E0309711F14081518148175907C0F0AE
:1007D0004817590761F482819381209719F09B8310
:1007E0008A832BC09093FB018093FA0126C02115C8
:1007F000310519F04217530718F49A01BE01DF01C1
:10080000EF010280F381E02DDCCF2115310509F1E4
:10081000281B390B2430310590F412968D919C9150
:1008200013976115710521F0FB019383828304C046
:100830009093FB018093FA01FD01329644C0FD01C3
:10084000E20FF31F81939193225031092D933C9332
:100850003AC02091F8013091F901232B41F4209105
:100860000601309107013093F9012093F80120919E
:100870000401309105012115310541F42DB73EB732
:100880004091080150910901241B350BE091F801BA
:10089000F091F901E217F307A0F42E1B3F0B281784
:1008A000390778F0AC014E5F5F4F2417350748F0E9
:1008B0004E0F5F1F5093F9014093F801819391937C
:1008C00002C0E0E0F0E0CF01DF91CF9108950F93F7
:1008D0001F93CF93DF93009709F48CC0FC013297EC
:1008E000138212820091FA011091FB01011511058A
:1008F00081F420813181820F931F2091F801309182
:10090000F9012817390779F5F093F901E093F80117
:1009100071C0D80140E050E0AE17BF0750F4129606
:100920002D913C911397AD012115310509F1D901A4
:10093000F3CF9D01DA013383228360817181860FB9
:10094000971F8217930769F4EC0128813981260FDC
:10095000371F2E5F3F4F318320838A819B81938392
:100960008283452B29F4F093FB01E093FA0142C006
:100970001396FC93EE931297ED01499159919E01C4
:10098000240F351FE217F30771F480819181840FE2
:10099000951F029611969C938E9382819381139654
:1009A0009C938E931297E0E0F0E0D80112968D911F
:1009B0009C911397009719F0F8018C01F6CF8D9157
:1009C0009C9198012E5F3F4F820F931F2091F80159
:1009D0003091F9012817390769F4309729F41092FA
:1009E000FB011092FA0102C0138212821093F901E6
:1009F0000093F801DF91CF911F910F910895FC01B1
:100A00000590615070400110D8F7809590958E0F39
:100A10009F1F0895DC0101C06D9341505040E0F7E5
:100A20000895FC016150704001900110D8F7809545
:100A300090958E0F9F1F08950F931F93CF93DF9371
:100A4000FB01238121FD03C08FEF9FEF28C022FF10
:100A500016C046815781248135814217530744F4DB
:100A6000A081B1819D012F5F3F4F318320838C9303
:100A7000268137812F5F3F4F3783268310C0EB01DC
:100A8000092F182F0084F185E02D0995892BE1F6B7
:100A90008E819F8101969F838E83812F902FDF917E
:100AA000CF911F910F910895FA01AA27283051F193
:100AB000203181F1E8946F936E7F6E5F7F4F8F4F8F
:100AC0009F4FAF4FB1E03ED0B4E03CD0670F781FEE
:100AD000891F9A1FA11D680F791F8A1F911DA11DD3
:100AE0006A0F711D811D911DA11D20D009F468940C
:100AF0003F912AE0269F11243019305D3193DEF6B4
:100B0000CF010895462F4770405D4193B3E00FD069
:100B1000C9F7F6CF462F4F70405D4A3318F0495D54
:100B200031FD4052419302D0A9F7EACFB4E0A69537
:100B30009795879577956795BA95C9F70097610559
:100B4000710508959B01AC010A2E069457954795AF
:100B500037952795BA95C9F7620F731F841F951FA4
:100B6000A01D0895052E97FB1EF400940E94C90550
:100B700057FD07D00E941B0607FC03D04EF40C94CF
:100B8000C90550954095309521953F4F4F4F5F4F88
:100B9000089590958095709561957F4F8F4F9F4FE9
:100BA00008950E943D06A59F900DB49F900DA49FAF
:100BB000800D911D11240895B7FF0C94D1050E945A
:100BC000D105821B930B08952F923F924F925F9213
:100BD0006F927F928F929F92AF92BF92CF92DF924D
:100BE000EF92FF920F931F93CF93DF93CDB7DEB7B2
:100BF000CA1BDB0B0FB6F894DEBF0FBECDBF099446
:100C00002A88398848885F846E847D848C849B849C
:100C1000AA84B984C884DF80EE80FD800C811B81AA
:100C2000AA81B981CE0FD11D0FB6F894DEBF0FBED9
:100C3000CDBFED010895A1E21A2EAA1BBB1BFD0139
:100C40000DC0AA1FBB1FEE1FFF1FA217B307E407AB
:100C5000F50720F0A21BB30BE40BF50B661F771F03
:100C6000881F991F1A9469F76095709580959095E3
:100C70009B01AC01BD01CF010895A29FB001B39FBC
:100C8000C001A39F700D811D1124911DB29F700D95
:0C0C9000811D1124911D0895F894FFCFE0
:100C9C00010000000000FC012000537461727469B3
:100CAC006E67205352414D20746573742E2E2E00A6
:100CBC005772697465207068617365206572726F14
:100CCC00723A206578745F72616D5B2534645D20C7
:100CDC003D2025303258202873686F756C64206273
:100CEC00652025303258290A0D00526574726965E9
:100CFC0076616C207068617365206572726F723AF0
:100D0C00206578745F72616D5B2534645D203D20D5
:100D1C0025303258202873686F756C64206265200A
:100D2C0025303258290A0D005352414D20746573F9
:100D3C007420636F6D706C6574656420776974687A
:100D4C00200A253464206572726F727320696E20DC
:100D5C00777269746520706861736520616E6420B8
:100D6C000A253464206572726F727320696E20726A
:100D7C00657472696576616C2070686173650A0AC6
:020D8C000D0058
:00000001FF
