:100000000C9438000C9455000C9455000C94550039
:100010000C9455000C9455000C9455000C9455000C
:100020000C9455000C9455000C9455000C945500FC
:100030000C9455000C9455000C9455000C945500EC
:100040000C9455000C9455000C9455000C945500DC
:100050000C9455000C9455000C9455000C945500CC
:100060000C9455000C9455000C9455000C945500BC
:1000700011241FBECFEFD4E0DEBFCDBF11E0A0E062
:10008000B1E0E8E0FEE002C005900D92A437B107B0
:10009000D9F721E0A4E7B1E001C01D92AE37B20765
:1000A000E1F70E9457000C9402070C940000CF93D4
:1000B000DF93CDB7DEB72A970FB6F894DEBF0FBE39
:1000C000CDBF1FEF1ABB17BB16B98FE190E00E949E
:1000D000C70011BA12BB80E885BF80E280BF0E94D2
:1000E00034010E94A4018EE090E00E94F2009F93F0
:1000F0008F9386E091E09F938F930E94E7020F9089
:100100000F900F900F906894992492F80F2EF0E2C0
:10011000AF2EF1E0BF2EF02D0F2EF3E3CF2EF1E046
:10012000DF2EF02D0F2EF5E4EF2EF1E0FF2EF02D57
:1001300009E511E01F929F92BF92AF920E94E702E1
:10014000CE0101960E941F028E811F928F93DF9233
:10015000CF920E94E7028A811F928F93FF92EF92C3
:100160000E94E70289811F928F931F930F930E9431
:10017000E7020FB6F894DEBF0FBECDBFDBCF5F9BAB
:10018000FECF8CB108955D9BFECF8CB9089590BDD4
:1001900089B988E18AB98EE880BD6FEB70E083ECA5
:1001A00090E00E949C0208958FB9779BFECF08953E
:1001B0008FEF8FB9779BFECF8FB190E008950097B6
:1001C00019F0019719F00895C4980895C49A0895F4
:1001D00080EB87BBBE9881E58DB981E090E00E94FD
:1001E000DF000895CF93DF93C82F80E090E00E9456
:1001F000DF0083E00E94D4008C2F0E94D4000E9474
:10020000D800EC0181E090E00E94DF00CE01DF9198
:10021000CF910895CF93DF93D82FC62F80E090E041
:100220000E94DF0082E00E94D4008D2F0E94D40043
:100230008C2F0E94D40081E090E00E94DF00DF91CB
:10024000CF91089580E090E00E94DF0080EC0E9452
:10025000D40081E090E00E94DF008FE493EC0197EE
:10026000F1F700C0000008950E94E8000E942201FA
:100270008EE090E00E94F20099279F938F9381E691
:1002800091E09F938F930E94E7020F900F900F9041
:100290000F90089580E090E00E94DF0080EA0E94C5
:1002A000D40081E090E00E94DF0080EA90E00895B1
:1002B00081E090E00895CF93DF93EC0180E090E03F
:1002C0000E94DF00CE0163E070E00E94740200979C
:1002D00039F08130910531F0029731F484E805C09E
:1002E00081E803C082E801C081E80E94D40081E077
:1002F00090E00E94DF00DF91CF9108951F93CF938C
:10030000DF93182FD62FC42F80E090E00E94DF00EB
:1003100085E00E94D400812F0E94D4008D2F0E947E
:10032000D4008C2F0E94D40081E090E00E94DF0076
:10033000DF91CF911F910895AC0160EE70E08FE0E6
:1003400090E00E947E01089580E090E00E94DF002E
:1003500041E050E061E070E08BE290E00E947E01BD
:1003600041E050E064E070E08BE290E00E947E01AA
:1003700040E050E061E070E08CE290E00E947E019D
:1003800040E050E064E070E08CE290E00E947E018A
:1003900085B7826085BF8BB780648BBF8AB7806466
:1003A0008ABF80E490E00E949C0181E090E00E947E
:1003B000DF000895EF92FF920F931F93CF93DF9387
:1003C0007C01FC01608166956695669570E081E32D
:1003D00090E00E940A01F7016081F0E26F9FB00196
:1003E000112482E390E00E940A01F701618170E02C
:1003F00085E390E00E940A01F70181818823A1F042
:1004000087010E5F1F4FC0E0D0E0F80161918F01BE
:1004100070E0CE01C6960E940A012196F701218163
:1004200030E0C217D3078CF380E090E00E945B01BC
:10043000DF91CF911F910F91FF90EF900895CF9290
:10044000DF92EF92FF920F931F93CF93DF937C0184
:1004500081E690E00E94F200C82F82E690E00E94C0
:10046000F20096958795929582958F7089279F7057
:100470008927282F38E0C39F200D1124F7012083FE
:1004800085E690E00E94F200F7018183882319F14C
:1004900087010E5F1F4FC12CD12CCEE6D1E0C601E3
:1004A0008A599F4F0E94F200F80181938F0199278A
:1004B0009F938F93DF93CF930E94E7028FEFC81A29
:1004C000D80AF701818190E00F900F900F900F9064
:1004D000C816D90624F3DF91CF911F910F91FF9099
:1004E000EF90DF90CF90089597FB072E16F40094BD
:1004F00007D077FD09D00E94880207FC05D03EF4A2
:10050000909581959F4F0895709561957F4F0895BF
:10051000AA1BBB1B51E107C0AA1FBB1FA617B70729
:1005200010F0A61BB70B881F991F5A95A9F7809545
:100530009095BC01CD0108950F931F93CF93DF9346
:10054000009731F46115710519F480E090E03AC02C
:100550008B01EC016EE070E081E090E00E94CF043E
:10056000FC01892B91F380E883830115110571F05B
:100570001387028781E883838091740190917501CC
:10058000892B21F4F0937501E09374012097C9F051
:10059000D187C08783818260838380917601909127
:1005A0007701892B71F4F0937701E09376018091C4
:1005B000780190917901892B21F4F0937901E093EE
:1005C0007801CF01DF91CF911F910F910895A0E0A5
:1005D000B0E0EDEEF2E00C94DB06AE014B5F5F4F56
:1005E000FA0161917191AF0180917601909177014B
:1005F0000E94FD02E2E00C94F706ACE0B0E0E3E01C
:10060000F3E00C94CB067C016B018A01FC0117829C
:100610001682838181FFBDC1CE0101964C01F70195
:100620009381F60193FD859193FF81916F0188235A
:1006300009F4ABC1853239F493FD859193FF819123
:100640006F01853229F4B70190E00E943506E7CFAB
:10065000512C312C20E02032A0F48B3269F030F4A0
:10066000803259F0833269F420612CC08D3239F028
:10067000803339F4216026C02260246023C02860C2
:1006800021C027FD27C030ED380F3A3078F426FF1F
:1006900006C0FAE05F9E300D1124532E13C08AE08D
:1006A000389E300D1124332E20620CC08E3221F47E
:1006B00026FD6BC1206406C08C3611F4206802C090
:1006C000883641F4F60193FD859193FF81916F0186
:1006D0008111C1CF982F9F7D9554933028F40C5FE2
:1006E0001F4FFFE3F9830DC0833631F0833771F07C
:1006F000833509F05BC022C0F801808189830E5FD9
:100700001F4F44244394512C540115C03801F2E08A
:100710006F0E711CF801A080B18026FF03C0652D0B
:1007200070E002C06FEF7FEFC5012C870E942A06A0
:100730002C0183012C852F77222E17C03801F2E07F
:100740006F0E711CF801A080B18026FF03C0652DDB
:1007500070E002C06FEF7FEFC5012C870E94180682
:100760002C012C852068222E830123FC1BC0832DA5
:1007700090E048165906B0F4B70180E290E00E947C
:1007800035063A94F4CFF50127FC859127FE819137
:100790005F01B70190E00E94350631103A94F1E014
:1007A0004F1A51084114510471F7E5C0843611F015
:1007B000893639F5F80127FF07C060817181828190
:1007C00093810C5F1F4F08C060817181072E000C60
:1007D000880B990B0E5F1F4F2F76722E97FF09C063
:1007E00090958095709561957F4F8F4F9F4F2068B2
:1007F000722E2AE030E0A4010E946D06A82EA818EF
:1008000044C0853729F42F7EB22E2AE030E025C07F
:10081000F22FF97FBF2E8F36C1F018F4883579F0AA
:10082000B4C0803719F0883721F0AFC02F2F206176
:10083000B22EB4FE0DC08B2D8460B82E09C024FFEB
:100840000AC09F2F9660B92E06C028E030E005C090
:1008500020E130E002C020E132E0F801B7FE07C03D
:1008600060817181828193810C5F1F4F06C060811E
:10087000718180E090E00E5F1F4FA4010E946D0621
:10088000A82EA818FB2DFF777F2E76FE0BC0372DE4
:100890003E7FA51450F474FE0AC072FC08C0372DC8
:1008A0003E7E05C0BA2C372D03C0BA2C01C0B52C32
:1008B00034FF0DC0FE01EA0DF11D8081803311F47B
:1008C000397E09C032FF06C0B394B39404C0832FAD
:1008D000867809F0B39433FD13C030FF06C05A2C5C
:1008E000B31418F4530C5B18B32CB31468F4B701A9
:1008F00080E290E03C870E943506B3943C85F5CFBA
:10090000B31410F43B1801C0312C34FF12C0B701EE
:1009100080E390E03C870E9435063C8532FF17C09B
:1009200031FD03C088E790E002C088E590E0B701A0
:100930000CC0832F867859F031FF02C08BE201C0D2
:1009400080E237FD8DE2B70190E00E943506A514E4
:1009500038F4B70180E390E00E9435065A94F7CF4F
:10096000AA94F401EA0DF11D8081B70190E00E9484
:100970003506A110F5CF332009F451CEB70180E23E
:1009800090E00E9435063A94F6CFF7018681978170
:1009900002C08FEF9FEF2C96E2E10C94E7060F93D5
:1009A0001F93CF93DF93869F8001879F100D969FA3
:1009B000100D1124C8010E94EB04EC01009729F0EE
:1009C000A80160E070E00E942306CE01DF91CF9184
:1009D0001F910F910895CF93DF938230910510F40A
:1009E00082E090E0E0917C01F0917D0120E030E038
:1009F000C0E0D0E0309711F140815181481759078C
:100A0000C0F04817590761F482819381209719F04B
:100A10009B838A832BC090937D0180937C0126C0A9
:100A20002115310519F04217530718F49A01BE0138
:100A3000DF01EF010280F381E02DDCCF21153105CC
:100A400009F1281B390B2430310590F412968D9151
:100A50009C9113976115710521F0FB0193838283AB
:100A600004C090937D0180937C01FD01329644C0C7
:100A7000FD01E20FF31F81939193225031092D93D1
:100A80003C933AC020917A0130917B01232B41F4B1
:100A9000209102013091030130937B0120937A0170
:100AA00020910001309101012115310541F42DB74C
:100AB0003EB74091040150910501241B350BE09194
:100AC0007A01F0917B01E217F307A0F42E1B3F0B94
:100AD0002817390778F0AC014E5F5F4F24173507B0
:100AE00048F04E0F5F1F50937B0140937A01819332
:100AF000919302C0E0E0F0E0CF01DF91CF91089543
:100B00000F931F93CF93DF93009709F48CC0FC01E0
:100B100032971382128200917C0110917D010115A0
:100B2000110581F420813181820F931F20917A0178
:100B300030917B012817390779F5F0937B01E09319
:100B40007A0171C0D80140E050E0AE17BF0750F401
:100B500012962D913C911397AD012115310509F1A4
:100B6000D901F3CF9D01DA01338322836081718142
:100B7000860F971F8217930769F4EC01288139814A
:100B8000260F371F2E5F3F4F318320838A819B8141
:100B900093838283452B29F4F0937D01E0937C01BC
:100BA00042C01396FC93EE931297ED01499159912F
:100BB0009E01240F351FE217F30771F480819181A4
:100BC000840F951F029611969C938E938281938138
:100BD00013969C938E931297E0E0F0E0D801129662
:100BE0008D919C911397009719F0F8018C01F6CF25
:100BF0008D919C9198012E5F3F4F820F931F209102
:100C00007A0130917B012817390769F4309729F46C
:100C100010927D0110927C0102C013821282109307
:100C20007B0100937A01DF91CF911F910F9108957D
:100C3000FC010590615070400110D8F780959095A7
:100C40008E0F9F1F0895DC0101C06D9341505040ED
:100C5000E0F70895FC016150704001900110D8F751
:100C6000809590958E0F9F1F08950F931F93CF939C
:100C7000DF93FB01238121FD03C08FEF9FEF28C08D
:100C800022FF16C0468157812481358142175307C0
:100C900044F4A081B1819D012F5F3F4F31832083B8
:100CA0008C93268137812F5F3F4F3783268310C077
:100CB000EB01092F182F0084F185E02D0995892B70
:100CC000E1F68E819F8101969F838E83812F902FE5
:100CD000DF91CF911F910F910895FA01AA27283033
:100CE00051F1203181F1E8946F936E7F6E5F7F4FF9
:100CF0008F4F9F4FAF4FB1E03ED0B4E03CD0670F75
:100D0000781F891F9A1FA11D680F791F8A1F911DC7
:100D1000A11D6A0F711D811D911DA11D20D009F417
:100D200068943F912AE0269F11243019305D319359
:100D3000DEF6CF010895462F4770405D4193B3E042
:100D40000FD0C9F7F6CF462F4F70405D4A3318F0E9
:100D5000495D31FD4052419302D0A9F7EACFB4E09A
:100D6000A6959795879577956795BA95C9F7009752
:100D70006105710508959B01AC010A2E06945795F3
:100D8000479537952795BA95C9F7620F731F841F4A
:100D9000951FA01D08952F923F924F925F926F92E0
:100DA0007F928F929F92AF92BF92CF92DF92EF92FB
:100DB000FF920F931F93CF93DF93CDB7DEB7CA1B7C
:100DC000DB0B0FB6F894DEBF0FBECDBF09942A88A7
:100DD000398848885F846E847D848C849B84AA844F
:100DE000B984C884DF80EE80FD800C811B81AA81DC
:100DF000B981CE0FD11D0FB6F894DEBF0FBECDBFA7
:080E0000ED010895F894FFCF05
:100E080000007E01200043414E5354415420616646
:100E18007465722072657365743A2025640A0D0042
:100E2800796F6C6F206C656E6774683A2025642052
:100E38000A0D006D6573736167655F646174612095
:100E480025640D0A006D6573736167655F6C656E77
:100E58006774682025640D0A0069642025640A0DFA
:100E68000056616C2043414E535441543A20256446
:040E78000A0D00005F
:00000001FF
