:100000000C9476000C9497000C9497000C94970035
:100010000C9497000C9497000C9497000C94970004
:100020000C9497000C9497000C9497000C949700F4
:100030000C9497000C9497000C9497000C949700E4
:100040000C9497000C9497000C9497000C949700D4
:100050000C9497000C9497000C9497000C949700C4
:100060000C9497000C9497000C9497000C949700B4
:100070000C9497000C9497000C9497000C949700A4
:100080000C9497000C9497000C9497000C94970094
:100090000C9497000C9497000C9497000C94970084
:1000A0000C9497000C9497000C9497000C94970074
:1000B0000C9497000C9497000C9497000C94970064
:1000C0000C9497000C9497000C9497000C94970054
:1000D0000C9497000C9497000C9497000C94970044
:1000E0000C9497000C9400010C94F80011241FBE8E
:1000F000CFEFD1E2DEBFCDBF00E00CBF12E0A0E049
:10010000B2E0EEE5F3E100E00BBF02C007900D9214
:10011000AE36B107D9F722E0AEE6B2E001C01D92DB
:10012000A837B207E1F70E9499000C94AD090C942E
:100130000000CF93DF93CDB7DEB72A970FB6F894C0
:10014000DEBF0FBECDBF0E947C010E94FC010E9459
:10015000E8028AE090E00E945C0306E012E00F2EC5
:10016000F8E1CF2EF2E0DF2EF02D0F2EFCE2EF2E85
:10017000F2E0FF2EF02D2FEF83EC99E0215080402C
:100180009040E1F700C00000CE0101960E946E028F
:100190008B811F928F931F930F930E94A2058C81D6
:1001A0001F928F931F930F930E94A2058D811F9220
:1001B0008F931F930F930E94A2058E811F928F939E
:1001C0001F930F930E94A2058A811F928F93DF9243
:1001D000CF920E94A20589811F928F93FF92EF9286
:1001E0000E94A2050FB6F894DEBF0FBECDBFC3CFED
:1001F000E0ECF0E080818823ECF78091C600089560
:10020000E0ECF0E0908195FFFDCF8093C60008956B
:100210009093C5008093C40088E18093C1008EE074
:100220008093C20068EF70E080E091E00E94570583
:1002300008958EBD0DB407FEFDCF08958FEF8EBDDE
:100240000DB407FEFDCF8EB590E00895009719F02C
:10025000019719F008952F9808952F9A089584B161
:10026000876884B9239881E58CBD81E090E00E9485
:1002700026010895CF93DF93C82F80E090E00E947D
:10028000260183E00E9419018C2F0E9419010E940F
:100290001E01EC0181E090E00E942601CE01DF9179
:1002A000CF910895CF93DF93D82FC62F80E090E0B1
:1002B0000E94260182E00E9419018D2F0E941901DF
:1002C0008C2F0E94190181E090E00E942601DF91AD
:1002D000CF91089580E090E00E94260180EC0E947A
:1002E000190181E090E00E9426018FE493EC0197D0
:1002F000F1F700C0000008950E942F0184E392E00E
:100300009F938F930E94A2050E946A018EE392E060
:100310009F938F930E94A2058EE090E00E943A0185
:1003200099279F938F9388E492E09F938F930E94E5
:10033000A2058DB79EB708960FB6F8949EBF0FBE64
:100340008DBF089580E090E00E94260180EA0E941F
:10035000190181E090E00E94260180EA90E0089572
:1003600081E090E00895CF93DF93EC0180E090E08E
:100370000E942601CE0163E070E00E9463030097B3
:1003800039F08130910531F0029731F484E805C0ED
:1003900081E803C082E801C081E80E94190181E080
:1003A00090E00E942601DF91CF9108951F93CF9393
:1003B000DF93182FD62FC42F80E090E00E942601F3
:1003C00085E00E941901812F0E9419018D2F0E9442
:1003D00019018C2F0E94190181E090E00E942601F2
:1003E000DF91CF911F910895AC0160EE70E08FE036
:1003F00090E00E94D601089580E090E00E942601DE
:1004000041E050E061E070E08BE290E00E94D601B4
:1004100041E050E064E070E08BE290E00E94D601A1
:1004200040E050E061E070E08CE290E00E94D60194
:1004300040E050E064E070E08CE290E00E94D60181
:1004400080E090E00E94F40181E090E00E942601AB
:100450000895EF92FF920F931F93CF93DF937C0148
:10046000FC01608166956695669570E081E390E099
:100470000E945201F7016081F0E26F9FB0011124E8
:1004800082E390E00E945201F701618170E085E310
:1004900090E00E945201F70181818823A1F0870139
:1004A0000E5F1F4FC0E0D0E0F80161918F0170E056
:1004B000CE01C6960E9452012196F701218130E0BB
:1004C000C217D3078CF380E090E00E94B301DF9164
:1004D000CF911F910F91FF90EF900895CF92DF92EF
:1004E000EF92FF921F93CF93DF936C018CE290E029
:1004F0000E943A01182F80FF36C081E690E00E94EA
:100500003A01C82F82E690E00E943A0196958795BD
:10051000929582958F7089279F708927282F38E0C0
:10052000C39F200D1124F601208385E690E00E94F0
:100530003A01F60181838823A9F07601F2E0EF0EFB
:10054000F11CC0E0D0E0CE018A599F4F0E943A01D1
:10055000F70181937F012196F601218130E0C217D6
:10056000D3078CF31E7F15FF09C08AE592E09F93A5
:100570008F930E94A2051F7D0F900F90612F110F86
:10058000770B8CE290E00E945201DF91CF911F9196
:10059000FF90EF90DF90CF900895259A84E08093AC
:1005A0008100E0E8F0E08081806C80830895E0E8DD
:1005B000F0E0808182608083E1E8F0E08081886102
:1005C000808382EE94E09093870080938600089564
:1005D0000E94CD020E94D7021F9281E08F9386E68F
:1005E00092E09F938F930E94A2050F900F900F901F
:1005F0000F9008958F929F92AF92BF92CF92DF9209
:10060000EF92FF929C012F573109C901992324F4DD
:1006100088279927821B930B6FE770E00E94630382
:10062000072E000C880B990B0E9435042AE939E942
:1006300049E95FE30E94EA0426E636E646E65FE320
:100640000E948C030E94FD036B017C01072E000CAD
:10065000880B990B0E9435044B015C0126E636E6B7
:1006600046E65FE30E94E504882364F026E636E66A
:1006700046E050E4C501B4010E94F80318162CF0BE
:10068000C60105C080E090E002C080E090E0FF90ED
:10069000EF90DF90CF90BF90AF909F908F90089594
:1006A00085B3827085BB882331F0A99885B38270A9
:1006B00085BB8111FACF089588E998E0909389006D
:1006C00080938800089597FB072E16F4009407D0B6
:1006D00077FD09D00E94770307FC05D03EF4909582
:1006E00081959F4F0895709561957F4F0895AA1B3E
:1006F000BB1B51E107C0AA1FBB1FA617B70710F00D
:10070000A61BB70B881F991F5A95A9F7809590953E
:10071000BC01CD0108955058BB27AA270E94A3030E
:100720000C94AB040E949D0438F00E94A40420F0B5
:1007300039F49F3F19F426F40C949A040EF4E095D2
:10074000E7FB0C949404E92F0E94BC0458F3BA17F9
:10075000620773078407950720F079F4A6F50C94D7
:10076000DE040EF4E0950B2EBA2FA02D0B01B9017B
:1007700090010C01CA01A0011124FF27591B99F017
:10078000593F50F4503E68F11A16F040A22F232F23
:10079000342F4427585FF3CF469537952795A79573
:1007A000F0405395C9F77EF41F16BA0B620B730B1A
:1007B000840BBAF09150A1F0FF0FBB1F661F771F8B
:1007C000881FC2F70EC0BA0F621F731F841F48F440
:1007D000879577956795B795F7959E3F08F0B0CFC9
:1007E0009395880F08F09927EE0F979587950895B0
:1007F0000E94700408F481E008950E940404689443
:10080000B1110C94DF0408950E94C40488F09F572E
:1008100098F0B92F9927B751B0F0E1F0660F771F24
:10082000881F991F1AF0BA95C9F714C0B13091F01A
:100830000E94DE04B1E008950C94DE04672F782F47
:100840008827B85F39F0B93FCCF3869577956795DF
:10085000B395D9F73EF490958095709561957F4F4B
:100860008F4F9F4F0895E89409C097FB3EF49095F1
:100870008095709561957F4F8F4F9F4F9923A9F079
:10088000F92F96E9BB279395F69587957795679508
:10089000B795F111F8CFFAF4BB0F11F460FF1BC04C
:1008A0006F5F7F4F8F4F9F4F16C0882311F096E9DF
:1008B00011C0772321F09EE8872F762F05C066238D
:1008C00071F096E8862F70E060E02AF09A95660F46
:1008D000771F881FDAF7880F9695879597F90895FF
:1008E000990F0008550FAA0BE0E8FEEF1616170641
:1008F000E807F907C0F012161306E407F50798F0A9
:10090000621B730B840B950B39F40A2661F0232BC1
:10091000242B252B21F408950A2609F4A140A6953D
:100920008FEF811D811D089597F99F6780E870E022
:1009300060E008959FEF80EC089500240A94161655
:10094000170618060906089500240A9412161306BD
:10095000140605060895092E0394000C11F488234B
:1009600052F0BB0F40F4BF2B11F460FF04C06F5F67
:100970007F4F8F4F9F4F089557FD9058440F551F3D
:1009800059F05F3F71F04795880F97FB991F61F011
:100990009F3F79F087950895121613061406551F88
:1009A000F2CF4695F1DF08C0161617061806991FF4
:1009B000F1CF86957105610508940895E894BB27E9
:1009C00066277727CB0197F908950E94700408F4F1
:1009D0008FEF08950E94FD040C94AB040E949D04C7
:1009E00038F00E94A40420F0952311F00C94940494
:1009F0000C949A0411240C94DF040E94BC0470F33C
:100A0000959FC1F3950F50E0551F629FF001729FB3
:100A1000BB27F00DB11D639FAA27F00DB11DAA1FC2
:100A2000649F6627B00DA11D661F829F2227B00D0F
:100A3000A11D621F739FB00DA11D621F839FA00D9A
:100A4000611D221F749F3327A00D611D231F849FEA
:100A5000600D211D822F762F6A2F11249F57504041
:100A60009AF0F1F088234AF0EE0FFF1FBB1F661FBC
:100A7000771F881F91505040A9F79E3F510580F085
:100A80000C9494040C94DF045F3FE4F3983ED4F399
:100A9000869577956795B795F795E7959F5FC1F729
:100AA000FE2B880F911D9695879597F908950F93C2
:100AB0001F93CF93DF93009731F46115710519F4FB
:100AC00080E090E03AC08B01EC016EE070E081E0E4
:100AD00090E00E94B107FC01892B91F380E88383A9
:100AE0000115110571F01387028781E883838091D6
:100AF0006E0290916F02892B21F4F0936F02E093C4
:100B00006E022097C9F0D187C0878381826083837A
:100B10008091700290917102892B71F4F0937102AF
:100B2000E09370028091720290917302892B21F4FC
:100B3000F0937302E0937202CF01DF91CF911F9186
:100B40000F910895CF93DF93CDB7DEB7AE014A5F23
:100B50005F4FFA0161917191AF01809170029091A4
:100B600071020E94B605DF91CF9108952F923F92B6
:100B70004F925F926F927F928F929F92AF92BF92AD
:100B8000CF92DF92EF92FF920F931F93CF93DF9359
:100B9000CDB7DEB72C970FB6F894DEBF0FBECDBF32
:100BA0007C016B018A01FC0117821682838181FF1F
:100BB000BDC1CE0101964C01F7019381F60193FD71
:100BC000859193FF81916F01882309F4ABC1853230
:100BD00039F493FD859193FF81916F01853229F45A
:100BE000B70190E00E941709E7CF512C312C20E08B
:100BF0002032A0F48B3269F030F4803259F0833225
:100C000069F420612CC08D3239F0803339F42160D1
:100C100026C02260246023C0286021C027FD27C091
:100C200030ED380F3A3078F426FF06C0FAE05F9EC8
:100C3000300D1124532E13C08AE0389E300D11243C
:100C4000332E20620CC08E3221F426FD6BC120644D
:100C500006C08C3611F4206802C0883641F4F601D3
:100C600093FD859193FF81916F018111C1CF982FE1
:100C70009F7D9554933028F40C5F1F4FFFE3F98359
:100C80000DC0833631F0833771F0833509F05BC0D6
:100C900022C0F801808189830E5F1F4F4424439452
:100CA000512C540115C03801F2E06F0E711CF8018F
:100CB000A080B18026FF03C0652D70E002C06FEFF9
:100CC0007FEFC5012C870E940C092C0183012C8524
:100CD0002F77222E17C03801F2E06F0E711CF80139
:100CE000A080B18026FF03C0652D70E002C06FEFC9
:100CF0007FEFC5012C870E94FA082C012C85206803
:100D0000222E830123FC1BC0832D90E04816590638
:100D1000B0F4B70180E290E00E9417093A94F4CF52
:100D2000F50127FC859127FE81915F01B70190E0D5
:100D30000E94170931103A94F1E04F1A51084114FA
:100D4000510471F7E5C0843611F0893639F5F801A0
:100D500027FF07C060817181828193810C5F1F4FE3
:100D600008C060817181072E000C880B990B0E5F03
:100D70001F4F2F76722E97FF09C090958095709522
:100D800061957F4F8F4F9F4F2068722E2AE030E091
:100D9000A4010E944F09A82EA81844C0853729F441
:100DA0002F7EB22E2AE030E025C0F22FF97FBF2E31
:100DB0008F36C1F018F4883579F0B4C0803719F057
:100DC000883721F0AFC02F2F2061B22EB4FE0DC0A6
:100DD0008B2D8460B82E09C024FF0AC09F2F966017
:100DE000B92E06C028E030E005C020E130E002C0A6
:100DF00020E132E0F801B7FE07C060817181828195
:100E000093810C5F1F4F06C06081718180E090E08C
:100E10000E5F1F4FA4010E944F09A82EA818FB2D9A
:100E2000FF777F2E76FE0BC0372D3E7FA51450F442
:100E300074FE0AC072FC08C0372D3E7E05C0BA2C75
:100E4000372D03C0BA2C01C0B52C34FF0DC0FE01F4
:100E5000EA0DF11D8081803311F4397E09C032FF23
:100E600006C0B394B39404C0832F867809F0B3947A
:100E700033FD13C030FF06C05A2CB31418F4530CC2
:100E80005B18B32CB31468F4B70180E290E03C87A0
:100E90000E941709B3943C85F5CFB31410F43B18A6
:100EA00001C0312C34FF12C0B70180E390E03C87D1
:100EB0000E9417093C8532FF17C031FD03C088E747
:100EC00090E002C088E590E0B7010CC0832F8678DF
:100ED00059F031FF02C08BE201C080E237FD8DE2A4
:100EE000B70190E00E941709A51438F4B70180E318
:100EF00090E00E9417095A94F7CFAA94F401EA0DE2
:100F0000F11D8081B70190E00E941709A110F5CF73
:100F1000332009F451CEB70180E290E00E94170916
:100F20003A94F6CFF7018681978102C08FEF9FEF49
:100F30002C960FB6F894DEBF0FBECDBFDF91CF91D8
:100F40001F910F91FF90EF90DF90CF90BF90AF90E7
:100F50009F908F907F906F905F904F903F902F90D9
:100F600008950F931F93CF93DF93869F8001879FF0
:100F7000100D969F100D1124C8010E94CD07EC01A1
:100F8000009729F0A80160E070E00E940509CE01F9
:100F9000DF91CF911F910F910895CF93DF9382300E
:100FA000910510F482E090E0E0917602F0917702F2
:100FB00020E030E0C0E0D0E0309711F14081518175
:100FC00048175907C0F04817590761F48281938187
:100FD000209719F09B838A832BC09093770280938C
:100FE000760226C02115310519F04217530718F46F
:100FF0009A01BE01DF01EF010280F381E02DDCCF19
:101000002115310509F1281B390B2430310590F4E5
:1010100012968D919C9113976115710521F0FB013A
:101020009383828304C09093770280937602FD01BC
:10103000329644C0FD01E20FF31F81939193225039
:1010400031092D933C933AC020917402309175027E
:10105000232B41F420910202309103023093750258
:101060002093740220910002309101022115310574
:1010700041F42DB73EB74091040250910502241B64
:10108000350BE0917402F0917502E217F307A0F4BA
:101090002E1B3F0B2817390778F0AC014E5F5F4FCE
:1010A0002417350748F04E0F5F1F50937502409389
:1010B00074028193919302C0E0E0F0E0CF01DF91F0
:1010C000CF9108950F931F93CF93DF93009709F467
:1010D0008CC0FC013297138212820091760210912B
:1010E00077020115110581F420813181820F931F50
:1010F00020917402309175022817390779F5F09321
:101100007502E093740271C0D80140E050E0AE1760
:10111000BF0750F412962D913C911397AD01211504
:10112000310509F1D901F3CF9D01DA01338322831F
:1011300060817181860F971F8217930769F4EC0114
:1011400028813981260F371F2E5F3F4F318320833F
:101150008A819B8193838283452B29F4F0937702C4
:10116000E093760242C01396FC93EE931297ED0142
:10117000499159919E01240F351FE217F30771F42D
:1011800080819181840F951F029611969C938E9376
:101190008281938113969C938E931297E0E0F0E006
:1011A000D80112968D919C911397009719F0F80130
:1011B0008C01F6CF8D919C9198012E5F3F4F820F4D
:1011C000931F20917402309175022817390769F432
:1011D000309729F4109277021092760202C013829F
:1011E00012821093750200937402DF91CF911F91C8
:1011F0000F910895FC010590615070400110D8F7DF
:10120000809590958E0F9F1F0895DC0101C06D930E
:1012100041505040E0F70895FC016150704001904A
:101220000110D8F7809590958E0F9F1F08950F930A
:101230001F93CF93DF93FB01238121FD03C08FEF29
:101240009FEF28C022FF16C0468157812481358137
:101250004217530744F4A081B1819D012F5F3F4F96
:10126000318320838C93268137812F5F3F4F3783D3
:10127000268310C0EB01092F182F0084F185E02D83
:101280001995892BE1F68E819F8101969F838E832C
:10129000812F902FDF91CF911F910F910895FA0127
:1012A000AA27283051F1203181F1E8946F936E7FA5
:1012B0006E5F7F4F8F4F9F4FAF4FB1E03ED0B4E096
:1012C0003CD0670F781F891F9A1FA11D680F791FD7
:1012D0008A1F911DA11D6A0F711D811D911DA11DE8
:1012E00020D009F468943F912AE0269F11243019F8
:1012F000305D3193DEF6CF010895462F4770405D93
:101300004193B3E00FD0C9F7F6CF462F4F70405D41
:101310004A3318F0495D31FD4052419302D0A9F79C
:10132000EACFB4E0A6959795879577956795BA9596
:10133000C9F700976105710508959B01AC010A2E5C
:1013400006945795479537952795BA95C9F7620F33
:0E135000731F841F951FA01D0895F894FFCFF2
:10135E000000780220006D6573736167655F6461DC
:10136E0074612025640D0A006D6573736167655F96
:10137E006C656E6774682025640D0A00696420250B
:10138E00640A0D0048656C6C6F20737069004865C7
:10139E006C6C6F206D63700056616C2043414E5330
:1013AE005441543A2025640A0D0043616E20457263
:0E13BE00726F720A0D00796F6C6F256400006B
:00000001FF
