:100000000C94D5000C94F6000C94F6000C94F600B9
:100010000C94F6000C94F6000C94F6000C94F60088
:100020000C94F6000C94F6000C94F6000C94F60078
:100030000C94F6000C94F6000C94F6000C94F30566
:100040000C94F6000C94F6000C94F6000C94F60058
:100050000C94F6000C94F6000C94F6000C94F60048
:100060000C94F6000C94F6000C94F6000C94F60038
:100070000C94F6000C94F6000C94F6000C94F60028
:100080000C94F6000C94F6000C94F6000C94F60018
:100090000C94F6000C94F6000C94F6000C944904B1
:1000A0000C94F6000C94F6000C94F6000C94F600F8
:1000B0000C94F6000C94F6000C94F6000C94F600E8
:1000C0000C94F6000C94F6000C94F6000C94F600D8
:1000D0000C94F6000C94F6000C94F6000C94F600C8
:1000E0000C94F6006804BA04BA04BA04BA04BA0458
:1000F000BA04BA046804BA04BA04BA04BA04BA0462
:10010000BA04BA046A04BA04BA04BA04BA04BA044F
:10011000BA04BA04BA04BA04BA04BA04BA04BA04EF
:10012000BA04BA046A04BA04BA04BA04BA04BA042F
:10013000BA04BA04BA04BA04BA04BA04BA04BA04CF
:10014000BA04BA04B604BA04BA04BA04BA04BA04C3
:10015000BA04BA049304BA04BA04BA04BA04BA04D6
:10016000BA04BA04BA04BA04BA04BA04BA04BA049F
:10017000BA04BA048704BA04BA04BA04BA04BA04C2
:10018000BA04BA04A5040C946A040C9493040C9465
:1001900068040C94A5040C94B6040C9487040C9485
:1001A00049010C94BA040C94410111241FBECFEFF5
:1001B000D1E2DEBFCDBF00E00CBF12E0A0E0B2E0B4
:1001C000E8EAF9E100E00BBF02C007900D92AC3401
:1001D000B107D9F722E0ACE4B2E001C01D92A93624
:1001E000B207E1F70E94F8000C94D20C0C940000C6
:1001F000CF93DF93CDB7DEB72A970FB6F894DEBF63
:100200000FBECDBF87E690E00E9451011AB885B7B6
:10021000806885BF78940E94C5010E9428020E94D0
:1002200016030E9485030E942E050E94D0040E949E
:10023000FF050E9402060E94EA050F2EF9E1EF2E4B
:10024000F2E0FF2EF02DCE0101960E949A02DC8092
:100250000B8110E0C8010E94E505C8010E94DC0482
:100260008D2D90E00E9440030E943B059F938F9349
:10027000FF92EF920E94C7080F900F900F900F907F
:10028000E2CFE0ECF0E080818823ECF78091C600BB
:100290000895E0ECF0E0908195FFFDCF8093C600DB
:1002A00008959093C5008093C40088E18093C100B5
:1002B0008EE08093C20061E471E089E491E00E94E5
:1002C0007C0808958EBD0DB407FEFDCF08958FEF15
:1002D0008EBD0DB407FEFDCF8EB590E0089500975A
:1002E00019F0019719F008952F9808952F9A0895FD
:1002F00084B1876884B9239881E58CBD81E090E062
:100300000E946F010895CF93DF93C82F80E090E0A3
:100310000E946F0183E00E9462018C2F0E946201A3
:100320000E946701EC0181E090E00E946F01CE0124
:10033000DF91CF910895CF93DF93D82FC62F80E020
:1003400090E00E946F0182E00E9462018D2F0E9466
:1003500062018C2F0E94620181E090E00E946F0197
:10036000DF91CF91089580E090E00E946F0180ECD2
:100370000E94620181E090E00E946F018FE493ECA3
:100380000197F1F700C0000008950E9478010E94D3
:10039000B3018EE090E00E948301089580E090E038
:1003A0000E946F0180EA0E94620181E090E00E9459
:1003B0006F0180EA90E0089581E090E00895CF9386
:1003C000DF93EC0180E090E00E946F01CE0163E0DA
:1003D00070E00E940E06009739F08130910531F0EF
:1003E000029731F484E805C081E803C082E801C0C7
:1003F00081E80E94620181E090E00E946F01DF913C
:10040000CF9108951F93CF93DF93182FD62FC42F2A
:1004100080E090E00E946F0185E00E946201812FE0
:100420000E9462018D2F0E9462018C2F0E94620146
:1004300081E090E00E946F01DF91CF911F910895BC
:10044000AC0160EE70E08FE090E00E94020208953F
:1004500080E090E00E946F0141E050E061E070E0D8
:100460008BE290E00E94020241E050E064E070E024
:100470008BE290E00E94020240E050E061E070E018
:100480008CE290E00E94020240E050E064E070E004
:100490008CE290E00E94020280E090E00E94200244
:1004A00081E090E00E946F010895EF92FF920F9318
:1004B0001F93CF93DF937C01FC0160816695669565
:1004C000669570E081E390E00E949B01F7016081F6
:1004D000F0E26F9FB001112482E390E00E949B0143
:1004E000F701618170E085E390E00E949B01F701D4
:1004F00081818823A1F087010E5F1F4FC0E0D0E00B
:10050000F80161918F0170E0CE01C6960E949B01B7
:100510002196F701218130E0C217D3078CF380E0E8
:1005200090E00E94DF01DF91CF911F910F91FF902A
:10053000EF900895CF92DF92EF92FF921F93CF93A7
:10054000DF936C018CE290E00E948301182F80FF02
:1005500036C081E690E00E948301C82F82E690E0D9
:100560000E94830196958795929582958F70892731
:100570009F708927282F38E0C39F200D1124F60192
:10058000208385E690E00E948301F6018183882321
:10059000A9F07601F2E0EF0EF11CC0E0D0E0CE0150
:1005A0008A599F4F0E948301F70181937F01219611
:1005B000F601218130E0C217D3078CF31E7D15FFB1
:1005C00009C08BE292E09F938F930E94C7081F7D22
:1005D0000F900F90612F110F770B8CE290E00E942B
:1005E0009B01DF91CF911F91FF90EF90DF90CF9013
:1005F0000895259AE1E8F0E0808182608083E0E858
:10060000F0E08081806C80830895E0E8F0E08081F4
:1006100082608083E1E8F0E080818861808380E40B
:100620009CE9909387008093860008950E94F902C8
:100630000E9405030895BC01990F880B990B0E9435
:100640005A0720E030E04FE753E40E94B0062AE961
:1006500039E949E95FE30E940F0826E636E646E6F7
:100660005FE30E943F06089585B3827085BB8823AF
:1006700031F0A99885B3827085BB8111FACF0895B6
:10068000CF92DF92EF92FF920E941B036B017C01DD
:1006900026E636E646E65FE30E94AB068823A4F032
:1006A00026E636E646E050E4C701B6010E940A0895
:1006B000181694F40F2EF6E6CF2EDC2CF6E0EF2E73
:1006C000F0E4FF2EF02D08C00F2EF6E6CF2EDC2C26
:1006D000EC2CFFE3FF2EF02DA701960160E070E007
:1006E00080EA91E40E943E0620E030E04AEF54E4C4
:1006F0000E940F080E942907709389006093880068
:10070000FF90EF90DF90CF9008958298ECE7F0E0B3
:1007100080818064808380818F7780838081826004
:10072000808380818E7F808380818B7F80838081A6
:10073000877F808380818F7E8083EBE7F0E08081FC
:10074000877F8083EAE7F0E080818768808308956F
:10075000EF92FF921F93CF93DF93EAE7F0E080815F
:1007600080648083808180917800E82EF12C109144
:100770007900C12FD0E01F928F9327E332E03F939F
:100780002F930E94C7081F921F9320E432E03F93EB
:100790002F930E94C7089C2F88272DB73EB7285F4C
:1007A0003F4F0FB6F8943EBF0FBE2DBF8E299F2935
:1007B000DF91CF911F91FF90EF9008958CE080938F
:1007C000B8008FEF8093BB0084E08093BC00089555
:1007D0008091BC0081700895ECEBF0E0808180FD99
:1007E000FDCF809100020895CF93DF93EC01ECEBF5
:1007F000F0E0908190FDFDCF60934E029881909340
:100800004F0290FD13C0623088F0FE013196A0E5E2
:10081000B2E06250262F30E02E5F3F4FCE01820FB4
:10082000931F21912D93E817F907D9F710924C02E5
:1008300088EF8093000285EA8093BC00DF91CF911E
:100840000895ECEBF0E0808180FDFDCF10924C022A
:1008500088EF8093000285EA8093BC000895ECEB5A
:10086000F0E0208120FDFDCF20914C0220FF0DC043
:10087000662359F02FE432E0A82FB92FF9018191B6
:100880008D938E2F821B8617D0F380914C0281703E
:1008900008951F920F920FB60F9211240BB60F926C
:1008A0002F933F938F939F93AF93BF93EF93FF93B8
:1008B000E091B9008E2F90E0FC013897E135F10509
:1008C00008F058C08827EE58FF4F8F4F0C9422062F
:1008D00010924D02E0914D0280914E02E81770F4A3
:1008E00081E08E0F80934D02F0E0E15BFD4F80814F
:1008F0008093BB0085E88093BC0043C080914C028C
:10090000816080934C0284E98093BC003AC0E091FE
:100910004D0281E08E0F80934D028091BB00F0E08C
:10092000E15BFD4F808320914D0230E080914E02CB
:1009300090E001972817390724F485EC8093BC00D8
:1009400020C085E88093BC001CC08091BB00E09172
:100950004D02F0E0E15BFD4F808380914C028160AD
:1009600080934C0284E98093BC000BC085EA80939D
:10097000BC0007C08091B9008093000284E080939E
:10098000BC00FF91EF91BF91AF919F918F913F91EB
:100990002F910F900BBE0F900FBE0F901F901895C8
:1009A000E2E0F1E08081806180830895E2E0F1E09F
:1009B00080818F7E80830895CF93DF9300D0CDB761
:1009C000DEB78038910584F466277727681B790B9A
:1009D000CB01880F991FBC0161507F4FE2E0F1E02D
:1009E0008081826080830AC0BC0160587109660FF3
:1009F000771FE2E0F1E080818D7F80836F3F71059A
:100A000019F014F06FEF70E080E589831A82772384
:100A100014F460E070E0072E000C880B990B0E9424
:100A20005A0720E030E040E85EE30E940F080E9491
:100A300022076B8363E0CE0101960E94F4030F90BE
:100A40000F900F90DF91CF910895E2E0F1E0808167
:100A50008F7B808380818064808308958AB18360E6
:100A60008AB90E94DE038FEF809301010E94250561
:100A7000109207010895E2E0F1E080818F7D80838C
:100A80008081877F808388E28A95F1F7A6E0B1E0D4
:100A90002C9180818860808388E28A95F1F78C911F
:100AA00090819062908390E0922B08958F929F9214
:100AB000AF92BF92CF92DF92EF92FF920E943B05DE
:100AC000805391416CE270E00E940E06CB01609170
:100AD000570270915802681B790B072E000C880B87
:100AE000990B0E945A076B017C019B01AC0160913C
:100AF00053027091540280915502909156020E94C7
:100B00003E0620910302309104024091050250916B
:100B100006020E94B0069B01AC01C0925302D09223
:100B20005402E0925502F092560280900702909093
:100B30000802A0900902B0900A02C501B4010E9407
:100B40000F089B01AC01C501B4010E943F064B0197
:100B50005C016093070270930802809309029093EE
:100B60000A0220910F02309110024091110250911F
:100B70001202C701B6010E940F086B017C0120918F
:100B80000B0230910C0240910D0250910E02C501F2
:100B9000B4010E940F089B01AC01C701B6010E947D
:100BA0003F060E9422079B01215031092E3F31054B
:100BB00018F4CB010E94DC04FF90EF90DF90CF90FF
:100BC000BF90AF909F908F9008959093580280931C
:100BD00057020895F89481E08093700087E0809335
:100BE000B100789408951F920F920FB60F921124BE
:100BF000F89478940F900FBE0F901F901895269A36
:100C00002E9A08952E982FEF82E597E0215080408C
:100C10009040E1F700C000002E9A089597FB072E40
:100C200016F4009407D077FD09D00E942A0607FC2D
:100C300005D03EF4909581959F4F089570956195EC
:100C40007F4F0895EE0FFF1F881F8BBF0790F6910F
:100C5000E02D1994AA1BBB1B51E107C0AA1FBB1FA3
:100C6000A617B70710F0A61BB70B881F991F5A9538
:100C7000A9F780959095BC01CD0108955058BB27E8
:100C8000AA270E9456060C94D0070E94C20738F08B
:100C90000E94C90720F039F49F3F19F426F40C9400
:100CA000BF070EF4E095E7FB0C94B907E92F0E940B
:100CB000E10758F3BA17620773078407950720F016
:100CC00079F4A6F50C9403080EF4E0950B2EBA2FD8
:100CD000A02D0B01B90190010C01CA01A001112442
:100CE000FF27591B99F0593F50F4503E68F11A16EE
:100CF000F040A22F232F342F4427585FF3CF46957F
:100D000037952795A795F0405395C9F77EF41F16A0
:100D1000BA0B620B730B840BBAF09150A1F0FF0F6A
:100D2000BB1F661F771F881FC2F70EC0BA0F621F56
:100D3000731F841F48F4879577956795B795F79546
:100D40009E3F08F0B0CF9395880F08F09927EE0FDB
:100D50009795879508950E94950708F481E0089576
:100D60000E94C4060C94D0070E94C90758F00E9444
:100D7000C20740F029F45F3F29F00C94B9075111E4
:100D80000C9404080C94BF070E94E10768F39923B0
:100D9000B1F3552391F3951B550BBB27AA27621777
:100DA0007307840738F09F5F5F4F220F331F441F84
:100DB000AA1FA9F335D00E2E3AF0E0E832D09150B8
:100DC0005040E695001CCAF72BD0FE2F29D0660FA5
:100DD000771F881FBB1F261737074807AB07B0E8E8
:100DE00009F0BB0B802DBF01FF2793585F4F3AF0EE
:100DF0009E3F510578F00C94B9070C9404085F3FAE
:100E0000E4F3983ED4F3869577956795B795F79573
:100E10009F5FC9F7880F911D9695879597F908955B
:100E2000E1E0660F771F881FBB1F621773078407F7
:100E3000BA0720F0621B730B840BBA0BEE1F88F706
:100E4000E09508950E9429076894B1110C94040854
:100E500008950E94E90788F09F5798F0B92F9927C5
:100E6000B751B0F0E1F0660F771F881F991F1AF095
:100E7000BA95C9F714C0B13091F00E940308B1E0EF
:100E800008950C940308672F782F8827B85F39F0EE
:100E9000B93FCCF3869577956795B395D9F73EF42E
:100EA00090958095709561957F4F8F4F9F4F0895D6
:100EB000E89409C097FB3EF49095809570956195F4
:100EC0007F4F8F4F9F4F9923A9F0F92F96E9BB27AA
:100ED0009395F695879577956795B795F111F8CF26
:100EE000FAF4BB0F11F460FF1BC06F5F7F4F8F4F91
:100EF0009F4F16C0882311F096E911C0772321F087
:100F00009EE8872F762F05C0662371F096E8862F1E
:100F100070E060E02AF09A95660F771F881FDAF775
:100F2000880F9695879597F90895990F0008550FA2
:100F3000AA0BE0E8FEEF16161706E807F907C0F05F
:100F400012161306E407F50798F0621B730B840B67
:100F5000950B39F40A2661F0232B242B252B21F441
:100F600008950A2609F4A140A6958FEF811D811DE1
:100F7000089597F99F6780E870E060E008959FEF1B
:100F800080EC089500240A94161617061806090620
:100F9000089500240A9412161306140605060895EF
:100FA000092E0394000C11F4882352F0BB0F40F477
:100FB000BF2B11F460FF04C06F5F7F4F8F4F9F4FB7
:100FC000089557FD9058440F551F59F05F3F71F039
:100FD0004795880F97FB991F61F09F3F79F08795A0
:100FE0000895121613061406551FF2CF4695F1DF29
:100FF00008C0161617061806991FF1CF86957105B9
:10100000610508940895E894BB2766277727CB01EC
:1010100097F908950E94950708F48FEF08950E94AC
:1010200022080C94D0070E94C20738F00E94C9071A
:1010300020F0952311F00C94B9070C94BF071124EC
:101040000C9404080E94E10770F3959FC1F3950F7B
:1010500050E0551F629FF001729FBB27F00DB11D3C
:10106000639FAA27F00DB11DAA1F649F6627B00DCC
:10107000A11D661F829F2227B00DA11D621F739FB5
:10108000B00DA11D621F839FA00D611D221F749FC3
:101090003327A00D611D231F849F600D211D822F0A
:1010A000762F6A2F11249F5750409AF0F1F0882331
:1010B0004AF0EE0FFF1FBB1F661F771F881F91505E
:1010C0005040A9F79E3F510580F00C94B9070C944D
:1010D00004085F3FE4F3983ED4F3869577956795CF
:1010E000B795F795E7959F5FC1F7FE2B880F911D88
:1010F0009695879597F908950F931F93CF93DF9354
:10110000009731F46115710519F480E090E03AC060
:101110008B01EC016EE070E081E090E00E94D60A65
:10112000FC01892B91F380E883830115110571F08F
:101130001387028781E8838380915F029091600228
:10114000892B21F4F0936002E0935F022097C9F0AD
:10115000D187C0878381826083838091610290916F
:101160006202892B71F4F0936202E0936102809134
:10117000630290916402892B21F4F0936402E0935E
:101180006302CF01DF91CF911F910F910895CF930B
:10119000DF93CDB7DEB7AE014A5F5F4FFA016191D1
:1011A0007191AF0180916102909162020E94DB080F
:1011B000DF91CF9108952F923F924F925F926F925D
:1011C0007F928F929F92AF92BF92CF92DF92EF92D7
:1011D000FF920F931F93CF93DF93CDB7DEB72C977A
:1011E0000FB6F894DEBF0FBECDBF7C016B018A0144
:1011F000FC0117821682838181FFBDC1CE01019659
:101200004C01F7019381F60193FD859193FF819144
:101210006F01882309F4ABC1853239F493FD8591C0
:1012200093FF81916F01853229F4B70190E00E940C
:101230003C0CE7CF512C312C20E02032A0F48B3233
:1012400069F030F4803259F0833269F420612CC0A7
:101250008D3239F0803339F4216026C02260246059
:1012600023C0286021C027FD27C030ED380F3A3059
:1012700078F426FF06C0FAE05F9E300D1124532E4D
:1012800013C08AE0389E300D1124332E20620CC02A
:101290008E3221F426FD6BC1206406C08C3611F419
:1012A000206802C0883641F4F60193FD859193FFD2
:1012B00081916F018111C1CF982F9F7D95549330FB
:1012C00028F40C5F1F4FFFE3F9830DC0833631F024
:1012D000833771F0833509F05BC022C0F80180814B
:1012E00089830E5F1F4F44244394512C540115C031
:1012F0003801F2E06F0E711CF801A080B18026FF6A
:1013000003C0652D70E002C06FEF7FEFC5012C8731
:101310000E94310C2C0183012C852F77222E17C0BF
:101320003801F2E06F0E711CF801A080B18026FF39
:1013300003C0652D70E002C06FEF7FEFC5012C8701
:101340000E941F0C2C012C852068222E830123FC77
:101350001BC0832D90E048165906B0F4B70180E217
:1013600090E00E943C0C3A94F4CFF50127FC859163
:1013700027FE81915F01B70190E00E943C0C311083
:101380003A94F1E04F1A51084114510471F7E5C045
:10139000843611F0893639F5F80127FF07C06081DE
:1013A0007181828193810C5F1F4F08C060817181C0
:1013B000072E000C880B990B0E5F1F4F2F76722E95
:1013C00097FF09C090958095709561957F4F8F4FDD
:1013D0009F4F2068722E2AE030E0A4010E94740C16
:1013E000A82EA81844C0853729F42F7EB22E2AE0F3
:1013F00030E025C0F22FF97FBF2E8F36C1F018F4F0
:10140000883579F0B4C0803719F0883721F0AFC043
:101410002F2F2061B22EB4FE0DC08B2D8460B82E0C
:1014200009C024FF0AC09F2F9660B92E06C028E08D
:1014300030E005C020E130E002C020E132E0F801F8
:10144000B7FE07C060817181828193810C5F1F4F5D
:1014500006C06081718180E090E00E5F1F4FA401A3
:101460000E94740CA82EA818FB2DFF777F2E76FE05
:101470000BC0372D3E7FA51450F474FE0AC072FCD9
:1014800008C0372D3E7E05C0BA2C372D03C0BA2CBC
:1014900001C0B52C34FF0DC0FE01EA0DF11D8081A5
:1014A000803311F4397E09C032FF06C0B394B3947F
:1014B00004C0832F867809F0B39433FD13C030FF46
:1014C00006C05A2CB31418F4530C5B18B32CB31485
:1014D00068F4B70180E290E03C870E943C0CB39432
:1014E0003C85F5CFB31410F43B1801C0312C34FF08
:1014F00012C0B70180E390E03C870E943C0C3C8521
:1015000032FF17C031FD03C088E790E002C088E5D4
:1015100090E0B7010CC0832F867859F031FF02C0EC
:101520008BE201C080E237FD8DE2B70190E00E94BE
:101530003C0CA51438F4B70180E390E00E943C0C09
:101540005A94F7CFAA94F401EA0DF11D8081B701F6
:1015500090E00E943C0CA110F5CF332009F451CE4D
:10156000B70180E290E00E943C0C3A94F6CFF7017C
:101570008681978102C08FEF9FEF2C960FB6F8946B
:10158000DEBF0FBECDBFDF91CF911F910F91FF90B6
:10159000EF90DF90CF90BF90AF909F908F907F9013
:1015A0006F905F904F903F902F9008950F931F93EF
:1015B000CF93DF93869F8001879F100D969F100D1C
:1015C0001124C8010E94F20AEC01009729F0A80139
:1015D00060E070E00E942A0CCE01DF91CF911F9154
:1015E0000F910895CF93DF938230910510F482E03C
:1015F00090E0E0916702F091680220E030E0C0E006
:10160000D0E0309711F14081518148175907C0F05F
:101610004817590761F482819381209719F09B83C1
:101620008A832BC0909368028093670226C021159D
:10163000310519F04217530718F49A01BE01DF0172
:10164000EF010280F381E02DDCCF2115310509F196
:10165000281B390B2430310590F412968D919C9102
:1016600013976115710521F0FB019383828304C0F8
:101670009093680280936702FD01329644C0FD0199
:10168000E20FF31F81939193225031092D933C93E4
:101690003AC02091650230916602232B41F42091DB
:1016A0001502309116023093660220936502209154
:1016B0001302309114022115310541F42DB73EB7C4
:1016C0004091170250911802241B350BE0916502DE
:1016D000F0916602E217F307A0F42E1B3F0B2817C8
:1016E000390778F0AC014E5F5F4F2417350748F09B
:1016F0004E0F5F1F50936602409365028193919352
:1017000002C0E0E0F0E0CF01DF91CF9108950F93A8
:101710001F93CF93DF93009709F48CC0FC0132979D
:10172000138212820091670210916802011511055F
:1017300081F420813181820F931F209165023091C5
:1017400066022817390779F5F0936602E09365027F
:1017500071C0D80140E050E0AE17BF0750F41296B8
:101760002D913C911397AD012115310509F1D90156
:10177000F3CF9D01DA013383228360817181860F6B
:10178000971F8217930769F4EC0128813981260F8E
:10179000371F2E5F3F4F318320838A819B81938344
:1017A0008283452B29F4F0936802E093670242C0DC
:1017B0001396FC93EE931297ED01499159919E0176
:1017C000240F351FE217F30771F480819181840F94
:1017D000951F029611969C938E9382819381139606
:1017E0009C938E931297E0E0F0E0D80112968D91D1
:1017F0009C911397009719F0F8018C01F6CF8D9109
:101800009C9198012E5F3F4F820F931F209165029C
:10181000309166022817390769F4309729F410923D
:1018200068021092670202C013821282109366024D
:1018300000936502DF91CF911F910F910895FC01F4
:101840000590615070400110D8F7809590958E0FEB
:101850009F1F0895DC0101C06D9341505040E0F797
:101860000895FC016150704001900110D8F78095F7
:1018700090958E0F9F1F08950F931F93CF93DF9323
:10188000FB01238121FD03C08FEF9FEF28C022FFC2
:1018900016C046815781248135814217530744F48D
:1018A000A081B1819D012F5F3F4F318320838C93B5
:1018B000268137812F5F3F4F3783268310C0EB018E
:1018C000092F182F0084F185E02D1995892BE1F659
:1018D0008E819F8101969F838E83812F902FDF9130
:1018E000CF911F910F910895FA01AA27283051F145
:1018F000203181F1E8946F936E7F6E5F7F4F8F4F41
:101900009F4FAF4FB1E03ED0B4E03CD0670F781F9F
:10191000891F9A1FA11D680F791F8A1F911DA11D84
:101920006A0F711D811D911DA11D20D009F46894BD
:101930003F912AE0269F11243019305D3193DEF665
:10194000CF010895462F4770405D4193B3E00FD01B
:10195000C9F7F6CF462F4F70405D4A3318F0495D06
:1019600031FD4052419302D0A9F7EACFB4E0A695E9
:101970009795879577956795BA95C9F7009761050B
:10198000710508959B01AC010A2E06945795479561
:1019900037952795BA95C9F7620F731F841F951F56
:0819A000A01D0895F894FFCF8B
:1019A800F801006F12833C000020410000803F00D6
:1019B80000803F0000690220007374696C6C206C21
:1019C8006F6F70696E6725640A0D0043616E20456C
:1019D80072726F720A0D006C6F772025640D0A0011
:0C19E800686967687A2025640D0A000019
:00000001FF
