:100000000C94D5000C94F6000C94F6000C94F600B9
:100010000C94F6000C94F6000C94F6000C94F60088
:100020000C94F6000C94F6000C94F6000C94F60078
:100030000C94F6000C94F6000C94F6000C94F60068
:100040000C94F6000C94F6000C94F6000C94F60058
:100050000C94F6000C94F6000C94F6000C94F60048
:100060000C94F6000C94F6000C94F6000C94F60038
:100070000C94F6000C94F6000C94F6000C94F60028
:100080000C94F6000C94F6000C94F6000C94F60018
:100090000C94F6000C94F6000C94F6000C943104C9
:1000A0000C94F6000C94F6000C94F6000C94F600F8
:1000B0000C94F6000C94F6000C94F6000C94F600E8
:1000C0000C94F6000C94F6000C94F6000C94F600D8
:1000D0000C94F6000C94F6000C94F6000C94F600C8
:1000E0000C94F6005004A204A204A204A204A204E8
:1000F000A204A2045004A204A204A204A204A20422
:10010000A204A2045204A204A204A204A204A2040F
:10011000A204A204A204A204A204A204A204A204AF
:10012000A204A2045204A204A204A204A204A204EF
:10013000A204A204A204A204A204A204A204A2048F
:10014000A204A2049E04A204A204A204A204A20483
:10015000A204A2047B04A204A204A204A204A20496
:10016000A204A204A204A204A204A204A204A2045F
:10017000A204A2046F04A204A204A204A204A20482
:10018000A204A2048D040C946F040C947B040C94C0
:1001900031010C9452040C94A2040C9429010C9487
:1001A0009E040C948D040C94500411241FBECFEFB8
:1001B000D1E2DEBFCDBF00E00CBF12E0A0E0B2E0B4
:1001C000EAE4F8E100E00BBF02C007900D92A8320C
:1001D000B107D9F722E0A8E2B2E001C01D92A9332D
:1001E000B207E1F70E94F8000C94230C0C94000075
:1001F000CF93DF93CDB7DEB72A970FB6F894DEBF63
:100200000FBECDBF87E690E00E9439011AB880E8A2
:1002100085BFF8940E94AD010E9410020E94FE0268
:100220000E946D030E94B8040E94C30481E090E024
:100230000E9428037894CE0101960E9482021C81BC
:100240008B8190E00E94CF04812F90E00E942803D0
:10025000F2CFE0ECF0E080818823ECF78091C600DB
:100260000895E0ECF0E0908195FFFDCF8093C6000B
:1002700008959093C5008093C40088E18093C100E5
:100280008EE08093C20069E271E081E391E00E9418
:10029000CD0708958EBD0DB407FEFDCF08958FEFF5
:1002A0008EBD0DB407FEFDCF8EB590E0089500978A
:1002B00019F0019719F008952F9808952F9A08952D
:1002C00084B1876884B9239881E58CBD81E090E092
:1002D0000E9457010895CF93DF93C82F80E090E0EC
:1002E0000E94570183E00E944A018C2F0E944A011C
:1002F0000E944F01EC0181E090E00E945701CE0185
:10030000DF91CF910895CF93DF93D82FC62F80E050
:1003100090E00E94570182E00E944A018D2F0E94C6
:100320004A018C2F0E944A0181E090E00E9457010F
:10033000DF91CF91089580E090E00E94570180EC1A
:100340000E944A0181E090E00E9457018FE493EC03
:100350000197F1F700C0000008950E9460010E941B
:100360009B018EE090E00E946B01089580E090E098
:100370000E94570180EA0E944A0181E090E00E94B9
:10038000570180EA90E0089581E090E00895CF93CE
:10039000DF93EC0180E090E00E945701CE0163E022
:1003A00070E00E945F05009739F08130910531F0CF
:1003B000029731F484E805C081E803C082E801C0F7
:1003C00081E80E944A0181E090E00E945701DF919C
:1003D000CF9108951F93CF93DF93182FD62FC42F5B
:1003E00080E090E00E94570185E00E944A01812F41
:1003F0000E944A018D2F0E944A018C2F0E944A01BF
:1004000081E090E00E945701DF91CF911F91089504
:10041000AC0160EE70E08FE090E00E94EA01089588
:1004200080E090E00E94570141E050E061E070E020
:100430008BE290E00E94EA0141E050E064E070E06D
:100440008BE290E00E94EA0140E050E061E070E061
:100450008CE290E00E94EA0140E050E064E070E04D
:100460008CE290E00E94EA0180E090E00E940802A5
:1004700081E090E00E9457010895EF92FF920F9360
:100480001F93CF93DF937C01FC0160816695669595
:10049000669570E081E390E00E948301F70160813E
:1004A000F0E26F9FB001112482E390E00E9483018B
:1004B000F701618170E085E390E00E948301F7011C
:1004C00081818823A1F087010E5F1F4FC0E0D0E03B
:1004D000F80161918F0170E0CE01C6960E94830100
:1004E0002196F701218130E0C217D3078CF380E019
:1004F00090E00E94C701DF91CF911F910F91FF9073
:10050000EF900895CF92DF92EF92FF921F93CF93D7
:10051000DF936C018CE290E00E946B01182F80FF4A
:1005200036C081E690E00E946B01C82F82E690E021
:100530000E946B0196958795929582958F70892779
:100540009F708927282F38E0C39F200D1124F601C2
:10055000208385E690E00E946B01F6018183882369
:10056000A9F07601F2E0EF0EF11CC0E0D0E0CE0180
:100570008A599F4F0E946B01F70181937F01219659
:10058000F601218130E0C217D3078CF31E7D15FFE1
:1005900009C087E092E09F938F930E9418081F7D07
:1005A0000F900F90612F110F770B8CE290E00E945B
:1005B0008301DF91CF911F91FF90EF90DF90CF905B
:1005C0000895259AE1E8F0E0808182608083E0E888
:1005D000F0E08081806C80830895E0E8F0E0808125
:1005E00082608083E1E8F0E080818861808380E43C
:1005F0009CE9909387008093860008950E94E10211
:100600000E94ED020895BC01990F880B990B0E947E
:10061000AB0620E030E04FE753E40E9401062AE9F0
:1006200039E949E95FE30E94600726E636E646E6D7
:100630005FE30E949005089585B3827085BB88238F
:1006400031F0A99885B3827085BB8111FACF0895E6
:10065000CF92DF92EF92FF920E9403036B017C0125
:1006600026E636E646E65FE30E94FC058823A4F012
:1006700026E636E646E050E4C701B6010E945B0775
:10068000181694F40F2EF6E6CF2EDC2CF6E0EF2EA3
:10069000F0E4FF2EF02D08C00F2EF6E6CF2EDC2C56
:1006A000EC2CFFE3FF2EF02DA701960160E070E037
:1006B00080EA91E40E948F0520E030E04AEF54E4A4
:1006C0000E9460070E947A067093890060938800F8
:1006D000FF90EF90DF90CF9008958298ECE7F0E0E4
:1006E00080818064808380818F7780838081826035
:1006F000808380818E7F808380818B7F80838081D7
:10070000877F808380818F7E8083EBE7F0E080812C
:10071000877F8083EAE7F0E080818768808308959F
:10072000EF92FF921F93CF93DF93EAE7F0E080818F
:1007300080648083808180917800E82EF12C109174
:100740007900C12FD0E01F928F9323E132E03F93D5
:100750002F930E9418081F921F932CE132E03F93C1
:100760002F930E9418089C2F88272DB73EB7285F2B
:100770003F4F0FB6F8943EBF0FBE2DBF8E299F2965
:10078000DF91CF911F91FF90EF9008958CE08093BF
:10079000B8008FEF8093BB0084E08093BC00089585
:1007A0008091BC0081700895ECEBF0E0808180FDC9
:1007B000FDCF809100020895CF93DF93EC01ECEB25
:1007C000F0E0908190FDFDCF60932A029881909394
:1007D0002B0290FD13C0623088F0FE013196ACE22E
:1007E000B2E06250262F30E02E5F3F4FCE01820FE5
:1007F000931F21912D93E817F907D9F7109228023A
:1008000088EF8093000285EA8093BC00DF91CF914E
:100810000895ECEBF0E0808180FDFDCF109228027E
:1008200088EF8093000285EA8093BC000895ECEB8A
:10083000F0E0208120FDFDCF2091280220FF0DC097
:10084000662359F02BE232E0A82FB92FF9018191EC
:100850008D938E2F821B8617D0F380912802817092
:1008600008951F920F920FB60F9211240BB60F929C
:100870002F933F938F939F93AF93BF93EF93FF93E8
:10088000E091B9008E2F90E0FC013897E135F10539
:1008900008F058C08827EE58FF4F8F4F0C9473050F
:1008A00010922902E091290280912A02E81770F43F
:1008B00081E08E0F80932902F0E0E55DFD4F80819D
:1008C0008093BB0085E88093BC0043C080912802E0
:1008D00081608093280284E98093BC003AC0E09153
:1008E000290281E08E0F809329028091BB00F0E005
:1008F000E55DFD4F80832091290230E080912A023E
:1009000090E001972817390724F485EC8093BC0008
:1009100020C085E88093BC001CC08091BB00E091A2
:100920002902F0E0E55DFD4F80838091280281601F
:100930008093280284E98093BC000BC085EA8093F1
:10094000BC0007C08091B9008093000284E08093CE
:10095000BC00FF91EF91BF91AF919F918F913F911B
:100960002F910F900BBE0F900FBE0F901F901895F8
:100970008AB183608AB90E94C603E1E0F1E0808118
:10098000826180830895E2E0F1E08081806180836C
:100990000895E2E0F1E080818F7E80830895CF9317
:1009A000DF9300D0CDB7DEB78038910584F4662799
:1009B0007727681B790BCB01880F991FBC01615009
:1009C0007F4FE2E0F1E08081826080830AC0BC0159
:1009D00060587109660F771FE2E0F1E080818D7F3A
:1009E00080836F3F710519F014F06FEF70E080E5C0
:1009F00089831A82772314F460E070E0072E000CDC
:100A0000880B990B0E94AB0620E030E040E85EE3E3
:100A10000E9460070E9473066B8363E0CE0101961B
:100A20000E94DC030F900F900F90DF91CF910895FB
:100A3000E2E0F1E080818F7B80832FE38DE093E023
:100A4000215080409040E1F700C000008081806428
:100A500080832FE38DE093E0215080409040E1F7C8
:100A600000C0000008950F931F93CF93DF93C2E05F
:100A7000D1E088818F7D88838881877F888387E81C
:100A800093E10197F1F700C00000E6E0F1E000819A
:100A900088818860888387E893E10197F1F700C037
:100AA000000010810E941805888180628883812F50
:100AB00090E0902BDF91CF911F910F91089597FBBC
:100AC000072E16F4009407D077FD09D00E947B050D
:100AD00007FC05D03EF4909581959F4F0895709541
:100AE00061957F4F0895EE0FFF1F881F8BBF079002
:100AF000F691E02D1994AA1BBB1B51E107C0AA1F58
:100B0000BB1FA617B70710F0A61BB70B881F991FAE
:100B10005A95A9F780959095BC01CD01089550583C
:100B2000BB27AA270E94A7050C9421070E94130740
:100B300038F00E941A0720F039F49F3F19F426F488
:100B40000C9410070EF4E095E7FB0C940A07E92FCC
:100B50000E94320758F3BA17620773078407950794
:100B600020F079F4A6F50C9454070EF4E0950B2EC2
:100B7000BA2FA02D0B01B90190010C01CA01A001EF
:100B80001124FF27591B99F0593F50F4503E68F14A
:100B90001A16F040A22F232F342F4427585FF3CF8B
:100BA000469537952795A795F0405395C9F77EF45C
:100BB0001F16BA0B620B730B840BBAF09150A1F0A5
:100BC000FF0FBB1F661F771F881FC2F70EC0BA0F2B
:100BD000621F731F841F48F4879577956795B795B3
:100BE000F7959E3F08F0B0CF9395880F08F09927AE
:100BF000EE0F9795879508950E94E60608F481E028
:100C000008950E9415060C9421070E941A0758F0B7
:100C10000E94130740F029F45F3F29F00C940A0763
:100C200051110C9455070C9410070E94320768F379
:100C30009923B1F3552391F3951B550BBB27AA2795
:100C400062177307840738F09F5F5F4F220F331FCF
:100C5000441FAA1FA9F335D00E2E3AF0E0E832D097
:100C600091505040E695001CCAF72BD0FE2F29D09A
:100C7000660F771F881FBB1F261737074807AB076C
:100C8000B0E809F0BB0B802DBF01FF2793585F4FE1
:100C90003AF09E3F510578F00C940A070C945507E2
:100CA0005F3FE4F3983ED4F3869577956795B795C3
:100CB000F7959F5FC9F7880F911D9695879597F9CE
:100CC0000895E1E0660F771F881FBB1F6217730747
:100CD0008407BA0720F0621B730B840BBA0BEE1F5C
:100CE00088F7E09508950E947A066894B1110C94F3
:100CF000550708950E943A0788F09F5798F0B92F3A
:100D00009927B751B0F0E1F0660F771F881F991F40
:100D10001AF0BA95C9F714C0B13091F00E94540787
:100D2000B1E008950C945407672F782F8827B85F97
:100D300039F0B93FCCF3869577956795B395D9F798
:100D40003EF490958095709561957F4F8F4F9F4FA2
:100D50000895E89409C097FB3EF4909580957095AE
:100D600061957F4F8F4F9F4F9923A9F0F92F96E9F7
:100D7000BB279395F695879577956795B795F1116C
:100D8000F8CFFAF4BB0F11F460FF1BC06F5F7F4F09
:100D90008F4F9F4F16C0882311F096E911C077231B
:100DA00021F09EE8872F762F05C0662371F096E824
:100DB000862F70E060E02AF09A95660F771F881FF3
:100DC000DAF7880F9695879597F90895990F000897
:100DD000550FAA0BE0E8FEEF16161706E807F9070D
:100DE000C0F012161306E407F50798F0621B730BA8
:100DF000840B950B39F40A2661F0232B242B252B29
:100E000021F408950A2609F4A140A6958FEF811DCB
:100E1000811D089597F99F6780E870E060E008956C
:100E20009FEF80EC089500240A9416161706180602
:100E30000906089500240A941216130614060506DE
:100E40000895092E0394000C11F4882352F0BB0F6F
:100E500040F4BF2B11F460FF04C06F5F7F4F8F4FD2
:100E60009F4F089557FD9058440F551F59F05F3F0D
:100E700071F04795880F97FB991F61F09F3F79F0BC
:100E800087950895121613061406551FF2CF46953E
:100E9000F1DF08C0161617061806991FF1CF8695C0
:100EA0007105610508940895E894BB2766277727A4
:100EB000CB0197F908950E94E60608F48FEF089594
:100EC0000E9473070C9421070E94130738F00E94B8
:100ED0001A0720F0952311F00C940A070C941007C0
:100EE00011240C9455070E94320770F3959FC1F3AB
:100EF000950F50E0551F629FF001729FBB27F00DC8
:100F0000B11D639FAA27F00DB11DAA1F649F66271C
:100F1000B00DA11D661F829F2227B00DA11D621F6B
:100F2000739FB00DA11D621F839FA00D611D221F25
:100F3000749F3327A00D611D231F849F600D211D09
:100F4000822F762F6A2F11249F5750409AF0F1F08C
:100F500088234AF0EE0FFF1FBB1F661F771F881FF5
:100F600091505040A9F79E3F510580F00C940A071C
:100F70000C9455075F3FE4F3983ED4F3869577953C
:100F80006795B795F795E7959F5FC1F7FE2B880F9B
:100F9000911D9695879597F908950F931F93CF9379
:100FA000DF93009731F46115710519F480E090E04A
:100FB0003AC08B01EC016EE070E081E090E00E94AD
:100FC000270AFC01892B91F380E883830115110521
:100FD00071F01387028781E8838380912F029091BB
:100FE0003002892B21F4F0933002E0932F022097F6
:100FF000C9F0D187C0878381826083838091310269
:1010000090913202892B71F4F0933202E093310215
:101010008091330290913402892B21F4F0933402B1
:10102000E0933302CF01DF91CF911F910F9108958B
:10103000CF93DF93CDB7DEB7AE014A5F5F4FFA01C2
:1010400061917191AF0180913102909132020E94C1
:101050002C08DF91CF9108952F923F924F925F928B
:101060006F927F928F929F92AF92BF92CF92DF92B8
:10107000EF92FF920F931F93CF93DF93CDB7DEB71D
:101080002C970FB6F894DEBF0FBECDBF7C016B016D
:101090008A01FC0117821682838181FFBDC1CE01C6
:1010A00001964C01F7019381F60193FD859193FF21
:1010B00081916F01882309F4ABC1853239F493FD26
:1010C000859193FF81916F01853229F4B70190E0FA
:1010D0000E948D0BE7CF512C312C20E02032A0F460
:1010E0008B3269F030F4803259F0833269F4206138
:1010F0002CC08D3239F0803339F4216026C0226053
:10110000246023C0286021C027FD27C030ED380FA0
:101110003A3078F426FF06C0FAE05F9E300D1124C5
:10112000532E13C08AE0389E300D1124332E2062D6
:101130000CC08E3221F426FD6BC1206406C08C36B3
:1011400011F4206802C0883641F4F60193FD8591C0
:1011500093FF81916F018111C1CF982F9F7D95548D
:10116000933028F40C5F1F4FFFE3F9830DC08336E3
:1011700031F0833771F0833509F05BC022C0F8018C
:10118000808189830E5F1F4F44244394512C540166
:1011900015C03801F2E06F0E711CF801A080B1801B
:1011A00026FF03C0652D70E002C06FEF7FEFC50121
:1011B0002C870E94820B2C0183012C852F77222EF5
:1011C00017C03801F2E06F0E711CF801A080B180E9
:1011D00026FF03C0652D70E002C06FEF7FEFC501F1
:1011E0002C870E94700B2C012C852068222E8301F5
:1011F00023FC1BC0832D90E048165906B0F4B701BC
:1012000080E290E00E948D0B3A94F4CFF50127FC28
:10121000859127FE81915F01B70190E00E948D0BBF
:1012200031103A94F1E04F1A51084114510471F70A
:10123000E5C0843611F0893639F5F80127FF07C07B
:1012400060817181828193810C5F1F4F08C0608132
:101250007181072E000C880B990B0E5F1F4F2F76A4
:10126000722E97FF09C090958095709561957F4F7C
:101270008F4F9F4F2068722E2AE030E0A4010E9419
:10128000C50BA82EA81844C0853729F42F7EB22E8E
:101290002AE030E025C0F22FF97FBF2E8F36C1F053
:1012A00018F4883579F0B4C0803719F0883721F008
:1012B000AFC02F2F2061B22EB4FE0DC08B2D8460E5
:1012C000B82E09C024FF0AC09F2F9660B92E06C011
:1012D00028E030E005C020E130E002C020E132E04B
:1012E000F801B7FE07C060817181828193810C5F34
:1012F0001F4F06C06081718180E090E00E5F1F4F3C
:10130000A4010E94C50BA82EA818FB2DFF777F2EE5
:1013100076FE0BC0372D3E7FA51450F474FE0AC034
:1013200072FC08C0372D3E7E05C0BA2C372D03C095
:10133000BA2C01C0B52C34FF0DC0FE01EA0DF11D21
:101340008081803311F4397E09C032FF06C0B39426
:10135000B39404C0832F867809F0B39433FD13C08F
:1013600030FF06C05A2CB31418F4530C5B18B32C7E
:10137000B31468F4B70180E290E03C870E948D0BC3
:10138000B3943C85F5CFB31410F43B1801C0312C55
:1013900034FF12C0B70180E390E03C870E948D0BC0
:1013A0003C8532FF17C031FD03C088E790E002C0E2
:1013B00088E590E0B7010CC0832F867859F031FFA3
:1013C00002C08BE201C080E237FD8DE2B70190E000
:1013D0000E948D0BA51438F4B70180E390E00E94C1
:1013E0008D0B5A94F7CFAA94F401EA0DF11D808178
:1013F000B70190E00E948D0BA110F5CF332009F4C6
:1014000051CEB70180E290E00E948D0B3A94F6CF66
:10141000F7018681978102C08FEF9FEF2C960FB660
:10142000F894DEBF0FBECDBFDF91CF911F910F911A
:10143000FF90EF90DF90CF90BF90AF909F908F90F4
:101440007F906F905F904F903F902F9008950F93F3
:101450001F93CF93DF93869F8001879F100D969FE8
:10146000100D1124C8010E94430AEC01009729F0D5
:10147000A80160E070E00E947B0BCE01DF91CF916C
:101480001F910F910895CF93DF938230910510F44F
:1014900082E090E0E0913702F091380220E030E005
:1014A000C0E0D0E0309711F14081518148175907D1
:1014B000C0F04817590761F482819381209719F091
:1014C0009B838A832BC0909338028093370226C077
:1014D0002115310519F04217530718F49A01BE017E
:1014E000DF01EF010280F381E02DDCCF2115310512
:1014F00009F1281B390B2430310590F412968D9197
:101500009C9113976115710521F0FB0193838283F0
:1015100004C09093380280933702FD01329644C094
:10152000FD01E20FF31F81939193225031092D9316
:101530003C933AC02091350230913602232B41F47E
:101540002091030230910402309336022093350239
:1015500020910102309102022115310541F42DB78D
:101560003EB74091050250910602241B350BE091D5
:101570003502F0913602E217F307A0F42E1B3F0B61
:101580002817390778F0AC014E5F5F4F24173507F5
:1015900048F04E0F5F1F50933602409335028193FF
:1015A000919302C0E0E0F0E0CF01DF91CF91089588
:1015B0000F931F93CF93DF93009709F48CC0FC0126
:1015C000329713821282009137021091380201156E
:1015D000110581F420813181820F931F2091350202
:1015E000309136022817390779F5F0933602E093E7
:1015F000350271C0D80140E050E0AE17BF0750F48B
:1016000012962D913C911397AD012115310509F1E9
:10161000D901F3CF9D01DA01338322836081718187
:10162000860F971F8217930769F4EC01288139818F
:10163000260F371F2E5F3F4F318320838A819B8186
:1016400093838283452B29F4F0933802E093370289
:1016500042C01396FC93EE931297ED014991599174
:101660009E01240F351FE217F30771F480819181E9
:10167000840F951F029611969C938E93828193817D
:1016800013969C938E931297E0E0F0E0D8011296A7
:101690008D919C911397009719F0F8018C01F6CF6A
:1016A0008D919C9198012E5F3F4F820F931F209147
:1016B0003502309136022817390769F4309729F43A
:1016C000109238021092370202C0138212821093D5
:1016D000360200933502DF91CF911F910F9108954B
:1016E000FC010590615070400110D8F780959095ED
:1016F0008E0F9F1F0895DC0101C06D934150504033
:10170000E0F70895FC016150704001900110D8F796
:10171000809590958E0F9F1F08950F931F93CF93E1
:10172000DF93FB01238121FD03C08FEF9FEF28C0D2
:1017300022FF16C046815781248135814217530705
:1017400044F4A081B1819D012F5F3F4F31832083FD
:101750008C93268137812F5F3F4F3783268310C0BC
:10176000EB01092F182F0084F185E02D1995892BA5
:10177000E1F68E819F8101969F838E83812F902F2A
:10178000DF91CF911F910F910895FA01AA27283078
:1017900051F1203181F1E8946F936E7F6E5F7F4F3E
:1017A0008F4F9F4FAF4FB1E03ED0B4E03CD0670FBA
:1017B000781F891F9A1FA11D680F791F8A1F911D0D
:1017C000A11D6A0F711D811D911DA11D20D009F45D
:1017D00068943F912AE0269F11243019305D31939F
:1017E000DEF6CF010895462F4770405D4193B3E088
:1017F0000FD0C9F7F6CF462F4F70405D4A3318F02F
:10180000495D31FD4052419302D0A9F7EACFB4E0DF
:10181000A6959795879577956795BA95C9F7009797
:101820006105710508959B01AC010A2E0694579538
:10183000479537952795BA95C9F7620F731F841F8F
:0A184000951FA01D0895F894FFCF36
:10184A00F800003902200043616E204572726F72FF
:10185A000A0D006C6F772025640D0A0068696768B5
:08186A007A2025640D0A00003C
:00000001FF
