:100000000C94D5000C94F6000C94F6000C942D0181
:100010000C94F6000C94F6000C94F6000C94F60088
:100020000C94F6000C94F6000C94F6000C94F60078
:100030000C94F6000C94F6000C94F6000C946E01EF
:100040000C94F6000C94F6000C94F6000C94F60058
:100050000C94F6000C94F6000C94F6000C94F60048
:100060000C94F6000C94F6000C94F6000C94F60038
:100070000C94F6000C94F6000C94F6000C94F60028
:100080000C94F6000C94F6000C94F6000C94F60018
:100090000C94F6000C94F6000C94F6000C94CF042B
:1000A0000C94F6000C94F6000C94F6000C94F600F8
:1000B0000C94F6000C94F6000C94F6000C94F600E8
:1000C0000C94F6000C94F6000C94F6000C94F600D8
:1000D0000C94F6000C94F6000C94F6000C94F600C8
:1000E0000C94F600EE04400540054005400540052F
:1000F00040054005EE04400540054005400540052B
:1001000040054005F0044005400540054005400518
:1001100040054005400540054005400540054005B7
:1001200040054005F00440054005400540054005F8
:100130004005400540054005400540054005400597
:10014000400540053C05400540054005400540058B
:10015000400540051905400540054005400540059E
:100160004005400540054005400540054005400567
:10017000400540050D05400540054005400540058A
:10018000400540052B050C94F0040C94F2010C94EE
:10019000EA010C9419050C94EE040C942B050C94B4
:1001A0003C050C940D050C94400511241FBECFEFA7
:1001B000D1E2DEBFCDBF00E00CBF12E0A0E0B2E0B4
:1001C000E2EDFBE100E00BBF02C007900D92AC3204
:1001D000B107D9F722E0ACE2B2E001C01D92A0372E
:1001E000B207E1F70E94F8000C94E70D0C94BC01F3
:1001F000F89487E690E00E94FA010E946E020E9445
:10020000AC030E941B040E9456050E9413077894B9
:1002100085E192E09F938F930E94DC090E94BA05CA
:100220000E94D1020E94BB060E9403070F900F900C
:10023000C1E0D0E080912C0290912D02892BD1F366
:100240008091320290913302892BA1F7D09333022F
:10025000C09332020E941607EDCF1F920F920FB685
:100260000F9211240BB60F921F932F933F934F932E
:100270005F936F937F938F939F93AF93BF93CF932E
:10028000DF93EF93FF9380E592E00E943A03C0E58D
:10029000D2E01A818D8190E00E94B206812F90E019
:1002A0000E94D6038E8190E090932D0280932C02C1
:1002B000FF91EF91DF91CF91BF91AF919F918F917E
:1002C0007F916F915F914F913F912F911F910F906F
:1002D0000BBE0F900FBE0F901F9018951F920F929C
:1002E0000FB60F9211240BB60F922F933F934F939B
:1002F0005F936F937F938F939F93AF93BF93EF938E
:10030000FF930E94E805F8948091300290913102A9
:100310008C3391056CF420913202309133022130FC
:10032000310531F4019690933102809330020EC072
:100330008091320290913302019741F4109233027E
:100340001092320210923102109230027894109280
:10035000B200FF91EF91BF91AF919F918F917F91EB
:100360006F915F914F913F912F910F900BBE0F9026
:100370000FBE0F901F9018951F920F920FB60F92FD
:1003800011240BB60F922F933F934F935F936F936C
:100390007F938F939F93AF93BF93EF93FF938DE1E1
:1003A00092E09F938F930E94DC090F900F90FF9132
:1003B000EF91BF91AF919F918F917F916F915F91DD
:1003C0004F913F912F910F900BBE0F900FBE0F904A
:1003D0001F901895E0ECF0E080818823ECF7809185
:1003E000C6000895E0ECF0E0908195FFFDCF80938A
:1003F000C60008959093C5008093C40088E180935F
:10040000C1008EE08093C2006AEE71E082EF91E05D
:100410000E94910908958EBD0DB407FEFDCF089589
:100420008FEF8EBD0DB407FEFDCF8EB590E0089521
:10043000009719F0019719F008952F9808952F9AB1
:10044000089584B1876884B9239881E58CBD81E0E3
:1004500090E00E9418020895CF93DF93C82F80E0A8
:1004600090E00E94180283E00E940B028C2F0E94F1
:100470000B020E941002EC0181E090E00E94180241
:10048000CE01DF91CF910895CF93DF93D82FC62F60
:1004900080E090E00E94180282E00E940B028D2F03
:1004A0000E940B028C2F0E940B0281E090E00E94C0
:1004B0001802DF91CF91089580E090E00E94180229
:1004C00080EC0E940B0281E090E00E9418028FE411
:1004D00093EC0197F1F700C0000008950E942102FB
:1004E0000E945C028EE090E00E942C02089580E061
:1004F00090E00E94180280EA0E940B0281E090E0E6
:100500000E94180280EA90E0089581E090E008954A
:10051000CF93DF93EC0180E090E00E941802CE01BF
:1005200063E070E00E942307009739F08130910565
:1005300031F0029731F484E805C081E803C082E815
:1005400001C081E80E940B0281E090E00E94180245
:10055000DF91CF9108951F93CF93DF93182FD62F5C
:10056000C42F80E090E00E94180285E00E940B02F8
:10057000812F0E940B028D2F0E940B028C2F0E9454
:100580000B0281E090E00E941802DF91CF911F9151
:100590000895AC0160EE70E08FE090E00E94AB0245
:1005A000089580E090E00E94180243E050E063E08C
:1005B00070E08BE290E00E94AB0240E050E063E02C
:1005C00070E08CE290E00E94AB02EAE6F0E080810D
:1005D00082608083EA9AE29A80E090E00E94C902F9
:1005E00081E090E00E9418020895EF92FF920F932D
:1005F0001F93CF93DF937C01FC0160816695669524
:10060000669570E081E390E00E944402F70160810A
:10061000F0E26F9FB001112482E390E00E94440257
:10062000F701618170E085E390E00E944402F701E8
:1006300081818823A1F087010E5F1F4FC0E0D0E0C9
:10064000F80161918F0170E0CE01C6960E944402CC
:100650002196F701218130E0C217D3078CF380E0A7
:1006600090E00E948802DF91CF911F910F91FF903F
:10067000EF900895CF92DF92FF920F931F93CF9345
:10068000DF936C018CE290E00E942C02F82E80FF38
:1006900037C081E690E00E942C02C82F82E690E0ED
:1006A0000E942C0296958795929582958F70892746
:1006B0009F708927282F38E0C39F200D1124F60151
:1006C000208385E690E00E942C02F6018183882336
:1006D000A1F086010E5F1F4FC0E0D0E0CE018A5925
:1006E0009F4F0E942C02F80181938F012196F60101
:1006F000218130E0C217D3078CF3FF2DFC7FFF2E42
:100700006F2DFF0C770B8CE290E00E944402DF918A
:10071000CF911F910F91FF90DF90CF900895259A70
:10072000E1E8F0E0808182608083E0E8F0E08081B1
:10073000806C80830895E0E8F0E0808182608083AF
:10074000E1E8F0E080818861808380E49CE9909317
:1007500087008093860008950E948F030E949B0368
:100760000895BC01990F880B990B0E946F0820E037
:1007700030E04FE753E40E94C5072AE939E949E927
:100780005FE30E94240926E636E646E65FE30E9420
:100790005407089585B3827085BB882331F0A998EA
:1007A00085B3827085BB8111FACF0895CF92DF9215
:1007B000EF92FF920E94B1036B017C0126E636E6C0
:1007C00046E65FE30E94C0078823A4F026E636E6EB
:1007D00046E050E4C701B6010E941F09181694F4C0
:1007E0000F2EF6E6CF2EDC2CF6E0EF2EF0E4FF2EF7
:1007F000F02D08C00F2EF6E6CF2EDC2CEC2CFFE3FC
:10080000FF2EF02DA701960160E070E080EA91E4F0
:100810000E94530720E030E04AEF54E40E9424098C
:100820000E943E087093890060938800FF90EF90CB
:10083000DF90CF9008958298ECE7F0E080818064AB
:10084000808380818F7780838081826080838081B4
:100850008E7F808380818B7F80838081877F808370
:1008600080818F7E8083EBE7F0E08081877F8083CB
:10087000EAE7F0E08081876880830895EAE7F0E0A6
:1008800080818064808380818091780020917900CC
:1008900090E0922B08950E943E04803991408CF4A0
:1008A00084E292E09F938F930E94DC098FE493ECA3
:1008B0000197F1F700C000000F900F9081E090E0E9
:1008C000089580E090E008958CE08093B8008FEF69
:1008D0008093BB0084E08093BC0008958091BC00AD
:1008E00081700895ECEBF0E0808180FDFDCF809178
:1008F00000020895CF93DF93EC01ECEBF0E09081E0
:1009000090FDFDCF6093360298819093370290FD61
:1009100013C0623088F0FE013196A8E3B2E0625065
:10092000262F30E02E5F3F4FCE01820F931F219183
:100930002D93E817F907D9F71092340288EF8093C6
:10094000000285EA8093BC00DF91CF910895ECEB23
:10095000F0E0808180FDFDCF1092340288EF80931B
:10096000000285EA8093BC000895ECEBF0E0208162
:1009700020FDFDCF2091340220FF0DC0662359F0E9
:1009800027E332E0A82FB92FF90181918D938E2FA3
:10099000821B8617D0F380913402817008951F92D4
:1009A0000F920FB60F9211240BB60F922F933F9315
:1009B0008F939F93AF93BF93EF93FF93E091B90011
:1009C0008E2F90E0FC013897E135F10508F058C012
:1009D0008827EE58FF4F8F4F0C943707109235023F
:1009E000E091350280913602E81770F481E08E0FB5
:1009F00080933502F0E0E95CFD4F80818093BB007D
:100A000085E88093BC0043C080913402816080936C
:100A1000340284E98093BC003AC0E091350281E061
:100A20008E0F809335028091BB00F0E0E95CFD4FB2
:100A300080832091350230E08091360290E001976A
:100A40002817390724F485EC8093BC0020C085E882
:100A50008093BC001CC08091BB00E0913502F0E0A7
:100A6000E95CFD4F80838091340281608093340281
:100A700084E98093BC000BC085EA8093BC0007C06A
:100A80008091B9008093000284E08093BC00FF91C4
:100A9000EF91BF91AF919F918F913F912F910F90C7
:100AA0000BBE0F900FBE0F901F901895E2E0F1E083
:100AB0008081806180830895E2E0F1E080818F7E13
:100AC00080830895CF93DF9300D0CDB7DEB7803811
:100AD000910584F466277727681B790BCB01880F73
:100AE000991FBC0161507F4FE2E0F1E080818D7F72
:100AF00080830AC0BC0160587109660F771FE2E06D
:100B0000F1E08081826080836F3F710519F014F0FD
:100B10006FEF70E080E589831A82772314F460E038
:100B200070E0072E000C880B990B0E946F0820E0E4
:100B300030E040E05FE30E9424090E9437086B83A5
:100B400063E0CE0101960E947A040F900F900F90FF
:100B5000DF91CF910895E2E0F1E080818F7B808387
:100B600087EA91E60197F1F700C000008081806478
:100B7000808308958AB183608AB90E9464048FEFEC
:100B800080930101109207010E94AB050895E2E0F5
:100B9000F1E080818F7D80838081877F808387E8FB
:100BA00093E10197F1F700C00000A6E0B1E02C91BD
:100BB00080818860808387E893E10197F1F700C026
:100BC00000008C9190819062908390E0922B089528
:100BD0008F929F92AF92BF92CF92DF92EF92FF924D
:100BE0000F931F93CF930E94C705C0904902D090E6
:100BF0004A02E0904B02F0904C02BC01990F880B26
:100C0000990B0E946F08A70196010E94530720E0EC
:100C100030E04FE753E40E9424094B015C01A70137
:100C20009601609145027091460280914702909131
:100C300048020E9453079B01AC01C501B4010E9408
:100C4000C5070E94370820910102309102028B01F2
:100C5000021B130BC0903F02D0904002E090410273
:100C6000F0904202C1E020E030E0A901C701B601E6
:100C70000E941F0918160CF0C0E0CC2349F120E0B7
:100C800030E04FE753E4C701B6010E94C007882354
:100C9000FCF4B801012E000C880B990B0E946F0820
:100CA0002091030230910402409105025091060206
:100CB0000E9424099B01AC01C701B6010E945407A0
:100CC00060933F02709340028093410290934202EE
:100CD000B801110F880B990B0E946F0820910B022D
:100CE00030910C0240910D0250910E020E94240995
:100CF0006B017C0120913F02309140024091410202
:100D0000509142026091070270910802809109029D
:100D100090910A020E9424099B01AC01C701B6010F
:100D20000E94540720E030E040E053E40E94540762
:100D30000E9437087093650260936402CB010E94A1
:100D40006205CF911F910F91FF90EF90DF90CF90B0
:100D5000BF90AF909F908F9008959093440280939E
:100D6000430208952FEF30E0281B390B3093020225
:100D70002093010208952FEF83ED90E321508040EE
:100D80009040E1F700C0000080E090E00E94620522
:100D90002FEF83ED90E3215080409040E1F700C0B9
:100DA00000000E94C705BC01990F880B990B0E9497
:100DB0006F086093450270934602809347029093B8
:100DC00048028FEF90E00E9462052FEF83ED90E3E1
:100DD000215080409040E1F700C000000E94C7050C
:100DE000BC01990F880B990B0E946F086093490210
:100DF00070934A0280934B0290934C0280E890E0FB
:100E00000E94620508951092B000E1EBF0E080814D
:100E100087608083E0E7F0E0808181608083B89A1A
:100E20001092B2000895269A2E9A08952E982FEFC8
:100E300083EC99E0215080409040E1F700C0000031
:100E40002E9A0895089597FB072E16F4009407D064
:100E500077FD09D00E943F0707FC05D03EF490952E
:100E600081959F4F0895709561957F4F0895EE0F7E
:100E7000FF1F881F8BBF0790F691E02D1994AA1BC6
:100E8000BB1B51E107C0AA1FBB1FA617B70710F075
:100E9000A61BB70B881F991F5A95A9F780959095A7
:100EA000BC01CD0108955058BB27AA270E946B07AB
:100EB0000C94E5080E94D70838F00E94DE0820F064
:100EC00039F49F3F19F426F40C94D4080EF4E095FD
:100ED000E7FB0C94CE08E92F0E94F60858F3BA17E6
:100EE000620773078407950720F079F4A6F50C9440
:100EF00018090EF4E0950B2EBA2FA02D0B01B901A5
:100F000090010C01CA01A0011124FF27591B99F07F
:100F1000593F50F4503E68F11A16F040A22F232F8B
:100F2000342F4427585FF3CF469537952795A795DB
:100F3000F0405395C9F77EF41F16BA0B620B730B82
:100F4000840BBAF09150A1F0FF0FBB1F661F771FF3
:100F5000881FC2F70EC0BA0F621F731F841F48F4A8
:100F6000879577956795B795F7959E3F08F0B0CF31
:100F70009395880F08F09927EE0F97958795089518
:100F80000E94AA0808F481E008950E94D9070C94F1
:100F9000E5080E94DE0858F00E94D70840F029F4C6
:100FA0005F3F29F00C94CE0851110C9419090C9450
:100FB000D4080E94F60868F39923B1F3552391F3FE
:100FC000951B550BBB27AA2762177307840738F0B8
:100FD0009F5F5F4F220F331F441FAA1FA9F335D015
:100FE0000E2E3AF0E0E832D091505040E695001CC9
:100FF000CAF72BD0FE2F29D0660F771F881FBB1F83
:10100000261737074807AB07B0E809F0BB0B802D60
:10101000BF01FF2793585F4F3AF09E3F510578F08C
:101020000C94CE080C9419095F3FE4F3983ED4F376
:10103000869577956795B795F7959F5FC9F7880F60
:10104000911D9695879597F90895E1E0660F771FB2
:10105000881FBB1F621773078407BA0720F0621B43
:10106000730B840BBA0BEE1F88F7E09508950E946E
:101070003E086894B1110C94190908950E94FE0865
:1010800088F09F5798F0B92F9927B751B0F0E1F049
:10109000660F771F881F991F1AF0BA95C9F714C0F9
:1010A000B13091F00E941809B1E008950C9418092C
:1010B000672F782F8827B85F39F0B93FCCF3869532
:1010C00077956795B395D9F73EF49095809570958F
:1010D00061957F4F8F4F9F4F0895E89409C097FB0C
:1010E0003EF490958095709561957F4F8F4F9F4FFF
:1010F0009923A9F0F92F96E9BB279395F695879543
:1011000077956795B795F111F8CFFAF4BB0F11F405
:1011100060FF1BC06F5F7F4F8F4F9F4F16C08823AC
:1011200011F096E911C0772321F09EE8872F762FE2
:1011300005C0662371F096E8862F70E060E02AF023
:101140009A95660F771F881FDAF7880F969587950F
:1011500097F90895990F0008550FAA0BE0E8FEEFE4
:1011600016161706E807F907C0F012161306E4076B
:10117000F50798F0621B730B840B950B39F40A2664
:1011800061F0232B242B252B21F408950A2609F442
:10119000A140A6958FEF811D811D089597F99F6746
:1011A00080E870E060E008959FEF80EC08950024EF
:1011B0000A941616170618060906089500240A94BC
:1011C00012161306140605060895092E0394000C42
:1011D00011F4882352F0BB0F40F4BF2B11F460FFD1
:1011E00004C06F5F7F4F8F4F9F4F089557FD9058FA
:1011F000440F551F59F05F3F71F04795880F97FBDB
:10120000991F61F09F3F79F0879508951216130694
:101210001406551FF2CF4695F1DF08C016161706C3
:101220001806991FF1CF86957105610508940895F8
:10123000E894BB2766277727CB0197F908950E948A
:10124000AA0808F48FEF08950E9437090C94E50866
:101250000E94D70838F00E94DE0820F0952311F094
:101260000C94CE080C94D40811240C9419090E94F3
:10127000F60870F3959FC1F3950F50E0551F629FDC
:10128000F001729FBB27F00DB11D639FAA27F00DDF
:10129000B11DAA1F649F6627B00DA11D661F829F06
:1012A0002227B00DA11D621F739FB00DA11D621FEB
:1012B000839FA00D611D221F749F3327A00D611D08
:1012C000231F849F600D211D822F762F6A2F1124EA
:1012D0009F5750409AF0F1F088234AF0EE0FFF1F1D
:1012E000BB1F661F771F881F91505040A9F79E3F74
:1012F000510580F00C94CE080C9419095F3FE4F37B
:10130000983ED4F3869577956795B795F795E795C9
:101310009F5FC1F7FE2B880F911D9695879597F9D2
:1013200008950F931F93CF93DF93009731F46115C6
:10133000710519F480E090E03AC08B01EC016EE099
:1013400070E081E090E00E94EB0BFC01892B91F3AF
:1013500080E883830115110571F01387028781E806
:1013600083838091660290916702892B21F4F09328
:101370006702E09366022097C9F0D187C087838116
:10138000826083838091680290916902892B71F455
:10139000F0936902E093680280916A0290916B0277
:1013A000892B21F4F0936B02E0936A02CF01DF9165
:1013B000CF911F910F910895CF93DF93CDB7DEB7F3
:1013C000AE014A5F5F4FFA0161917191AF01809167
:1013D0006802909169020E94F009DF91CF9108950F
:1013E0002F923F924F925F926F927F928F929F9235
:1013F000AF92BF92CF92DF92EF92FF920F931F9323
:10140000CF93DF93CDB7DEB72C970FB6F894DEBF3E
:101410000FBECDBF7C016B018A01FC0117821682D1
:10142000838181FFBDC1CE0101964C01F7019381FB
:10143000F60193FD859193FF81916F01882309F453
:10144000ABC1853239F493FD859193FF81916F0192
:10145000853229F4B70190E00E94510DE7CF512C5D
:10146000312C20E02032A0F48B3269F030F480324D
:1014700059F0833269F420612CC08D3239F0803309
:1014800039F4216026C02260246023C0286021C076
:1014900027FD27C030ED380F3A3078F426FF06C01C
:1014A000FAE05F9E300D1124532E13C08AE0389E5F
:1014B000300D1124332E20620CC08E3221F426FD13
:1014C0006BC1206406C08C3611F4206802C08836D7
:1014D00041F4F60193FD859193FF81916F01811194
:1014E000C1CF982F9F7D9554933028F40C5F1F4FE8
:1014F000FFE3F9830DC0833631F0833771F0833514
:1015000009F05BC022C0F801808189830E5F1F4F04
:1015100044244394512C540115C03801F2E06F0E5D
:10152000711CF801A080B18026FF03C0652D70E01A
:1015300002C06FEF7FEFC5012C870E94460D2C0182
:1015400083012C852F77222E17C03801F2E06F0E11
:10155000711CF801A080B18026FF03C0652D70E0EA
:1015600002C06FEF7FEFC5012C870E94340D2C0164
:101570002C852068222E830123FC1BC0832D90E044
:1015800048165906B0F4B70180E290E00E94510D70
:101590003A94F4CFF50127FC859127FE81915F01F4
:1015A000B70190E00E94510D31103A94F1E04F1ACA
:1015B00051084114510471F7E5C0843611F08936A1
:1015C00039F5F80127FF07C060817181828193811D
:1015D0000C5F1F4F08C060817181072E000C880BC3
:1015E000990B0E5F1F4F2F76722E97FF09C09095B3
:1015F0008095709561957F4F8F4F9F4F2068722E19
:101600002AE030E0A4010E94890DA82EA81844C049
:10161000853729F42F7EB22E2AE030E025C0F22F44
:10162000F97FBF2E8F36C1F018F4883579F0B4C039
:10163000803719F0883721F0AFC02F2F2061B22EEC
:10164000B4FE0DC08B2D8460B82E09C024FF0AC0E3
:101650009F2F9660B92E06C028E030E005C020E13B
:1016600030E002C020E132E0F801B7FE07C060813F
:101670007181828193810C5F1F4F06C060817181EF
:1016800080E090E00E5F1F4FA4010E94890DA82EFC
:10169000A818FB2DFF777F2E76FE0BC0372D3E7FDF
:1016A000A51450F474FE0AC072FC08C0372D3E7EAB
:1016B00005C0BA2C372D03C0BA2C01C0B52C34FF9D
:1016C0000DC0FE01EA0DF11D8081803311F4397ED9
:1016D00009C032FF06C0B394B39404C0832F867848
:1016E00009F0B39433FD13C030FF06C05A2CB31475
:1016F00018F4530C5B18B32CB31468F4B70180E2F0
:1017000090E03C870E94510DB3943C85F5CFB31413
:1017100010F43B1801C0312C34FF12C0B70180E334
:1017200090E03C870E94510D3C8532FF17C031FD8F
:1017300003C088E790E002C088E590E0B7010CC0E4
:10174000832F867859F031FF02C08BE201C080E21E
:1017500037FD8DE2B70190E00E94510DA51438F4D9
:10176000B70180E390E00E94510D5A94F7CFAA94FC
:10177000F401EA0DF11D8081B70190E00E94510D46
:10178000A110F5CF332009F451CEB70180E290E0EB
:101790000E94510D3A94F6CFF7018681978102C0DD
:1017A0008FEF9FEF2C960FB6F894DEBF0FBECDBF24
:1017B000DF91CF911F910F91FF90EF90DF90CF902D
:1017C000BF90AF909F908F907F906F905F904F9061
:1017D0003F902F9008950F931F93CF93DF93869F91
:1017E0008001879F100D969F100D1124C8010E9443
:1017F000070CEC01009729F0A80160E070E00E945E
:101800003F0DCE01DF91CF911F910F910895CF939E
:10181000DF938230910510F482E090E0E0916E0257
:10182000F0916F0220E030E0C0E0D0E0309711F19D
:101830004081518148175907C0F04817590761F492
:1018400082819381209719F09B838A832BC0909388
:101850006F0280936E0226C02115310519F04217E0
:10186000530718F49A01BE01DF01EF010280F381F2
:10187000E02DDCCF2115310509F1281B390B24306F
:10188000310590F412968D919C9113976115710515
:1018900021F0FB019383828304C090936F028093B5
:1018A0006E02FD01329644C0FD01E20FF31F8193E9
:1018B0009193225031092D933C933AC020916C02B0
:1018C00030916D02232B41F42091110230911202CC
:1018D00030936D0220936C0220910F023091100220
:1018E0002115310541F42DB73EB7409113025091B7
:1018F0001402241B350BE0916C02F0916D02E2178B
:10190000F307A0F42E1B3F0B2817390778F0AC0122
:101910004E5F5F4F2417350748F04E0F5F1F5093FF
:101920006D0240936C028193919302C0E0E0F0E07D
:10193000CF01DF91CF9108950F931F93CF93DF9342
:10194000009709F48CC0FC01329713821282009137
:101950006E0210916F020115110581F42081318111
:10196000820F931F20916C0230916D022817390766
:1019700079F5F0936D02E0936C0271C0D80140E0FC
:1019800050E0AE17BF0750F412962D913C9113977B
:10199000AD012115310509F1D901F3CF9D01DA011E
:1019A0003383228360817181860F971F821793078B
:1019B00069F4EC0128813981260F371F2E5F3F4FD4
:1019C000318320838A819B8193838283452B29F4F1
:1019D000F0936F02E0936E0242C01396FC93EE9375
:1019E0001297ED01499159919E01240F351FE2177D
:1019F000F30771F480819181840F951F02961196EF
:101A00009C938E938281938113969C938E931297CD
:101A1000E0E0F0E0D80112968D919C911397009729
:101A200019F0F8018C01F6CF8D919C9198012E5FF1
:101A30003F4F820F931F20916C0230916D02281747
:101A4000390769F4309729F410926F0210926E02F0
:101A500002C01382128210936D0200936C02DF9118
:101A6000CF911F910F910895FC0105906150704036
:101A70000110D8F7809590958E0F9F1F0895DC0177
:101A800001C06D9341505040E0F70895FC01615052
:101A9000704001900110D8F7809590958E0F9F1F90
:101AA00008950F931F93CF93DF93FB01238121FDB3
:101AB00003C08FEF9FEF28C022FF16C046815781D9
:101AC000248135814217530744F4A081B1819D01DF
:101AD0002F5F3F4F318320838C93268137812F5F87
:101AE0003F4F3783268310C0EB01092F182F008446
:101AF000F185E02D1995892BE1F68E819F81019664
:101B00009F838E83812F902FDF91CF911F910F9113
:101B10000895FA01AA27283051F1203181F1E89483
:101B20006F936E7F6E5F7F4F8F4F9F4FAF4FB1E0D0
:101B30003ED0B4E03CD0670F781F891F9A1FA11DCB
:101B4000680F791F8A1F911DA11D6A0F711D811DCC
:101B5000911DA11D20D009F468943F912AE0269F91
:101B600011243019305D3193DEF6CF010895462FF0
:101B70004770405D4193B3E00FD0C9F7F6CF462FD1
:101B80004F70405D4A3318F0495D31FD405241933A
:101B900002D0A9F7EACFB4E0A695979587957795F7
:101BA0006795BA95C9F700976105710508959B017E
:101BB000AC010A2E06945795479537952795BA9507
:101BC000C9F7620F731F841F951FA01D0895F89415
:021BD000FFCF45
:101BD200F8E6000AD7233C00000040000000400065
:101BE20000700220006C657373676F21006261648C
:0C1BF20069737200676F616C2121210093
:00000001FF
